{
  "address": "0xC64ebE49d825C36cF377f98cE6C8F7c8E06d9ea4",
  "abi": [
    {
      "inputs": [
        {
          "internalType": "address",
          "name": "_intentCollector",
          "type": "address"
        },
        {
          "internalType": "address",
          "name": "_priceFeed",
          "type": "address"
        },
        {
          "internalType": "address",
          "name": "_uniswapRouter",
          "type": "address"
        },
        {
          "internalType": "address",
          "name": "_usdcToken",
          "type": "address"
        },
        {
          "internalType": "address",
          "name": "_wethAddress",
          "type": "address"
        },
        {
          "internalType": "address",
          "name": "_owner",
          "type": "address"
        }
      ],
      "stateMutability": "nonpayable",
      "type": "constructor"
    },
    {
      "inputs": [],
      "name": "AutomationNotEnabled",
      "type": "error"
    },
    {
      "inputs": [],
      "name": "BatchNotReady",
      "type": "error"
    },
    {
      "inputs": [],
      "name": "HandlesAlreadySavedForRequestID",
      "type": "error"
    },
    {
      "inputs": [],
      "name": "InsufficientBalance",
      "type": "error"
    },
    {
      "inputs": [],
      "name": "InvalidKMSSignatures",
      "type": "error"
    },
    {
      "inputs": [],
      "name": "InvalidPriceData",
      "type": "error"
    },
    {
      "inputs": [],
      "name": "InvalidSlippage",
      "type": "error"
    },
    {
      "inputs": [],
      "name": "NoHandleFoundForRequestID",
      "type": "error"
    },
    {
      "inputs": [],
      "name": "NoWithdrawalInProgress",
      "type": "error"
    },
    {
      "inputs": [
        {
          "internalType": "address",
          "name": "owner",
          "type": "address"
        }
      ],
      "name": "OwnableInvalidOwner",
      "type": "error"
    },
    {
      "inputs": [
        {
          "internalType": "address",
          "name": "account",
          "type": "address"
        }
      ],
      "name": "OwnableUnauthorizedAccount",
      "type": "error"
    },
    {
      "inputs": [],
      "name": "PriceDataStale",
      "type": "error"
    },
    {
      "inputs": [],
      "name": "ReentrancyGuardReentrantCall",
      "type": "error"
    },
    {
      "inputs": [],
      "name": "SwapFailed",
      "type": "error"
    },
    {
      "inputs": [],
      "name": "UnauthorizedAutomation",
      "type": "error"
    },
    {
      "inputs": [],
      "name": "UnsupportedHandleType",
      "type": "error"
    },
    {
      "inputs": [],
      "name": "WithdrawalAlreadyInProgress",
      "type": "error"
    },
    {
      "inputs": [],
      "name": "WithdrawalRequestNotFound",
      "type": "error"
    },
    {
      "anonymous": false,
      "inputs": [
        {
          "indexed": true,
          "internalType": "uint256",
          "name": "batchId",
          "type": "uint256"
        },
        {
          "indexed": false,
          "internalType": "string",
          "name": "reason",
          "type": "string"
        }
      ],
      "name": "AutomationTriggered",
      "type": "event"
    },
    {
      "anonymous": false,
      "inputs": [
        {
          "indexed": true,
          "internalType": "uint256",
          "name": "batchId",
          "type": "uint256"
        },
        {
          "indexed": false,
          "internalType": "uint256",
          "name": "totalAmountIn",
          "type": "uint256"
        },
        {
          "indexed": false,
          "internalType": "uint256",
          "name": "totalAmountOut",
          "type": "uint256"
        },
        {
          "indexed": false,
          "internalType": "uint256",
          "name": "priceAtExecution",
          "type": "uint256"
        },
        {
          "indexed": false,
          "internalType": "uint256",
          "name": "participantCount",
          "type": "uint256"
        },
        {
          "indexed": false,
          "internalType": "bool",
          "name": "success",
          "type": "bool"
        }
      ],
      "name": "BatchProcessed",
      "type": "event"
    },
    {
      "anonymous": false,
      "inputs": [
        {
          "indexed": true,
          "internalType": "uint256",
          "name": "requestID",
          "type": "uint256"
        }
      ],
      "name": "DecryptionFulfilled",
      "type": "event"
    },
    {
      "anonymous": false,
      "inputs": [
        {
          "indexed": true,
          "internalType": "uint256",
          "name": "requestId",
          "type": "uint256"
        },
        {
          "indexed": false,
          "internalType": "uint256",
          "name": "decryptedAmount",
          "type": "uint256"
        }
      ],
      "name": "DecryptionFulfilled",
      "type": "event"
    },
    {
      "anonymous": false,
      "inputs": [
        {
          "indexed": true,
          "internalType": "uint256",
          "name": "batchId",
          "type": "uint256"
        },
        {
          "indexed": true,
          "internalType": "uint256",
          "name": "requestId",
          "type": "uint256"
        },
        {
          "indexed": false,
          "internalType": "euint64",
          "name": "encryptedAmount",
          "type": "bytes32"
        }
      ],
      "name": "DecryptionRequested",
      "type": "event"
    },
    {
      "anonymous": false,
      "inputs": [
        {
          "indexed": true,
          "internalType": "address",
          "name": "token",
          "type": "address"
        },
        {
          "indexed": false,
          "internalType": "uint256",
          "name": "amount",
          "type": "uint256"
        }
      ],
      "name": "EmergencyWithdraw",
      "type": "event"
    },
    {
      "anonymous": false,
      "inputs": [
        {
          "indexed": true,
          "internalType": "address",
          "name": "user",
          "type": "address"
        },
        {
          "indexed": false,
          "internalType": "uint256",
          "name": "ethAmount",
          "type": "uint256"
        },
        {
          "indexed": false,
          "internalType": "uint256",
          "name": "timestamp",
          "type": "uint256"
        }
      ],
      "name": "EthWithdrawalCompleted",
      "type": "event"
    },
    {
      "anonymous": false,
      "inputs": [
        {
          "indexed": true,
          "internalType": "address",
          "name": "user",
          "type": "address"
        },
        {
          "indexed": true,
          "internalType": "uint256",
          "name": "requestId",
          "type": "uint256"
        },
        {
          "indexed": false,
          "internalType": "uint256",
          "name": "timestamp",
          "type": "uint256"
        }
      ],
      "name": "EthWithdrawalInitiated",
      "type": "event"
    },
    {
      "anonymous": false,
      "inputs": [
        {
          "indexed": true,
          "internalType": "uint256",
          "name": "intentId",
          "type": "uint256"
        },
        {
          "indexed": true,
          "internalType": "uint256",
          "name": "batchId",
          "type": "uint256"
        },
        {
          "indexed": false,
          "internalType": "bool",
          "name": "passedPriceFilter",
          "type": "bool"
        }
      ],
      "name": "IntentFiltered",
      "type": "event"
    },
    {
      "anonymous": false,
      "inputs": [
        {
          "indexed": true,
          "internalType": "address",
          "name": "previousOwner",
          "type": "address"
        },
        {
          "indexed": true,
          "internalType": "address",
          "name": "newOwner",
          "type": "address"
        }
      ],
      "name": "OwnershipTransferred",
      "type": "event"
    },
    {
      "anonymous": false,
      "inputs": [
        {
          "indexed": true,
          "internalType": "uint256",
          "name": "batchId",
          "type": "uint256"
        },
        {
          "indexed": false,
          "internalType": "uint256",
          "name": "participantCount",
          "type": "uint256"
        },
        {
          "indexed": false,
          "internalType": "uint256",
          "name": "totalUsdcSpent",
          "type": "uint256"
        },
        {
          "indexed": false,
          "internalType": "uint256",
          "name": "totalEthReceived",
          "type": "uint256"
        },
        {
          "indexed": false,
          "internalType": "uint256",
          "name": "scaledRate",
          "type": "uint256"
        }
      ],
      "name": "ProportionalDistributionCompleted",
      "type": "event"
    },
    {
      "anonymous": false,
      "inputs": [
        {
          "indexed": true,
          "internalType": "uint256",
          "name": "batchId",
          "type": "uint256"
        },
        {
          "indexed": false,
          "internalType": "uint256",
          "name": "amountIn",
          "type": "uint256"
        },
        {
          "indexed": false,
          "internalType": "uint256",
          "name": "amountOut",
          "type": "uint256"
        },
        {
          "indexed": false,
          "internalType": "uint256",
          "name": "price",
          "type": "uint256"
        }
      ],
      "name": "SwapExecuted",
      "type": "event"
    },
    {
      "anonymous": false,
      "inputs": [
        {
          "indexed": true,
          "internalType": "address",
          "name": "user",
          "type": "address"
        },
        {
          "indexed": false,
          "internalType": "uint256",
          "name": "usdcAmount",
          "type": "uint256"
        },
        {
          "indexed": false,
          "internalType": "uint256",
          "name": "timestamp",
          "type": "uint256"
        }
      ],
      "name": "UsdcWithdrawalCompleted",
      "type": "event"
    },
    {
      "anonymous": false,
      "inputs": [
        {
          "indexed": true,
          "internalType": "address",
          "name": "user",
          "type": "address"
        },
        {
          "indexed": true,
          "internalType": "uint256",
          "name": "requestId",
          "type": "uint256"
        },
        {
          "indexed": false,
          "internalType": "uint256",
          "name": "timestamp",
          "type": "uint256"
        }
      ],
      "name": "UsdcWithdrawalInitiated",
      "type": "event"
    },
    {
      "anonymous": false,
      "inputs": [
        {
          "indexed": true,
          "internalType": "address",
          "name": "user",
          "type": "address"
        },
        {
          "indexed": false,
          "internalType": "uint256",
          "name": "ethAmount",
          "type": "uint256"
        },
        {
          "indexed": false,
          "internalType": "uint256",
          "name": "scaledAmount",
          "type": "uint256"
        }
      ],
      "name": "UserWithdrew",
      "type": "event"
    },
    {
      "inputs": [],
      "name": "CHECK_UPKEEP_GAS_LIMIT",
      "outputs": [
        {
          "internalType": "uint256",
          "name": "",
          "type": "uint256"
        }
      ],
      "stateMutability": "view",
      "type": "function"
    },
    {
      "inputs": [],
      "name": "MIN_PRICE_DEVIATION",
      "outputs": [
        {
          "internalType": "uint256",
          "name": "",
          "type": "uint256"
        }
      ],
      "stateMutability": "view",
      "type": "function"
    },
    {
      "inputs": [],
      "name": "PERFORM_UPKEEP_GAS_LIMIT",
      "outputs": [
        {
          "internalType": "uint256",
          "name": "",
          "type": "uint256"
        }
      ],
      "stateMutability": "view",
      "type": "function"
    },
    {
      "inputs": [],
      "name": "POOL_FEE",
      "outputs": [
        {
          "internalType": "uint24",
          "name": "",
          "type": "uint24"
        }
      ],
      "stateMutability": "view",
      "type": "function"
    },
    {
      "inputs": [],
      "name": "PRICE_STALENESS_THRESHOLD",
      "outputs": [
        {
          "internalType": "uint256",
          "name": "",
          "type": "uint256"
        }
      ],
      "stateMutability": "view",
      "type": "function"
    },
    {
      "inputs": [],
      "name": "RATE_PRECISION",
      "outputs": [
        {
          "internalType": "uint256",
          "name": "",
          "type": "uint256"
        }
      ],
      "stateMutability": "view",
      "type": "function"
    },
    {
      "inputs": [],
      "name": "SCALING_FACTOR",
      "outputs": [
        {
          "internalType": "uint256",
          "name": "",
          "type": "uint256"
        }
      ],
      "stateMutability": "view",
      "type": "function"
    },
    {
      "inputs": [],
      "name": "SLIPPAGE_TOLERANCE",
      "outputs": [
        {
          "internalType": "uint256",
          "name": "",
          "type": "uint256"
        }
      ],
      "stateMutability": "view",
      "type": "function"
    },
    {
      "inputs": [
        {
          "internalType": "address",
          "name": "",
          "type": "address"
        }
      ],
      "name": "activeEthWithdrawalRequest",
      "outputs": [
        {
          "internalType": "uint256",
          "name": "",
          "type": "uint256"
        }
      ],
      "stateMutability": "view",
      "type": "function"
    },
    {
      "inputs": [
        {
          "internalType": "address",
          "name": "",
          "type": "address"
        }
      ],
      "name": "activeUsdcWithdrawalRequest",
      "outputs": [
        {
          "internalType": "uint256",
          "name": "",
          "type": "uint256"
        }
      ],
      "stateMutability": "view",
      "type": "function"
    },
    {
      "inputs": [],
      "name": "automationEnabled",
      "outputs": [
        {
          "internalType": "bool",
          "name": "",
          "type": "bool"
        }
      ],
      "stateMutability": "view",
      "type": "function"
    },
    {
      "inputs": [
        {
          "internalType": "uint256",
          "name": "",
          "type": "uint256"
        },
        {
          "internalType": "uint256",
          "name": "",
          "type": "uint256"
        }
      ],
      "name": "batchContributions",
      "outputs": [
        {
          "internalType": "address",
          "name": "user",
          "type": "address"
        },
        {
          "internalType": "euint64",
          "name": "encryptedAmount",
          "type": "bytes32"
        }
      ],
      "stateMutability": "view",
      "type": "function"
    },
    {
      "inputs": [
        {
          "internalType": "uint256",
          "name": "",
          "type": "uint256"
        }
      ],
      "name": "batchResults",
      "outputs": [
        {
          "internalType": "uint256",
          "name": "batchId",
          "type": "uint256"
        },
        {
          "internalType": "uint256",
          "name": "totalAmountIn",
          "type": "uint256"
        },
        {
          "internalType": "uint256",
          "name": "totalAmountOut",
          "type": "uint256"
        },
        {
          "internalType": "uint256",
          "name": "priceAtExecution",
          "type": "uint256"
        },
        {
          "internalType": "uint256",
          "name": "participantCount",
          "type": "uint256"
        },
        {
          "internalType": "uint256",
          "name": "executedAt",
          "type": "uint256"
        },
        {
          "internalType": "bool",
          "name": "success",
          "type": "bool"
        }
      ],
      "stateMutability": "view",
      "type": "function"
    },
    {
      "inputs": [
        {
          "internalType": "bytes",
          "name": "checkData",
          "type": "bytes"
        }
      ],
      "name": "checkUpkeep",
      "outputs": [
        {
          "internalType": "bool",
          "name": "upkeepNeeded",
          "type": "bool"
        },
        {
          "internalType": "bytes",
          "name": "performData",
          "type": "bytes"
        }
      ],
      "stateMutability": "view",
      "type": "function"
    },
    {
      "inputs": [
        {
          "internalType": "address",
          "name": "token",
          "type": "address"
        },
        {
          "internalType": "uint256",
          "name": "amount",
          "type": "uint256"
        }
      ],
      "name": "emergencyWithdraw",
      "outputs": [],
      "stateMutability": "nonpayable",
      "type": "function"
    },
    {
      "inputs": [
        {
          "internalType": "address",
          "name": "",
          "type": "address"
        }
      ],
      "name": "encryptedEthBalances",
      "outputs": [
        {
          "internalType": "euint128",
          "name": "",
          "type": "bytes32"
        }
      ],
      "stateMutability": "view",
      "type": "function"
    },
    {
      "inputs": [
        {
          "internalType": "uint256",
          "name": "",
          "type": "uint256"
        }
      ],
      "name": "ethWithdrawalRequests",
      "outputs": [
        {
          "internalType": "uint256",
          "name": "requestId",
          "type": "uint256"
        },
        {
          "internalType": "address",
          "name": "user",
          "type": "address"
        },
        {
          "internalType": "uint256",
          "name": "timestamp",
          "type": "uint256"
        },
        {
          "internalType": "bool",
          "name": "processed",
          "type": "bool"
        }
      ],
      "stateMutability": "view",
      "type": "function"
    },
    {
      "inputs": [],
      "name": "fundPool",
      "outputs": [
        {
          "internalType": "contract IFundPool",
          "name": "",
          "type": "address"
        }
      ],
      "stateMutability": "view",
      "type": "function"
    },
    {
      "inputs": [
        {
          "internalType": "uint256",
          "name": "batchId",
          "type": "uint256"
        }
      ],
      "name": "getBatchResult",
      "outputs": [
        {
          "components": [
            {
              "internalType": "uint256",
              "name": "batchId",
              "type": "uint256"
            },
            {
              "internalType": "uint256",
              "name": "totalAmountIn",
              "type": "uint256"
            },
            {
              "internalType": "uint256",
              "name": "totalAmountOut",
              "type": "uint256"
            },
            {
              "internalType": "uint256",
              "name": "priceAtExecution",
              "type": "uint256"
            },
            {
              "internalType": "uint256",
              "name": "participantCount",
              "type": "uint256"
            },
            {
              "internalType": "uint256",
              "name": "executedAt",
              "type": "uint256"
            },
            {
              "internalType": "bool",
              "name": "success",
              "type": "bool"
            }
          ],
          "internalType": "struct BatchProcessor.BatchResult",
          "name": "result",
          "type": "tuple"
        }
      ],
      "stateMutability": "view",
      "type": "function"
    },
    {
      "inputs": [
        {
          "internalType": "address",
          "name": "user",
          "type": "address"
        }
      ],
      "name": "getUserScaledBalance",
      "outputs": [
        {
          "internalType": "euint128",
          "name": "",
          "type": "bytes32"
        }
      ],
      "stateMutability": "view",
      "type": "function"
    },
    {
      "inputs": [
        {
          "internalType": "address",
          "name": "user",
          "type": "address"
        }
      ],
      "name": "getUserWithdrawalStatus",
      "outputs": [
        {
          "internalType": "bool",
          "name": "usdcWithdrawing",
          "type": "bool"
        },
        {
          "internalType": "bool",
          "name": "ethWithdrawing",
          "type": "bool"
        },
        {
          "internalType": "uint256",
          "name": "usdcRequestId",
          "type": "uint256"
        },
        {
          "internalType": "uint256",
          "name": "ethRequestId",
          "type": "uint256"
        }
      ],
      "stateMutability": "view",
      "type": "function"
    },
    {
      "inputs": [],
      "name": "initiateUsdcWithdrawal",
      "outputs": [],
      "stateMutability": "nonpayable",
      "type": "function"
    },
    {
      "inputs": [],
      "name": "intentCollector",
      "outputs": [
        {
          "internalType": "contract IntentCollector",
          "name": "",
          "type": "address"
        }
      ],
      "stateMutability": "view",
      "type": "function"
    },
    {
      "inputs": [
        {
          "internalType": "address",
          "name": "",
          "type": "address"
        }
      ],
      "name": "isWithdrawing",
      "outputs": [
        {
          "internalType": "bool",
          "name": "",
          "type": "bool"
        }
      ],
      "stateMutability": "view",
      "type": "function"
    },
    {
      "inputs": [],
      "name": "lastProcessedBatch",
      "outputs": [
        {
          "internalType": "uint256",
          "name": "",
          "type": "uint256"
        }
      ],
      "stateMutability": "view",
      "type": "function"
    },
    {
      "inputs": [
        {
          "internalType": "uint256",
          "name": "batchId",
          "type": "uint256"
        }
      ],
      "name": "manualTriggerBatch",
      "outputs": [],
      "stateMutability": "nonpayable",
      "type": "function"
    },
    {
      "inputs": [
        {
          "internalType": "uint256",
          "name": "requestId",
          "type": "uint256"
        },
        {
          "internalType": "uint64",
          "name": "decryptedAmount",
          "type": "uint64"
        },
        {
          "internalType": "bytes[]",
          "name": "signatures",
          "type": "bytes[]"
        }
      ],
      "name": "onBatchDecrypted",
      "outputs": [],
      "stateMutability": "nonpayable",
      "type": "function"
    },
    {
      "inputs": [
        {
          "internalType": "uint256",
          "name": "requestId",
          "type": "uint256"
        },
        {
          "internalType": "uint128",
          "name": "scaledEthAmount",
          "type": "uint128"
        },
        {
          "internalType": "bytes[]",
          "name": "signatures",
          "type": "bytes[]"
        }
      ],
      "name": "onEthDecrypted",
      "outputs": [],
      "stateMutability": "nonpayable",
      "type": "function"
    },
    {
      "inputs": [
        {
          "internalType": "uint256",
          "name": "requestId",
          "type": "uint256"
        },
        {
          "internalType": "uint64",
          "name": "decryptedBalance",
          "type": "uint64"
        },
        {
          "internalType": "bytes[]",
          "name": "signatures",
          "type": "bytes[]"
        }
      ],
      "name": "onUsdcDecrypted",
      "outputs": [],
      "stateMutability": "nonpayable",
      "type": "function"
    },
    {
      "inputs": [],
      "name": "owner",
      "outputs": [
        {
          "internalType": "address",
          "name": "",
          "type": "address"
        }
      ],
      "stateMutability": "view",
      "type": "function"
    },
    {
      "inputs": [
        {
          "internalType": "uint256",
          "name": "",
          "type": "uint256"
        }
      ],
      "name": "pendingDecryptions",
      "outputs": [
        {
          "internalType": "uint256",
          "name": "batchId",
          "type": "uint256"
        },
        {
          "internalType": "uint256",
          "name": "currentPrice",
          "type": "uint256"
        },
        {
          "internalType": "uint256",
          "name": "timestamp",
          "type": "uint256"
        },
        {
          "internalType": "bool",
          "name": "processed",
          "type": "bool"
        }
      ],
      "stateMutability": "view",
      "type": "function"
    },
    {
      "inputs": [
        {
          "internalType": "bytes",
          "name": "performData",
          "type": "bytes"
        }
      ],
      "name": "performUpkeep",
      "outputs": [],
      "stateMutability": "nonpayable",
      "type": "function"
    },
    {
      "inputs": [],
      "name": "priceFeed",
      "outputs": [
        {
          "internalType": "contract IChainlinkAggregator",
          "name": "",
          "type": "address"
        }
      ],
      "stateMutability": "view",
      "type": "function"
    },
    {
      "inputs": [
        {
          "internalType": "uint256",
          "name": "",
          "type": "uint256"
        }
      ],
      "name": "priceHistory",
      "outputs": [
        {
          "internalType": "uint256",
          "name": "price",
          "type": "uint256"
        },
        {
          "internalType": "uint256",
          "name": "updatedAt",
          "type": "uint256"
        },
        {
          "internalType": "uint80",
          "name": "roundId",
          "type": "uint80"
        },
        {
          "internalType": "bool",
          "name": "isValid",
          "type": "bool"
        }
      ],
      "stateMutability": "view",
      "type": "function"
    },
    {
      "inputs": [],
      "name": "priceUpdateCounter",
      "outputs": [
        {
          "internalType": "uint256",
          "name": "",
          "type": "uint256"
        }
      ],
      "stateMutability": "view",
      "type": "function"
    },
    {
      "inputs": [
        {
          "internalType": "address",
          "name": "token",
          "type": "address"
        },
        {
          "internalType": "uint256",
          "name": "amount",
          "type": "uint256"
        }
      ],
      "name": "recoverToken",
      "outputs": [],
      "stateMutability": "nonpayable",
      "type": "function"
    },
    {
      "inputs": [],
      "name": "renounceOwnership",
      "outputs": [],
      "stateMutability": "nonpayable",
      "type": "function"
    },
    {
      "inputs": [
        {
          "internalType": "bool",
          "name": "enabled",
          "type": "bool"
        }
      ],
      "name": "setAutomationEnabled",
      "outputs": [],
      "stateMutability": "nonpayable",
      "type": "function"
    },
    {
      "inputs": [
        {
          "internalType": "address",
          "name": "_fundPool",
          "type": "address"
        }
      ],
      "name": "setFundPool",
      "outputs": [],
      "stateMutability": "nonpayable",
      "type": "function"
    },
    {
      "inputs": [
        {
          "internalType": "address",
          "name": "newOwner",
          "type": "address"
        }
      ],
      "name": "transferOwnership",
      "outputs": [],
      "stateMutability": "nonpayable",
      "type": "function"
    },
    {
      "inputs": [],
      "name": "uniswapRouter",
      "outputs": [
        {
          "internalType": "contract IUniswapV3Router",
          "name": "",
          "type": "address"
        }
      ],
      "stateMutability": "view",
      "type": "function"
    },
    {
      "inputs": [],
      "name": "usdcToken",
      "outputs": [
        {
          "internalType": "contract IERC20",
          "name": "",
          "type": "address"
        }
      ],
      "stateMutability": "view",
      "type": "function"
    },
    {
      "inputs": [
        {
          "internalType": "uint256",
          "name": "",
          "type": "uint256"
        }
      ],
      "name": "usdcWithdrawalRequests",
      "outputs": [
        {
          "internalType": "uint256",
          "name": "requestId",
          "type": "uint256"
        },
        {
          "internalType": "address",
          "name": "user",
          "type": "address"
        },
        {
          "internalType": "uint256",
          "name": "timestamp",
          "type": "uint256"
        },
        {
          "internalType": "bool",
          "name": "processed",
          "type": "bool"
        }
      ],
      "stateMutability": "view",
      "type": "function"
    },
    {
      "inputs": [],
      "name": "wethAddress",
      "outputs": [
        {
          "internalType": "address",
          "name": "",
          "type": "address"
        }
      ],
      "stateMutability": "view",
      "type": "function"
    },
    {
      "inputs": [],
      "name": "withdrawEth",
      "outputs": [],
      "stateMutability": "nonpayable",
      "type": "function"
    },
    {
      "stateMutability": "payable",
      "type": "receive"
    }
  ],
  "transactionHash": "0x037d4278f47201c0c965102bdf8040f8283d39db9860cfba5196844d2f23a607",
  "args": [
    "0x768Dd3993b5Ce23B64De65Db678f843564cbeCd5",
    "0x694AA1769357215DE4FAC081bf1f309aDC325306",
    "0x3bFA4769FB09eefC5a80d6E87c3B9C650f7Ae48E",
    "0x1c7D4B196Cb0C7B01d743Fbc6116a902379C7238",
    "0xfFf9976782d46CC05630D1f6eBAb18b2324d6B14",
    "0xf8185A9E8DCABE43dcA52f2f649F51BE1E2E972a"
  ],
  "numDeployments": 1,
  "solcInputHash": "ce7e5f58ec57a8da84316662f2242f7e",
  "bytecode": "0x610120346200035057601f62004a6138819003918201601f1916830191906001600160401b0383118484101762000354578160c092859260409586528339810103126200035057620000518262000388565b6200005f6020840162000388565b6200006c83850162000388565b6200007a6060860162000388565b916200009760a06200008f6080890162000388565b970162000388565b935f6060620000a562000368565b82815282602082015282898201520152620000bf62000368565b73687820221192c5b662b25367f70076a37bc79b6c80825273848b0066793bcc60346da1f49049357399b8d59560208301819052731364cbbf2cdf5032c47d8226a6f6fbd2afcdacac89840181905273bc91f3dad1a5f19f8390c400196e58073b6a0bc460609094018490527fed8d60e34876f751cc8b014c560745351147d9de11b9347c854e881b128ea60080546001600160a01b031990811690941790557fed8d60e34876f751cc8b014c560745351147d9de11b9347c854e881b128ea601805484169092179091557fed8d60e34876f751cc8b014c560745351147d9de11b9347c854e881b128ea6028054831690911790557fed8d60e34876f751cc8b014c560745351147d9de11b9347c854e881b128ea603805482169092179091557f5ea69329017273582817d320489fbd94f775580e90c092699ca6f3d12fdf7d008054821673a02cda4ca3a71d7c46997716f4283aa851c28812179055956001600160a01b039586169081156200033a578694939192838680959381945f549c8d16175f55519a167f8be0079c531659141344cd1fd0a4f28419497f9722a3daafe3b4186f6b6457e05f80a360018055166080521660a0521660c0521660e052610100918252600160ff1960055416176005556146c391826200039e83396080518281816105e20152818161097e0152818161181d015281816121f00152818161254001528181612d8b01528181612ea301528181612fbb015281816130d101528181613698015261392a015260a05182818161111f0152818161224d01526125f2015260c0518281816110dc01526132cd015260e05182818161059f01528181610d770152613262015251818181610b3801526133670152f35b51631e4fbdf760e01b81525f6004820152602490fd5b5f80fd5b634e487b7160e01b5f52604160045260245ffd5b60405190608082016001600160401b038111838210176200035457604052565b51906001600160a01b0382168203620003505756fe6080604052600436101561001a575b3615610018575f80fd5b005b5f3560e01c8063029c470e146102e457806307826d51146102df5780630eb8baa1146102da57806311eac855146102d5578063198ab791146102d05780631ab2b5d8146102355780632b3ba681146102cb5780632c8022e1146102c65780632ccf360d146102c15780634585e33b146102bc5780634c203786146102b75780634c98c150146102b25780634f0e0ef3146102ad57806355002b75146102a8578063553c1a76146102a357806356b29ea21461029e5780635f48a6631461029957806367f63bae146102945780636e04ff0d1461028f5780636ebdff2c1461028a57806370f37d2714610285578063715018a614610280578063735de9f71461027b578063741bef1a1461027657806379e6662214610271578063842140171461026c57806388da2b2d146102675780638da5cb5b146102625780638eb4791a1461025d578063905eb22e1461025857806395ccea67146102535780639f589c471461024e578063a0ef91df14610249578063a3a06e1414610244578063b27a04841461023f578063b29a81401461023a578063cb72f91214610235578063cc7bc5d914610230578063d966a5941461022b578063dd1b9c4a14610226578063ed095b8414610221578063ef4cadc51461021c578063f25b9caa14610217578063f2fde38b146102125763f7c8eac70361000e57611c01565b611b7a565b611b5e565b611b3c565b611afb565b611adf565b611abd565b611a63565b61062e565b611933565b6118d8565b6117ed565b6116b7565b6113cb565b61128f565b611253565b611236565b611211565b6111a1565b611186565b61114d565b611100565b6110bd565b611066565b611040565b610fb2565b610f7b565b610eec565b610eb0565b610bd4565b610bb7565b610b5c565b610b19565b610aa8565b610a8d565b610938565b6107f8565b610690565b61066a565b6105c3565b610580565b61050b565b610314565b6102f7565b5f9103126102f357565b5f80fd5b346102f3575f3660031901126102f3576020604051620186a08152f35b346102f3575f3660031901126102f35761032c6123f2565b61035161034a336001600160a01b03165f52600b60205260405f2090565b5460ff1690565b6104ea57335f908152600d60205260409020546104ea5761039c6001600160a01b036103946103886002546001600160a01b031690565b6001600160a01b031690565b161515611c1e565b6103c76103ba336001600160a01b03165f52600b60205260405f2090565b805460ff19166001179055565b6103dc6103886002546001600160a01b031690565b60405163100b713960e21b815233600482015290602090829060249082905afa80156104e557610426915f916104b6575b50610416611dc1565b9061042082611ddb565b52612896565b61045d610431611d0b565b8281523360208201524260408201525f6060820152610458835f52600c60205260405f2090565b611e01565b80610479336001600160a01b03165f52600d60205260405f2090565b5560405142815233907f602e7b2cc16a811b76692f5afa8c9d846224112b1ef13e72f7e98499ec49deb49080602081015b0390a361001860018055565b6104d8915060203d6020116104de575b6104d08183611ccf565b810190611cf1565b5f61040d565b503d6104c6565b611d00565b604051632a290aa960e01b8152600490fd5b908160209103126102f3573590565b346102f35760203660031901126102f3576004355f52600c60205260405f20805461057c6001600160a01b036001840154169260ff60036002830154920154169060405194859485926001600160a01b03606093969592966080860197865216602085015260408401521515910152565b0390f35b346102f3575f3660031901126102f35760206040516001600160a01b037f0000000000000000000000000000000000000000000000000000000000000000168152f35b346102f3575f3660031901126102f35760206040516001600160a01b037f0000000000000000000000000000000000000000000000000000000000000000168152f35b6001600160a01b038116036102f357565b6001600160a01b03165f52600b60205260405f2090565b346102f35760203660031901126102f3576001600160a01b0360043561065381610606565b165f526009602052602060405f2054604051908152f35b346102f3575f3660031901126102f35760206040516b033b2e3c9fd0803ce80000008152f35b346102f35760203660031901126102f35761057c60405f60c082516106b481611c7e565b82815282602082015282848201528260608201528260808201528260a082015201526004355f526003602052805f209061073860ff60068351946106f786611c7e565b80548652600181015460208701526002810154858701526003810154606087015260048101546080870152600581015460a0870152015416151560c0840152565b519182918291909160c08060e0830194805184526020810151602085015260408101516040850152606081015160608501526080810151608085015260a081015160a085015201511515910152565b9181601f840112156102f35782359167ffffffffffffffff83116102f3576020808501948460051b0101116102f357565b60606003198201126102f3576004359167ffffffffffffffff60243581811681036102f357926044359182116102f3576107f491600401610787565b9091565b346102f35761081f61081961080c366107b8565b9492949391933691611e7a565b83612415565b815f52600860205260405f2090600582019260ff8454166108a95761084d610018946103ba85541515611f23565b60405167ffffffffffffffff831681527ffd31de4bda66b2edfcb212e63d9fe0e36c91ade9a760dd29d2afbafb1b8795b290602090a281546003830154926108a3600261089c60018401611f6f565b9201611f6f565b916124f7565b60405162461bcd60e51b815260206004820152601c60248201527f44656372797074696f6e20616c72656164792070726f636573736564000000006044820152606490fd5b9060206003198301126102f35760043567ffffffffffffffff928382116102f357806023830112156102f35781600401359384116102f357602484830101116102f3576024019190565b346102f357610946366108ee565b9061095a61095660055460ff1690565b1590565b610a7b5761096a918101906104fc565b6040516307757e2160e41b81525f816004817f00000000000000000000000000000000000000000000000000000000000000006001600160a01b03165afa9081156104e55782905f905f93610a54575b5014801590610a48575b610a365781610018927f56ac93fd47f15da210aa3b94cd30ab893c2ff7b69d5bf1ef2325fcb4d9bca73f60405180610a2e8160609060208152601460208201527f436861696e6c696e6b204175746f6d6174696f6e00000000000000000000000060408201520190565b0390a26125b4565b604051634e10775b60e01b8152600490fd5b506004548211156109c4565b9050610a739192503d805f833e610a6b8183611ccf565b81019061201e565b91905f6109ba565b604051634c9136e360e01b8152600490fd5b346102f3575f3660031901126102f357602060405160c88152f35b346102f35760203660031901126102f3576004355f52600e60205260405f20805461057c6001600160a01b036001840154169260ff60036002830154920154169060405194859485926001600160a01b03606093969592966080860197865216602085015260408401521515910152565b346102f3575f3660031901126102f35760206040516001600160a01b037f0000000000000000000000000000000000000000000000000000000000000000168152f35b346102f35760203660031901126102f3576001600160a01b03600435610b8181610606565b165f52600d602052608060405f2054600f60205260405f2054604051918015158352811515602084015260408301526060820152f35b346102f3575f3660031901126102f35760206040516207a1208152f35b346102f357610bfd610c0b610bf7610beb366107b8565b95929391953691611e7a565b82612415565b5f52600c60205260405f2090565b90610c6267ffffffffffffffff610c5260016003860195610c38610c33610956895460ff1690565b61204f565b610c4481541515611f23565b01546001600160a01b031690565b921692600160ff19825416179055565b5f610c7e826001600160a01b03165f52600d60205260405f2090565b5581610cf2575b6001600160a01b0381610cd7610ccd7f2995e351759a5cf0f8e558d435876f3e80f61d1ad1a0d32320654739cc708335946001600160a01b03165f52600b60205260405f2090565b805460ff19169055565b6040805194855242602086015291169290819081015b0390a2005b610d076103886002546001600160a01b031690565b803b156102f3576040516311ffc57760e11b815260048101849052905f908290602490829084905af180156104e557610e97575b5060405163a9059cbb60e01b81526001600160a01b038216600482015260248101839052906020908183806044810103815f6001600160a01b037f0000000000000000000000000000000000000000000000000000000000000000165af19283156104e5575f93610db3918591610e7a575b506120bb565b81610e07610dcc6103886002546001600160a01b031690565b610dd587613f61565b6040516279bb4560e11b81526001600160a01b0386166004820152602481019190915295869283919082906044820190565b03925af19182156104e5577f2995e351759a5cf0f8e558d435876f3e80f61d1ad1a0d32320654739cc708335936001600160a01b0393610e4c575b5050915050610c85565b81610e6b92903d10610e73575b610e638183611ccf565b8101906120a6565b505f80610e42565b503d610e59565b610e919150843d8611610e7357610e638183611ccf565b5f610dad565b80610ea4610eaa92611c9f565b806102e9565b5f610d3b565b346102f35760203660031901126102f3576001600160a01b03600435610ed581610606565b165f52600d602052602060405f2054604051908152f35b346102f35760203660031901126102f3576004355f526008602052608060405f2080549060038101549060ff6005600483015492015416916040519384526020840152604083015215156060820152f35b91908251928382525f5b848110610f67575050825f602080949584010152601f8019910116010190565b602081830181015184830182015201610f47565b346102f357610f89366108ee565b5050610f936121bb565b9061057c60405192839215158352604060208401526040830190610f3d565b346102f35760203660031901126102f3576001600160a01b03600435610fd781610606565b610fdf612718565b168015610ffb576001600160a01b031960025416176002555f80f35b60405162461bcd60e51b815260206004820152601160248201527f496e76616c69642066756e6420706f6f6c0000000000000000000000000000006044820152606490fd5b346102f3575f3660031901126102f35760206001600160a01b0360025416604051908152f35b346102f3575f3660031901126102f35761107e612718565b5f6001600160a01b0381546001600160a01b031981168355167f8be0079c531659141344cd1fd0a4f28419497f9722a3daafe3b4186f6b6457e08280a3005b346102f3575f3660031901126102f35760206040516001600160a01b037f0000000000000000000000000000000000000000000000000000000000000000168152f35b346102f3575f3660031901126102f35760206040516001600160a01b037f0000000000000000000000000000000000000000000000000000000000000000168152f35b801515036102f357565b346102f35760203660031901126102f35760043561116a81611143565b611172612718565b60ff80196005541691151516176005555f80f35b346102f3575f3660031901126102f357602060405160328152f35b346102f35760203660031901126102f3576004355f52600360205260e060405f208054906001810154906002810154600382015460048301549160ff600660058601549501541694604051968752602087015260408601526060850152608084015260a0830152151560c0820152f35b346102f3575f3660031901126102f35760206001600160a01b035f5416604051908152f35b346102f3575f3660031901126102f3576020600454604051908152f35b346102f35760203660031901126102f3576001600160a01b0360043561127881610606565b165f52600f602052602060405f2054604051908152f35b346102f35760403660031901126102f3576004356112ac81610606565b6001600160a01b03602435916112c0612718565b16908161132557610ced816113155f8080807f5fafa99d0643513820be26656b45130b01e1c03062e1266bf36f88cbd3bd96959761130582546001600160a01b031690565b5af161130f612352565b50612381565b6040519081529081906020820190565b80602061136e9261133d5f546001600160a01b031690565b60405163a9059cbb60e01b81526001600160a01b039091166004820152602481019190915292839081906044820190565b03815f875af19081156104e5577f5fafa99d0643513820be26656b45130b01e1c03062e1266bf36f88cbd3bd969592610ced926113ac575b50611315565b6113c49060203d602011610e7357610e638183611ccf565b505f6113a6565b346102f35760603660031901126102f357600435602435906fffffffffffffffffffffffffffffffff82168092036102f3576044359067ffffffffffffffff82116102f35761142e610bf761142761143c943690600401610787565b3691611e7a565b5f52600e60205260405f2090565b9061146961145b60016003850194610c38610c33610956885460ff1690565b835460ff1916600117909355565b5f611485836001600160a01b03165f52600f60205260405f2090565b55801561166a576b033b2e3c9fd0803ce800000081049081471061163a576114ab613fca565b6114c6846001600160a01b03165f52600960205260405f2090565b556114eb6114e5846001600160a01b03165f52600960205260405f2090565b54612743565b506115118361150b816001600160a01b03165f52600960205260405f2090565b54614152565b5f80808085875af1611521612352565b501561158b57506040805191825242602083015261001892610ccd9290916001600160a01b038316917fd81ee00430fb7a9bd4c72dd614a449dc0f51f5f28b9996167fd583fcc3a98b3191819081015b0390a26001600160a01b03165f52600b60205260405f2090565b610ccd8361159b6115f593614018565b6115b6826001600160a01b03165f52600960205260405f2090565b556115d56114e5826001600160a01b03165f52600960205260405f2090565b506106178161150b816001600160a01b03165f52600960205260405f2090565b60405162461bcd60e51b815260206004820152601360248201527f455448207472616e73666572206661696c6564000000000000000000000000006044820152606490fd5b611658610ccd846001600160a01b03165f52600b60205260405f2090565b604051631e9acf1760e31b8152600490fd5b50610ccd610018916040517fd81ee00430fb7a9bd4c72dd614a449dc0f51f5f28b9996167fd583fcc3a98b316001600160a01b038316918061157142829190602060408401935f81520152565b346102f3575f3660031901126102f3576116cf6123f2565b6116ed61034a336001600160a01b03165f52600b60205260405f2090565b6104ea57335f908152600f60205260409020546104ea5761176a611722336001600160a01b03165f52600960205260405f2090565b5461173461172f8261274d565b6123a6565b6117526103ba336001600160a01b03165f52600b60205260405f2090565b61175a611dc1565b9061176482611ddb565b526129fc565b61179c611775611d0b565b8281523360208201524260408201525f6060820152610458835f52600e60205260405f2090565b806117b8336001600160a01b03165f52600f60205260405f2090565b5560405142815233907f37323593a592af5e26a9898110fda42c2ff4d8e3ebc45e0e2f1b569d36e640599080602081016104aa565b346102f35760203660031901126102f3576004356040516307757e2160e41b81525f816004816001600160a01b037f0000000000000000000000000000000000000000000000000000000000000000165afa9081156104e55782905f905f936118b9575b5003610a365781610018927f56ac93fd47f15da210aa3b94cd30ab893c2ff7b69d5bf1ef2325fcb4d9bca73f606060405160208152600e60208201527f4d616e75616c20547269676765720000000000000000000000000000000000006040820152a26125b4565b90506118d09192503d805f833e610a6b8183611ccf565b91905f611851565b346102f35760203660031901126102f3576004355f526006602052608060405f2060ff8154916002600182015491015490604051938452602084015269ffffffffffffffffffff8116604084015260501c1615156060820152f35b346102f35760403660031901126102f35760043561195081610606565b6001600160a01b0360243591611964612718565b169081156119ec578060206119849261133d5f546001600160a01b031690565b03815f875af19081156104e5577f5fafa99d0643513820be26656b45130b01e1c03062e1266bf36f88cbd3bd969592610ced926119cd575b506040519081529081906020820190565b6119e59060203d602011610e7357610e638183611ccf565b505f6119bc565b60405162461bcd60e51b815260206004820152601560248201527f496e76616c696420746f6b656e206164647265737300000000000000000000006044820152606490fd5b634e487b7160e01b5f52603260045260245ffd5b8054821015611a5e575f5260205f209060011b01905f90565b611a31565b346102f35760403660031901126102f3576024356004355f52600a60205260405f209081548110156102f357611a9891611a45565b508054600190910154604080516001600160a01b039093168352602083019190915290f35b346102f3575f3660031901126102f357602060ff600554166040519015158152f35b346102f3575f3660031901126102f3576020604051610bb88152f35b346102f35760203660031901126102f3576001600160a01b03600435611b2081610606565b165f52600b602052602060ff60405f2054166040519015158152f35b346102f3575f3660031901126102f3576020604051670de0b6b3a76400008152f35b346102f3575f3660031901126102f3576020604051610e108152f35b346102f35760203660031901126102f357600435611b9781610606565b611b9f612718565b6001600160a01b03809116908115611be9575f54826001600160a01b03198216175f55167f8be0079c531659141344cd1fd0a4f28419497f9722a3daafe3b4186f6b6457e05f80a3005b604051631e4fbdf760e01b81525f6004820152602490fd5b346102f3575f3660031901126102f3576020600754604051908152f35b15611c2557565b60405162461bcd60e51b815260206004820152601760248201527f46756e64506f6f6c206e6f7420636f6e666967757265640000000000000000006044820152606490fd5b634e487b7160e01b5f52604160045260245ffd5b60e0810190811067ffffffffffffffff821117611c9a57604052565b611c6a565b67ffffffffffffffff8111611c9a57604052565b6040810190811067ffffffffffffffff821117611c9a57604052565b90601f8019910116810190811067ffffffffffffffff821117611c9a57604052565b908160209103126102f3575190565b6040513d5f823e3d90fd5b604051906080820182811067ffffffffffffffff821117611c9a57604052565b60405190611d3882611c7e565b565b60405190610100820182811067ffffffffffffffff821117611c9a57604052565b60405190610160820182811067ffffffffffffffff821117611c9a57604052565b60405190611d3882611cb3565b6040519060c0820182811067ffffffffffffffff821117611c9a57604052565b67ffffffffffffffff8111611c9a5760051b60200190565b60405190611dce82611cb3565b6001825260203681840137565b805115611a5e5760200190565b8051821015611a5e5760209160051b010190565b600455565b60036060611d389380518455611e3d6001600160a01b0360208301511660018601906001600160a01b03166001600160a01b0319825416179055565b604081015160028501550151151591019060ff801983541691151516179055565b67ffffffffffffffff8111611c9a57601f01601f191660200190565b92919092611e8784611da9565b91604094611e986040519485611ccf565b839581855260208095019160051b8401938385116102f35780925b858410611ec35750505050505050565b833567ffffffffffffffff81116102f357820185601f820112156102f357803591611eed83611e5e565b611ef986519182611ccf565b838152878a85850101116102f3575f8a858196828097018386013783010152815201930192611eb3565b15611f2a57565b60405162461bcd60e51b815260206004820152601260248201527f496e76616c6964207265717565737420494400000000000000000000000000006044820152606490fd5b90604051918281549182825260209260208301915f5260205f20935f905b828210611fa357505050611d3892500383611ccf565b855484526001958601958895509381019390910190611f8d565b9080601f830112156102f357815190602091611fd881611da9565b93611fe66040519586611ccf565b81855260208086019260051b8201019283116102f357602001905b82821061200f575050505090565b81518152908301908301612001565b9190916040818403126102f357805192602082015167ffffffffffffffff81116102f35761204c9201611fbd565b90565b1561205657565b60405162461bcd60e51b815260206004820152601c60248201527f5769746864726177616c20616c72656164792070726f636573736564000000006044820152606490fd5b5190611d3882611143565b908160209103126102f3575161204c81611143565b156120c257565b60405162461bcd60e51b815260206004820152601460248201527f55534443207472616e73666572206661696c65640000000000000000000000006044820152606490fd5b604051906020820182811067ffffffffffffffff821117611c9a576040525f8252565b91908260409103126102f3576020825161214381611143565b92015190565b519069ffffffffffffffffffff821682036102f357565b908160a09103126102f35761217481612149565b9160208201519160408101519161204c608060608401519301612149565b634e487b7160e01b5f52601160045260245ffd5b610e0f198101919082116121b657565b612192565b5f906060906121cf61095660055460ff1690565b6123455760408051633985618160e01b81526001600160a01b0382826004817f000000000000000000000000000000000000000000000000000000000000000085165afa9182156104e5575f905f93612313575b5080612308575b61223357505050565b60a0600491849795975192838092633fabe5a360e21b82527f0000000000000000000000000000000000000000000000000000000000000000165afa90815f915f936122d0575b506122885750505050505f91565b5f909694961390816122be575b5061229e575050565b90516020808201929092529081526001935090915061204c604082611ccf565b90506122c9426121a6565b105f612295565b9092506122f5915060a03d60a011612301575b6122ed8183611ccf565b810190612160565b5092505090915f61227a565b503d6122e3565b50600454821161222a565b9050612336919250833d851161233e575b61232e8183611ccf565b81019061212a565b91905f612223565b503d612324565b9150505f9061204c612107565b3d1561237c573d9061236382611e5e565b916123716040519384611ccf565b82523d5f602084013e565b606090565b156115f557565b8115612392570490565b634e487b7160e01b5f52601260045260245ffd5b156123ad57565b60405162461bcd60e51b815260206004820152601c60248201527f496e73756666696369656e7420464845207065726d697373696f6e73000000006044820152606490fd5b600260015414612403576002600155565b604051633ee5aeb560e01b8152600490fd5b90815f527f5ea69329017273582817d320489fbd94f775580e90c092699ca6f3d12fdf7d026020908060205260405f2054156124e557835f5260205260405f206040519182602083549182815201925f5260205f20915f905b8282106124ce5750505050918161248d61095693612492950382611ccf565b612bbb565b6124bc577f1af0453083661051f6e56e5c070792320652e612154bf9af8637bb1e7655b99d5f80a2565b60405163cf6c44e960e01b8152600490fd5b83548552938401936001938401939091019061246e565b60405163d66ca67560e01b8152600490fd5b9267ffffffffffffffff169384156125a757846125178261253697613213565b908115612599578461252e878484611dfc99613668565b519386612f62565b6001600160a01b037f000000000000000000000000000000000000000000000000000000000000000016803b156102f3575f8091600460405180948193631ef76deb60e01b83525af180156104e55761258c5750565b80610ea4611d3892611c9f565b9050611dfc93519285612e50565b91611d3894505192612d2e565b906125c6916125c16123f2565b6125cc565b60018055565b6125d4613896565b91604051633fabe5a360e21b815260a0816004816001600160a01b037f0000000000000000000000000000000000000000000000000000000000000000165afa5f90805f935f926126f0575b50612681575050505f60608401525b61263f6109566060850151151590565b61266f5761264e835182613919565b9181511561266157611d38945193613d83565b915050611d3892519161307b565b60405163f45e167b60e01b8152600490fd5b909192945f8413806126df575b156126ce5750906126c191620f42406126a5611d0b565b94048452602084015269ffffffffffffffffffff166040830152565b600160608201529161262f565b5f606082015294925061262f915050565b506126e9426121a6565b821161268e565b9150925061270d915060a03d60a011612301576122ed8183611ccf565b50919390505f612620565b6001600160a01b035f5416330361272b57565b60405163118cdaa760e01b8152336004820152602490fd5b61204c3082614152565b7fed8d60e34876f751cc8b014c560745351147d9de11b9347c854e881b128ea600546040516382027b6d60e01b81526004810192909252336024830152602090829060449082906001600160a01b03165afa9081156104e5575f916127b0575090565b61204c915060203d602011610e7357610e638183611ccf565b9081518082526020808093019301915f5b8281106127e8575050505090565b8351855293810193928101926001016127da565b90602061204c9281815201906127c9565b92916128269184526060602085015260608401906127c9565b916040632b594f5160e11b910152565b929161284f9184526060602085015260608401906127c9565b916040639f589c4760e01b910152565b92916128789184526060602085015260608401906127c9565b916040632ccf360d60e01b910152565b5f1981146121b65760010190565b907f5ea69329017273582817d320489fbd94f775580e90c092699ca6f3d12fdf7d01918254926128f36103886103887fed8d60e34876f751cc8b014c560745351147d9de11b9347c854e881b128ea600546001600160a01b031690565b803b156102f3575f6040518092637d6e912360e11b825281838161291a89600483016127fc565b03925af180156104e5576129e9575b506129616103886103887f5ea69329017273582817d320489fbd94f775580e90c092699ca6f3d12fdf7d00546001600160a01b031690565b90813b156102f3575f6040518093633263b83b60e01b825281838161298a898c6004840161280d565b03925af180156104e557611d38936129b2936129ac926129d6575b50866141cc565b54612888565b7f5ea69329017273582817d320489fbd94f775580e90c092699ca6f3d12fdf7d0155565b80610ea46129e392611c9f565b5f6129a5565b80610ea46129f692611c9f565b5f612929565b907f5ea69329017273582817d320489fbd94f775580e90c092699ca6f3d12fdf7d0191825492612a596103886103887fed8d60e34876f751cc8b014c560745351147d9de11b9347c854e881b128ea600546001600160a01b031690565b803b156102f3575f6040518092637d6e912360e11b8252818381612a8089600483016127fc565b03925af180156104e557612af0575b50612ac76103886103887f5ea69329017273582817d320489fbd94f775580e90c092699ca6f3d12fdf7d00546001600160a01b031690565b90813b156102f3575f6040518093633263b83b60e01b825281838161298a898c60048401612836565b80610ea4612afd92611c9f565b5f612a8f565b90612b0d82611e5e565b612b1a6040519182611ccf565b8281528092612b2b601f1991611e5e565b0190602036910137565b9190612b4c612b5b916060855260608501906127c9565b60209284820384860152610f3d565b9160408184039101528251908183528083019281808460051b8301019501935f915b848310612b8d5750505050505090565b9091929394958480612bab600193601f198682030187528a51610f3d565b9801930193019194939290612b7d565b80515f905f905b808210612c5657505091602091612bdb612c41946131e8565b612be481612b03565b906024858301375f612c236103886103887fed8d60e34876f751cc8b014c560745351147d9de11b9347c854e881b128ea602546001600160a01b031690565b9260405196879586948593632c027b1360e21b855260048501612b35565b03925af19081156104e5575f916127b0575090565b90916009612c648486611de8565b51601e1a612c7181613f43565b612c7a81613f43565b1015612c9357612c8b6001916131e8565b920190612bc2565b60405163ce54a8d160e01b8152600490fd5b600660c0611d3893805184556020810151600185015560408101516002850155606081015160038501556080810151600485015560a081015160058501550151151591019060ff801983541691151516179055565b91906020612d126001926040865260408601906127c9565b930152565b91906020612d125f926040865260408601906127c9565b929091612d81612d3c611d2b565b8581525f60208201525f60408201528260608201528360808201524260a0820152612d6a60c0820160019052565b612d7c865f52600360205260405f2090565b612ca5565b6001600160a01b037f000000000000000000000000000000000000000000000000000000000000000016803b156102f35760405163ce1b696360e01b8152935f918591829084908290612dd79060048301612cfa565b03925af19283156104e5577f2cbee46d0f54ed472c250204a5aed9f2b9668d5b5e47f01ca874d374534bd2e493612e3d575b50612e3860405192839283608090600192949360a08201955f83525f6020840152604083015260608201520152565b0390a2565b80610ea4612e4a92611c9f565b5f612e09565b9392919092612e99612e60611d2b565b8681528360208201525f60408201528460608201528260808201524260a08201525f60c0820152612d7c875f52600360205260405f2090565b6001600160a01b037f000000000000000000000000000000000000000000000000000000000000000016803b156102f35760405163ce1b696360e01b8152945f918691829084908290612eef9060048301612d17565b03925af19081156104e5577f2cbee46d0f54ed472c250204a5aed9f2b9668d5b5e47f01ca874d374534bd2e494612e3892612f4f575b506040519384938460809194935f9360a08301968352846020840152604083015260608201520152565b80610ea4612f5c92611c9f565b5f612f25565b94939093612fb1612f71611d2b565b8781528460208201528560408201528360608201528260808201524260a0820152612f9f60c0820160019052565b612d7c885f52600360205260405f2090565b6001600160a01b037f000000000000000000000000000000000000000000000000000000000000000016803b156102f35760405163ce1b696360e01b8152955f9187918290849082906130079060048301612cfa565b03925af19182156104e5577f2cbee46d0f54ed472c250204a5aed9f2b9668d5b5e47f01ca874d374534bd2e495612e3893613068575b506040519485948590949360019360809360a084019784526020840152604083015260608201520152565b80610ea461307592611c9f565b5f61303d565b916130c7613087611d2b565b8481525f60208201525f60408201528260608201525f60808201524260a08201526130b560c0820160019052565b612d7c855f52600360205260405f2090565b6001600160a01b037f000000000000000000000000000000000000000000000000000000000000000016803b156102f35760405163ce1b696360e01b8152925f91849182908490829061311d9060048301612cfa565b03925af19081156104e5577f2cbee46d0f54ed472c250204a5aed9f2b9668d5b5e47f01ca874d374534bd2e492612e3892613180575b5060405191829182608060019193929360a08101945f82525f602083015260408201525f60608201520152565b80610ea461318d92611c9f565b5f613153565b90670de0b6b3a7640000918281029281840414901517156121b657565b906b033b2e3c9fd0803ce8000000918281029281840414901517156121b657565b90612648918281029281840414901517156121b657565b90602082018092116121b657565b9061012c82018092116121b657565b90600182018092116121b657565b801561354d5761322e6103886002546001600160a01b031690565b926001600160a01b0393848116613506575b50604080516370a0823160e01b815230600480830191909152959193916020917f00000000000000000000000000000000000000000000000000000000000000008216908381602481855afa80156104e55785915f916134e9575b50106134d957908392916132ca6132c26132bd8a6132b888613193565b612388565b6131d1565b612710900490565b917f00000000000000000000000000000000000000000000000000000000000000001683818b6133218b51998a93849363095ea7b360e01b85528401602090939291936001600160a01b0360408201951681520152565b03815f865af19283156104e55761342c9685946134bc575b50613343426131f6565b61335d61334e611d3a565b6001600160a01b039095168552565b6001600160a01b037f00000000000000000000000000000000000000000000000000000000000000001684860152610bb8848b015230606085015260808401528560a084015260c08301525f60e0830152895f895180988195829463414bf38960e01b8452830191909160e0610100820193816001600160a01b039182815116855282602082015116602086015262ffffff60408201511660408601528260608201511660608601526080810151608086015260a081015160a086015260c081015160c0860152015116910152565b03925af19283915f9461349d575b505061345057835163081ceff360e41b81528690fd5b612e387fabed9c2bf91a3043c0b147978b27b3272de63d4ccdcbcb8ba15ff32b078c5be39395613481849854613205565b9551938493846040919493926060820195825260208201520152565b6134b4929450803d106104de576104d08183611ccf565b915f8061343a565b6134d290853d8711610e7357610e638183611ccf565b505f613339565b8551631e9acf1760e31b81528890fd5b6135009150853d87116104de576104d08183611ccf565b5f61329b565b803b156102f3576040516311ffc57760e11b815260048101849052905f908290602490829084905af180156104e557156132405780610ea461354792611c9f565b5f613240565b50505f90565b5190611d3882610606565b90816101609103126102f357613572611d5b565b90805182526020810151602083015260408101516040830152606081015160608301526080810151608083015260a081015160a08301526135b560c08201613553565b60c083015260e081015160e083015261010080820151908301526101206135dd81830161209b565b908301526135ef61014080920161209b565b9082015290565b805468010000000000000000811015611c9a5761361891600182018155611a45565b9190916136555760208161364e6001600160a01b03600194511685906001600160a01b03166001600160a01b0319825416179055565b0151910155565b634e487b7160e01b5f525f60045260245ffd5b9390929193805115801561388e575b6138875761368b846132b8879694966131b0565b935f926001600160a01b037f000000000000000000000000000000000000000000000000000000000000000016966fffffffffffffffffffffffffffffffff8716945b8451811015613834576136e18186611de8565b516040805163906e277b60e01b815260048101929092529091906101609081846024818f5afa9081156104e5576001946137ff935f93613805575b505060c08201516001600160a01b031691015161376e61374d61373e83614434565b6137478d614018565b906142a6565b613768846001600160a01b03165f52600960205260405f2090565b546142d5565b613789836001600160a01b03165f52600960205260405f2090565b556137a86114e5836001600160a01b03165f52600960205260405f2090565b506137c88261150b816001600160a01b03165f52600960205260405f2090565b6137da8b5f52600a60205260405f2090565b906137f56137e6611d7c565b6001600160a01b039094168452565b60208301526135f6565b016136ce565b613825929350803d1061382d575b61381d8183611ccf565b81019061355e565b905f8061371c565b503d613813565b5092612e389297507f1efc972212596274bc610401ed4fd54ce55e54df742b5bc00a417da30e281a9295969194505192604051948594859094939260609260808301968352602083015260408201520152565b5092505050565b508315613677565b604051906080820182811067ffffffffffffffff821117611c9a576040525f6060838281528260208201528260408201520152565b906020828203126102f357815167ffffffffffffffff81116102f35761204c9201611fbd565b906138fb82611da9565b6139086040519182611ccf565b8281528092612b2b601f1991611da9565b9190916139696001600160a01b03807f000000000000000000000000000000000000000000000000000000000000000016905f604094604051809581926396ea8d6960e01b8352600483016127fc565b0381855afa9283156104e5575f93613bec575b5061398783516138f1565b955f916139a567ffffffffffffffff61399e614068565b9316613f61565b945f935b8151851015613bac576139bc8583611de8565b51885163906e277b60e01b815260048101829052956101609290919083886024818c5afa9687156104e5578b988e955f99613b8d575b505060c088018b613a1061034a61061784516001600160a01b031690565b613b7d57610388613a77613a538c613a45819f6103889f613a8597613a3491614304565b920151613a3f6140b6565b906143e2565b613a4d614068565b91614643565b8095613a6960029e8f546001600160a01b031690565b8d8116613b6d575b5061440b565b9a546001600160a01b031690565b90888216613aed575b505050613aab8183613aa561010094600198611de8565b52612888565b970151907f339a9692045b8b078d3e6350c4cb8ec85a59e3f73364cf49f76f2629dc19c3578b5180613ae281906001602083019252565b0390a35b01936139a9565b518d516279bb4560e11b81526001600160a01b0390911660048201526024810192909252602095509091908590839060449082905f905af19081156104e557838f82613aa59160019961010097613aab97613b4f575b50509850945050613a8e565b81613b6592903d10610e7357610e638183611ccf565b505f80613b43565b613b779083614152565b5f613a71565b5050965096505060019150613ae6565b613ba4929950803d1061382d5761381d8183611ccf565b965f806139f2565b955050509493505050613bbe816138f1565b935f5b828110613bcd57505050565b80613bda60019284611de8565b51613be58289611de8565b5201613bc1565b613c099193503d805f833e613c018183611ccf565b8101906138cb565b915f61397c565b81519167ffffffffffffffff8311611c9a57680100000000000000008311611c9a578154838355808410613c75575b50613c526020809201925f5260205f2090565b905f5b848110613c63575050505050565b83518382015592810192600101613c55565b825f528360205f2091820191015b818110613c905750613c3f565b5f8155600101613c83565b9080518255600180830160209060208401519182519267ffffffffffffffff8411611c9a57680100000000000000008411611c9a578254848455808510613d5b575b506020613cef9101925f5260205f2090565b905f5b848110613d4a57505050505050906005613d3760a084613d1c6040611d3897015160028701613c10565b60608101516003860155608081015160048601550151151590565b91019060ff801983541691151516179055565b835183820155928101928501613cf2565b835f52858560205f2092830192015b828110613d78575050613cdd565b5f8155018690613d6a565b92613d8c611dc1565b805115611a5e578160208201527f5ea69329017273582817d320489fbd94f775580e90c092699ca6f3d12fdf7d0192835496613df56103886103887fed8d60e34876f751cc8b014c560745351147d9de11b9347c854e881b128ea600546001600160a01b031690565b803b156102f3575f6040518092637d6e912360e11b8252818381613e1c8a600483016127fc565b03925af180156104e557613f30575b50613e636103886103887f5ea69329017273582817d320489fbd94f775580e90c092699ca6f3d12fdf7d00546001600160a01b031690565b95863b156102f3575f84613e8f988b83604051809c81958294633263b83b60e01b84526004840161285f565b03925af19384156104e5576129b2613f18976129ac613eda937fbcf5a976ad5099b80a136d75eb362431099ce72445dd2c1a9305e658986b570b9b61131599613f1d575b508d6141cc565b613ee2611d89565b928884526020840152604083015260608201524260808201525f60a0820152613f13875f52600860205260405f2090565b613c9b565b0390a3565b80610ea4613f2a92611c9f565b5f613ed3565b80610ea4613f3d92611c9f565b5f613e2b565b60541115613f4d57565b634e487b7160e01b5f52602160045260245ffd5b60205f9160446001600160a01b035f805160206146978339815191525416916040519485938492639cd07acb60e01b84526004840152600560248401525af19081156104e5575f91613fb1575090565b61204c915060203d6020116104de576104d08183611ccf565b5f60206001600160a01b035f805160206146978339815191525416604460405180948193639cd07acb60e01b8352816004840152600660248401525af19081156104e5575f91613fb1575090565b60205f9160446001600160a01b035f805160206146978339815191525416916040519485938492639cd07acb60e01b84526004840152600660248401525af19081156104e5575f91613fb1575090565b5f60206001600160a01b035f805160206146978339815191525416604460405180948193639cd07acb60e01b8352816004840152600560248401525af19081156104e5575f91613fb1575090565b5f60206001600160a01b035f805160206146978339815191525416604460405180948193639cd07acb60e01b835260016004840152600560248401525af19081156104e5575f91613fb1575090565b5f60206001600160a01b035f805160206146978339815191525416604460405180948193639cd07acb60e01b83528160048401528160248401525af19081156104e5575f91613fb1575090565b6001600160a01b037fed8d60e34876f751cc8b014c560745351147d9de11b9347c854e881b128ea600541691823b156102f357604051635ca4b5b160e11b815260048101929092526001600160a01b03166024820152905f908290604490829084905af180156104e5576141c35750565b611d3890611c9f565b805f527f5ea69329017273582817d320489fbd94f775580e90c092699ca6f3d12fdf7d026020918160205260405f2054614294575f5260205260405f209082519267ffffffffffffffff8411611c9a57680100000000000000008411611c9a57825484845580851061426e575b50602061424b9101925f5260205f2090565b905f5b84811061425c575050505050565b8351838201559281019260010161424e565b835f528460205f2091820191015b8181106142895750614239565b5f815560010161427c565b604051633f06d22b60e01b8152600490fd5b9061204c9180156142c7575b816144845790506142c1613fca565b90614484565b506142d0613fca565b6142b2565b9061204c9180156142f6575b816144d95790506142f0613fca565b906144d9565b506142ff613fca565b6142e1565b61437291602060808301518283156143d4575b81156143c4575b6143426103886103885f80516020614697833981519152546001600160a01b031690565b905f604051809881958294631391547f60e01b8452600484016040905f9294936060820195825260208201520152565b03925af19081156104e55761204c935f9261439e575b5060a0614398929301519061452e565b906145b3565b61439892506143bd60a09160203d6020116104de576104d08183611ccf565b9250614388565b90506143ce614068565b9061431e565b506143dd614068565b614317565b9061204c9180156143fd575b816144845790506142c1614068565b50614406614068565b6143ee565b9061204c918015614426575b816144d95790506142f0614068565b5061442f614068565b614417565b60205f9160446001600160a01b035f8051602061469783398151915254169160405194859384926307227b9160e21b84526004840152600660248401525af19081156104e5575f91613fb1575090565b9060209060646001600160a01b035f805160206146978339815191525416935f6040519586948593630afe14ad60e31b8552600485015260248401528160448401525af19081156104e5575f91613fb1575090565b9060209060646001600160a01b035f805160206146978339815191525416935f604051958694859363022f65e760e31b8552600485015260248401528160448401525af19081156104e5575f91613fb1575090565b9081156145a3575b8015614591575b60209060646001600160a01b035f805160206146978339815191525416935f6040519586948593631d44e90160e21b8552600485015260248401528160448401525af19081156104e5575f91613fb1575090565b50602061459c614068565b905061453d565b90506145ad614068565b90614536565b614610916020918015614635575b8115614625575b6001600160a01b035f805160206146978339815191525416905f60405180968195829463d99882d560e01b8452600484016040905f9294936060820195825260208201520152565b03925af19081156104e5575f91613fb1575090565b905061462f614105565b906145c8565b5061463e614105565b6145c1565b9060646020925f6001600160a01b035f8051602061469783398151915254166040519687958694637702dcff60e01b86526004860152602485015260448401525af19081156104e5575f91613fb157509056feed8d60e34876f751cc8b014c560745351147d9de11b9347c854e881b128ea601a164736f6c6343000818000a",
  "devdoc": {
    "details": "Integrates Chainlink price feeds, Uniswap V3 DEX, and Chainlink Automation",
    "errors": {
      "OwnableInvalidOwner(address)": [
        {
          "details": "The owner is not a valid owner account. (eg. `address(0)`)"
        }
      ],
      "OwnableUnauthorizedAccount(address)": [
        {
          "details": "The caller account is not authorized to perform an operation."
        }
      ],
      "ReentrancyGuardReentrantCall()": [
        {
          "details": "Unauthorized reentrant call."
        }
      ]
    },
    "kind": "dev",
    "methods": {
      "checkUpkeep(bytes)": {
        "params": {
          "checkData": "Data passed from Chainlink during registration (ignored)"
        },
        "returns": {
          "performData": "Data to pass to performUpkeep",
          "upkeepNeeded": "True if batch processing is needed"
        }
      },
      "constructor": {
        "params": {
          "_intentCollector": "Address of the intent collector contract",
          "_owner": "Owner of the contract",
          "_priceFeed": "Address of the Chainlink ETH/USD price feed",
          "_uniswapRouter": "Address of the Uniswap V3 router",
          "_usdcToken": "Address of the USDC token",
          "_wethAddress": "Address of WETH token"
        }
      },
      "emergencyWithdraw(address,uint256)": {
        "params": {
          "amount": "Amount to withdraw",
          "token": "Token address (address(0) for ETH)"
        }
      },
      "getBatchResult(uint256)": {
        "params": {
          "batchId": "Batch ID to query"
        },
        "returns": {
          "result": "Batch processing result"
        }
      },
      "getUserScaledBalance(address)": {
        "params": {
          "user": "The user address"
        },
        "returns": {
          "_0": "The encrypted scaled balance"
        }
      },
      "getUserWithdrawalStatus(address)": {
        "params": {
          "user": "The user address"
        },
        "returns": {
          "ethRequestId": "Active ETH withdrawal request ID (0 if none)",
          "ethWithdrawing": "Whether user is withdrawing ETH",
          "usdcRequestId": "Active USDC withdrawal request ID (0 if none)",
          "usdcWithdrawing": "Whether user is withdrawing USDC"
        }
      },
      "initiateUsdcWithdrawal()": {
        "details": "Uses FHE.requestDecryption to decrypt user's USDC balance and transfer directly"
      },
      "manualTriggerBatch(uint256)": {
        "params": {
          "batchId": "The batch ID to process"
        }
      },
      "onBatchDecrypted(uint256,uint64,bytes[])": {
        "params": {
          "decryptedAmount": "The decrypted total amount",
          "requestId": "The decryption request ID",
          "signatures": "KMS signatures for verification"
        }
      },
      "onEthDecrypted(uint256,uint128,bytes[])": {
        "details": "Called by FHEVM system after async decryption completes",
        "params": {
          "requestId": "The decryption request ID",
          "scaledEthAmount": "The decrypted scaled ETH balance",
          "signatures": "KMS signatures for verification"
        }
      },
      "onUsdcDecrypted(uint256,uint64,bytes[])": {
        "params": {
          "decryptedBalance": "The decrypted USDC balance",
          "requestId": "The decryption request ID",
          "signatures": "KMS signatures for verification"
        }
      },
      "owner()": {
        "details": "Returns the address of the current owner."
      },
      "performUpkeep(bytes)": {
        "params": {
          "performData": "Data from checkUpkeep"
        }
      },
      "recoverToken(address,uint256)": {
        "params": {
          "amount": "Amount to recover",
          "token": "Token address"
        }
      },
      "renounceOwnership()": {
        "details": "Leaves the contract without owner. It will not be possible to call `onlyOwner` functions. Can only be called by the current owner. NOTE: Renouncing ownership will leave the contract without an owner, thereby disabling any functionality that is only available to the owner."
      },
      "setAutomationEnabled(bool)": {
        "params": {
          "enabled": "Whether automation should be enabled"
        }
      },
      "setFundPool(address)": {
        "params": {
          "_fundPool": "Address of the FundPool contract"
        }
      },
      "transferOwnership(address)": {
        "details": "Transfers ownership of the contract to a new account (`newOwner`). Can only be called by the current owner."
      },
      "withdrawEth()": {
        "details": "Initiates async decryption of user's encrypted ETH balance for secure withdrawal"
      }
    },
    "title": "BatchProcessor",
    "version": 1
  },
  "userdoc": {
    "errors": {
      "BatchNotReady()": [
        {
          "notice": "Custom errors"
        }
      ],
      "HandlesAlreadySavedForRequestID()": [
        {
          "notice": "Returned if some handles were already saved for corresponding ID."
        }
      ],
      "InvalidKMSSignatures()": [
        {
          "notice": "Returned if the returned KMS signatures are not valid."
        }
      ],
      "NoHandleFoundForRequestID()": [
        {
          "notice": "Returned if there was not handle found for the requested ID."
        }
      ],
      "UnsupportedHandleType()": [
        {
          "notice": "Returned if the requested handle to be decrypted is not of a supported type."
        }
      ]
    },
    "events": {
      "BatchProcessed(uint256,uint256,uint256,uint256,uint256,bool)": {
        "notice": "Events"
      },
      "DecryptionFulfilled(uint256)": {
        "notice": "This event is emitted when requested decryption has been fulfilled."
      },
      "UserWithdrew(address,uint256,uint256)": {
        "notice": "Event for user withdrawal"
      }
    },
    "kind": "user",
    "methods": {
      "CHECK_UPKEEP_GAS_LIMIT()": {
        "notice": "Gas limits for automation"
      },
      "POOL_FEE()": {
        "notice": "Uniswap pool configuration"
      },
      "PRICE_STALENESS_THRESHOLD()": {
        "notice": "Price validation parameters"
      },
      "SCALING_FACTOR()": {
        "notice": "Fixed-point arithmetic constants for proportional distribution"
      },
      "batchContributions(uint256,uint256)": {
        "notice": "Track user contributions for each batch (for proportional distribution)"
      },
      "batchResults(uint256)": {
        "notice": "Batch processing state"
      },
      "checkUpkeep(bytes)": {
        "notice": "Check if upkeep is needed (Chainlink Automation)"
      },
      "constructor": {
        "notice": "Constructor"
      },
      "emergencyWithdraw(address,uint256)": {
        "notice": "Emergency withdraw function"
      },
      "encryptedEthBalances(address)": {
        "notice": "Encrypted ETH balances using euint128 for overflow protection"
      },
      "ethWithdrawalRequests(uint256)": {
        "notice": "ETH withdrawal requests tracking"
      },
      "getBatchResult(uint256)": {
        "notice": "Get batch result"
      },
      "getUserScaledBalance(address)": {
        "notice": "Get user's encrypted scaled balance"
      },
      "getUserWithdrawalStatus(address)": {
        "notice": "Get user's withdrawal status"
      },
      "initiateUsdcWithdrawal()": {
        "notice": "Initiate USDC withdrawal from FundPool using proper FHEVM decryption"
      },
      "intentCollector()": {
        "notice": "Contract dependencies"
      },
      "isWithdrawing(address)": {
        "notice": "Track users who are currently withdrawing (to exclude from batch processing)"
      },
      "manualTriggerBatch(uint256)": {
        "notice": "Manual trigger for batch processing (owner only)"
      },
      "onBatchDecrypted(uint256,uint64,bytes[])": {
        "notice": "Callback function for FHE decryption (proper FHEVM pattern)"
      },
      "onEthDecrypted(uint256,uint128,bytes[])": {
        "notice": "Callback function for ETH withdrawal decryption (proper FHEVM pattern)"
      },
      "onUsdcDecrypted(uint256,uint64,bytes[])": {
        "notice": "Callback for USDC withdrawal decryption (proper FHEVM pattern)"
      },
      "pendingDecryptions(uint256)": {
        "notice": "Decryption request tracking"
      },
      "performUpkeep(bytes)": {
        "notice": "Perform upkeep (Chainlink Automation)"
      },
      "priceHistory(uint256)": {
        "notice": "Price history for validation"
      },
      "recoverToken(address,uint256)": {
        "notice": "Recover stuck tokens (alias for emergencyWithdraw for compatibility)"
      },
      "setAutomationEnabled(bool)": {
        "notice": "Enable/disable automation"
      },
      "setFundPool(address)": {
        "notice": "Set FundPool contract address"
      },
      "usdcToken()": {
        "notice": "Token addresses"
      },
      "usdcWithdrawalRequests(uint256)": {
        "notice": "USDC withdrawal requests tracking"
      },
      "withdrawEth()": {
        "notice": "Withdraw accumulated ETH from batch processing using proper FHEVM decryption"
      }
    },
    "notice": "Core contract for processing DCA batches with FHE price filtering and aggregation",
    "version": 1
  },
  "storageLayout": {
    "storage": [
      {
        "astId": 39118,
        "contract": "contracts/BatchProcessor.sol:BatchProcessor",
        "label": "_owner",
        "offset": 0,
        "slot": "0",
        "type": "t_address"
      },
      {
        "astId": 39298,
        "contract": "contracts/BatchProcessor.sol:BatchProcessor",
        "label": "_status",
        "offset": 0,
        "slot": "1",
        "type": "t_uint256"
      },
      {
        "astId": 39471,
        "contract": "contracts/BatchProcessor.sol:BatchProcessor",
        "label": "fundPool",
        "offset": 0,
        "slot": "2",
        "type": "t_contract(IFundPool)44729"
      },
      {
        "astId": 39510,
        "contract": "contracts/BatchProcessor.sol:BatchProcessor",
        "label": "batchResults",
        "offset": 0,
        "slot": "3",
        "type": "t_mapping(t_uint256,t_struct(BatchResult)39411_storage)"
      },
      {
        "astId": 39512,
        "contract": "contracts/BatchProcessor.sol:BatchProcessor",
        "label": "lastProcessedBatch",
        "offset": 0,
        "slot": "4",
        "type": "t_uint256"
      },
      {
        "astId": 39514,
        "contract": "contracts/BatchProcessor.sol:BatchProcessor",
        "label": "automationEnabled",
        "offset": 0,
        "slot": "5",
        "type": "t_bool"
      },
      {
        "astId": 39520,
        "contract": "contracts/BatchProcessor.sol:BatchProcessor",
        "label": "priceHistory",
        "offset": 0,
        "slot": "6",
        "type": "t_mapping(t_uint256,t_struct(PriceData)39421_storage)"
      },
      {
        "astId": 39522,
        "contract": "contracts/BatchProcessor.sol:BatchProcessor",
        "label": "priceUpdateCounter",
        "offset": 0,
        "slot": "7",
        "type": "t_uint256"
      },
      {
        "astId": 39528,
        "contract": "contracts/BatchProcessor.sol:BatchProcessor",
        "label": "pendingDecryptions",
        "offset": 0,
        "slot": "8",
        "type": "t_mapping(t_uint256,t_struct(PendingDecryption)39437_storage)"
      },
      {
        "astId": 39541,
        "contract": "contracts/BatchProcessor.sol:BatchProcessor",
        "label": "encryptedEthBalances",
        "offset": 0,
        "slot": "9",
        "type": "t_mapping(t_address,t_userDefinedValueType(euint128)45874)"
      },
      {
        "astId": 39548,
        "contract": "contracts/BatchProcessor.sol:BatchProcessor",
        "label": "batchContributions",
        "offset": 0,
        "slot": "10",
        "type": "t_mapping(t_uint256,t_array(t_struct(UserContribution)39444_storage)dyn_storage)"
      },
      {
        "astId": 39553,
        "contract": "contracts/BatchProcessor.sol:BatchProcessor",
        "label": "isWithdrawing",
        "offset": 0,
        "slot": "11",
        "type": "t_mapping(t_address,t_bool)"
      },
      {
        "astId": 39559,
        "contract": "contracts/BatchProcessor.sol:BatchProcessor",
        "label": "usdcWithdrawalRequests",
        "offset": 0,
        "slot": "12",
        "type": "t_mapping(t_uint256,t_struct(UsdcWithdrawalRequest)39454_storage)"
      },
      {
        "astId": 39563,
        "contract": "contracts/BatchProcessor.sol:BatchProcessor",
        "label": "activeUsdcWithdrawalRequest",
        "offset": 0,
        "slot": "13",
        "type": "t_mapping(t_address,t_uint256)"
      },
      {
        "astId": 39569,
        "contract": "contracts/BatchProcessor.sol:BatchProcessor",
        "label": "ethWithdrawalRequests",
        "offset": 0,
        "slot": "14",
        "type": "t_mapping(t_uint256,t_struct(EthWithdrawalRequest)39464_storage)"
      },
      {
        "astId": 39573,
        "contract": "contracts/BatchProcessor.sol:BatchProcessor",
        "label": "activeEthWithdrawalRequest",
        "offset": 0,
        "slot": "15",
        "type": "t_mapping(t_address,t_uint256)"
      }
    ],
    "types": {
      "t_address": {
        "encoding": "inplace",
        "label": "address",
        "numberOfBytes": "20"
      },
      "t_array(t_struct(UserContribution)39444_storage)dyn_storage": {
        "base": "t_struct(UserContribution)39444_storage",
        "encoding": "dynamic_array",
        "label": "struct BatchProcessor.UserContribution[]",
        "numberOfBytes": "32"
      },
      "t_array(t_uint256)dyn_storage": {
        "base": "t_uint256",
        "encoding": "dynamic_array",
        "label": "uint256[]",
        "numberOfBytes": "32"
      },
      "t_bool": {
        "encoding": "inplace",
        "label": "bool",
        "numberOfBytes": "1"
      },
      "t_contract(IFundPool)44729": {
        "encoding": "inplace",
        "label": "contract IFundPool",
        "numberOfBytes": "20"
      },
      "t_mapping(t_address,t_bool)": {
        "encoding": "mapping",
        "key": "t_address",
        "label": "mapping(address => bool)",
        "numberOfBytes": "32",
        "value": "t_bool"
      },
      "t_mapping(t_address,t_uint256)": {
        "encoding": "mapping",
        "key": "t_address",
        "label": "mapping(address => uint256)",
        "numberOfBytes": "32",
        "value": "t_uint256"
      },
      "t_mapping(t_address,t_userDefinedValueType(euint128)45874)": {
        "encoding": "mapping",
        "key": "t_address",
        "label": "mapping(address => euint128)",
        "numberOfBytes": "32",
        "value": "t_userDefinedValueType(euint128)45874"
      },
      "t_mapping(t_uint256,t_array(t_struct(UserContribution)39444_storage)dyn_storage)": {
        "encoding": "mapping",
        "key": "t_uint256",
        "label": "mapping(uint256 => struct BatchProcessor.UserContribution[])",
        "numberOfBytes": "32",
        "value": "t_array(t_struct(UserContribution)39444_storage)dyn_storage"
      },
      "t_mapping(t_uint256,t_struct(BatchResult)39411_storage)": {
        "encoding": "mapping",
        "key": "t_uint256",
        "label": "mapping(uint256 => struct BatchProcessor.BatchResult)",
        "numberOfBytes": "32",
        "value": "t_struct(BatchResult)39411_storage"
      },
      "t_mapping(t_uint256,t_struct(EthWithdrawalRequest)39464_storage)": {
        "encoding": "mapping",
        "key": "t_uint256",
        "label": "mapping(uint256 => struct BatchProcessor.EthWithdrawalRequest)",
        "numberOfBytes": "32",
        "value": "t_struct(EthWithdrawalRequest)39464_storage"
      },
      "t_mapping(t_uint256,t_struct(PendingDecryption)39437_storage)": {
        "encoding": "mapping",
        "key": "t_uint256",
        "label": "mapping(uint256 => struct BatchProcessor.PendingDecryption)",
        "numberOfBytes": "32",
        "value": "t_struct(PendingDecryption)39437_storage"
      },
      "t_mapping(t_uint256,t_struct(PriceData)39421_storage)": {
        "encoding": "mapping",
        "key": "t_uint256",
        "label": "mapping(uint256 => struct BatchProcessor.PriceData)",
        "numberOfBytes": "32",
        "value": "t_struct(PriceData)39421_storage"
      },
      "t_mapping(t_uint256,t_struct(UsdcWithdrawalRequest)39454_storage)": {
        "encoding": "mapping",
        "key": "t_uint256",
        "label": "mapping(uint256 => struct BatchProcessor.UsdcWithdrawalRequest)",
        "numberOfBytes": "32",
        "value": "t_struct(UsdcWithdrawalRequest)39454_storage"
      },
      "t_struct(BatchResult)39411_storage": {
        "encoding": "inplace",
        "label": "struct BatchProcessor.BatchResult",
        "members": [
          {
            "astId": 39398,
            "contract": "contracts/BatchProcessor.sol:BatchProcessor",
            "label": "batchId",
            "offset": 0,
            "slot": "0",
            "type": "t_uint256"
          },
          {
            "astId": 39400,
            "contract": "contracts/BatchProcessor.sol:BatchProcessor",
            "label": "totalAmountIn",
            "offset": 0,
            "slot": "1",
            "type": "t_uint256"
          },
          {
            "astId": 39402,
            "contract": "contracts/BatchProcessor.sol:BatchProcessor",
            "label": "totalAmountOut",
            "offset": 0,
            "slot": "2",
            "type": "t_uint256"
          },
          {
            "astId": 39404,
            "contract": "contracts/BatchProcessor.sol:BatchProcessor",
            "label": "priceAtExecution",
            "offset": 0,
            "slot": "3",
            "type": "t_uint256"
          },
          {
            "astId": 39406,
            "contract": "contracts/BatchProcessor.sol:BatchProcessor",
            "label": "participantCount",
            "offset": 0,
            "slot": "4",
            "type": "t_uint256"
          },
          {
            "astId": 39408,
            "contract": "contracts/BatchProcessor.sol:BatchProcessor",
            "label": "executedAt",
            "offset": 0,
            "slot": "5",
            "type": "t_uint256"
          },
          {
            "astId": 39410,
            "contract": "contracts/BatchProcessor.sol:BatchProcessor",
            "label": "success",
            "offset": 0,
            "slot": "6",
            "type": "t_bool"
          }
        ],
        "numberOfBytes": "224"
      },
      "t_struct(EthWithdrawalRequest)39464_storage": {
        "encoding": "inplace",
        "label": "struct BatchProcessor.EthWithdrawalRequest",
        "members": [
          {
            "astId": 39457,
            "contract": "contracts/BatchProcessor.sol:BatchProcessor",
            "label": "requestId",
            "offset": 0,
            "slot": "0",
            "type": "t_uint256"
          },
          {
            "astId": 39459,
            "contract": "contracts/BatchProcessor.sol:BatchProcessor",
            "label": "user",
            "offset": 0,
            "slot": "1",
            "type": "t_address"
          },
          {
            "astId": 39461,
            "contract": "contracts/BatchProcessor.sol:BatchProcessor",
            "label": "timestamp",
            "offset": 0,
            "slot": "2",
            "type": "t_uint256"
          },
          {
            "astId": 39463,
            "contract": "contracts/BatchProcessor.sol:BatchProcessor",
            "label": "processed",
            "offset": 0,
            "slot": "3",
            "type": "t_bool"
          }
        ],
        "numberOfBytes": "128"
      },
      "t_struct(PendingDecryption)39437_storage": {
        "encoding": "inplace",
        "label": "struct BatchProcessor.PendingDecryption",
        "members": [
          {
            "astId": 39424,
            "contract": "contracts/BatchProcessor.sol:BatchProcessor",
            "label": "batchId",
            "offset": 0,
            "slot": "0",
            "type": "t_uint256"
          },
          {
            "astId": 39427,
            "contract": "contracts/BatchProcessor.sol:BatchProcessor",
            "label": "intentIds",
            "offset": 0,
            "slot": "1",
            "type": "t_array(t_uint256)dyn_storage"
          },
          {
            "astId": 39430,
            "contract": "contracts/BatchProcessor.sol:BatchProcessor",
            "label": "validIntentIds",
            "offset": 0,
            "slot": "2",
            "type": "t_array(t_uint256)dyn_storage"
          },
          {
            "astId": 39432,
            "contract": "contracts/BatchProcessor.sol:BatchProcessor",
            "label": "currentPrice",
            "offset": 0,
            "slot": "3",
            "type": "t_uint256"
          },
          {
            "astId": 39434,
            "contract": "contracts/BatchProcessor.sol:BatchProcessor",
            "label": "timestamp",
            "offset": 0,
            "slot": "4",
            "type": "t_uint256"
          },
          {
            "astId": 39436,
            "contract": "contracts/BatchProcessor.sol:BatchProcessor",
            "label": "processed",
            "offset": 0,
            "slot": "5",
            "type": "t_bool"
          }
        ],
        "numberOfBytes": "192"
      },
      "t_struct(PriceData)39421_storage": {
        "encoding": "inplace",
        "label": "struct BatchProcessor.PriceData",
        "members": [
          {
            "astId": 39414,
            "contract": "contracts/BatchProcessor.sol:BatchProcessor",
            "label": "price",
            "offset": 0,
            "slot": "0",
            "type": "t_uint256"
          },
          {
            "astId": 39416,
            "contract": "contracts/BatchProcessor.sol:BatchProcessor",
            "label": "updatedAt",
            "offset": 0,
            "slot": "1",
            "type": "t_uint256"
          },
          {
            "astId": 39418,
            "contract": "contracts/BatchProcessor.sol:BatchProcessor",
            "label": "roundId",
            "offset": 0,
            "slot": "2",
            "type": "t_uint80"
          },
          {
            "astId": 39420,
            "contract": "contracts/BatchProcessor.sol:BatchProcessor",
            "label": "isValid",
            "offset": 10,
            "slot": "2",
            "type": "t_bool"
          }
        ],
        "numberOfBytes": "96"
      },
      "t_struct(UsdcWithdrawalRequest)39454_storage": {
        "encoding": "inplace",
        "label": "struct BatchProcessor.UsdcWithdrawalRequest",
        "members": [
          {
            "astId": 39447,
            "contract": "contracts/BatchProcessor.sol:BatchProcessor",
            "label": "requestId",
            "offset": 0,
            "slot": "0",
            "type": "t_uint256"
          },
          {
            "astId": 39449,
            "contract": "contracts/BatchProcessor.sol:BatchProcessor",
            "label": "user",
            "offset": 0,
            "slot": "1",
            "type": "t_address"
          },
          {
            "astId": 39451,
            "contract": "contracts/BatchProcessor.sol:BatchProcessor",
            "label": "timestamp",
            "offset": 0,
            "slot": "2",
            "type": "t_uint256"
          },
          {
            "astId": 39453,
            "contract": "contracts/BatchProcessor.sol:BatchProcessor",
            "label": "processed",
            "offset": 0,
            "slot": "3",
            "type": "t_bool"
          }
        ],
        "numberOfBytes": "128"
      },
      "t_struct(UserContribution)39444_storage": {
        "encoding": "inplace",
        "label": "struct BatchProcessor.UserContribution",
        "members": [
          {
            "astId": 39440,
            "contract": "contracts/BatchProcessor.sol:BatchProcessor",
            "label": "user",
            "offset": 0,
            "slot": "0",
            "type": "t_address"
          },
          {
            "astId": 39443,
            "contract": "contracts/BatchProcessor.sol:BatchProcessor",
            "label": "encryptedAmount",
            "offset": 0,
            "slot": "1",
            "type": "t_userDefinedValueType(euint64)45858"
          }
        ],
        "numberOfBytes": "64"
      },
      "t_uint256": {
        "encoding": "inplace",
        "label": "uint256",
        "numberOfBytes": "32"
      },
      "t_uint80": {
        "encoding": "inplace",
        "label": "uint80",
        "numberOfBytes": "10"
      },
      "t_userDefinedValueType(euint128)45874": {
        "encoding": "inplace",
        "label": "euint128",
        "numberOfBytes": "32"
      },
      "t_userDefinedValueType(euint64)45858": {
        "encoding": "inplace",
        "label": "euint64",
        "numberOfBytes": "32"
      }
    }
  }
}