{
  "_format": "hh-sol-artifact-1",
  "contractName": "BatchProcessor",
  "sourceName": "contracts/BatchProcessor.sol",
  "abi": [
    {
      "inputs": [
        {
          "internalType": "address",
          "name": "_intentCollector",
          "type": "address"
        },
        {
          "internalType": "address",
          "name": "_priceFeed",
          "type": "address"
        },
        {
          "internalType": "address",
          "name": "_uniswapRouter",
          "type": "address"
        },
        {
          "internalType": "address",
          "name": "_usdcToken",
          "type": "address"
        },
        {
          "internalType": "address",
          "name": "_wethAddress",
          "type": "address"
        },
        {
          "internalType": "address",
          "name": "_owner",
          "type": "address"
        }
      ],
      "stateMutability": "nonpayable",
      "type": "constructor"
    },
    {
      "inputs": [],
      "name": "AutomationNotEnabled",
      "type": "error"
    },
    {
      "inputs": [],
      "name": "BatchNotReady",
      "type": "error"
    },
    {
      "inputs": [],
      "name": "HandlesAlreadySavedForRequestID",
      "type": "error"
    },
    {
      "inputs": [],
      "name": "InsufficientBalance",
      "type": "error"
    },
    {
      "inputs": [],
      "name": "InvalidKMSSignatures",
      "type": "error"
    },
    {
      "inputs": [],
      "name": "InvalidPriceData",
      "type": "error"
    },
    {
      "inputs": [],
      "name": "InvalidSlippage",
      "type": "error"
    },
    {
      "inputs": [],
      "name": "NoHandleFoundForRequestID",
      "type": "error"
    },
    {
      "inputs": [],
      "name": "NoWithdrawalInProgress",
      "type": "error"
    },
    {
      "inputs": [
        {
          "internalType": "address",
          "name": "owner",
          "type": "address"
        }
      ],
      "name": "OwnableInvalidOwner",
      "type": "error"
    },
    {
      "inputs": [
        {
          "internalType": "address",
          "name": "account",
          "type": "address"
        }
      ],
      "name": "OwnableUnauthorizedAccount",
      "type": "error"
    },
    {
      "inputs": [],
      "name": "PriceDataStale",
      "type": "error"
    },
    {
      "inputs": [],
      "name": "ReentrancyGuardReentrantCall",
      "type": "error"
    },
    {
      "inputs": [],
      "name": "SwapFailed",
      "type": "error"
    },
    {
      "inputs": [],
      "name": "UnauthorizedAutomation",
      "type": "error"
    },
    {
      "inputs": [],
      "name": "UnsupportedHandleType",
      "type": "error"
    },
    {
      "inputs": [],
      "name": "WithdrawalAlreadyInProgress",
      "type": "error"
    },
    {
      "inputs": [],
      "name": "WithdrawalRequestNotFound",
      "type": "error"
    },
    {
      "anonymous": false,
      "inputs": [
        {
          "indexed": true,
          "internalType": "uint256",
          "name": "batchId",
          "type": "uint256"
        },
        {
          "indexed": false,
          "internalType": "string",
          "name": "reason",
          "type": "string"
        }
      ],
      "name": "AutomationTriggered",
      "type": "event"
    },
    {
      "anonymous": false,
      "inputs": [
        {
          "indexed": true,
          "internalType": "uint256",
          "name": "batchId",
          "type": "uint256"
        },
        {
          "indexed": false,
          "internalType": "uint256",
          "name": "totalAmountIn",
          "type": "uint256"
        },
        {
          "indexed": false,
          "internalType": "uint256",
          "name": "totalAmountOut",
          "type": "uint256"
        },
        {
          "indexed": false,
          "internalType": "uint256",
          "name": "priceAtExecution",
          "type": "uint256"
        },
        {
          "indexed": false,
          "internalType": "uint256",
          "name": "participantCount",
          "type": "uint256"
        },
        {
          "indexed": false,
          "internalType": "bool",
          "name": "success",
          "type": "bool"
        }
      ],
      "name": "BatchProcessed",
      "type": "event"
    },
    {
      "anonymous": false,
      "inputs": [
        {
          "indexed": true,
          "internalType": "uint256",
          "name": "requestID",
          "type": "uint256"
        }
      ],
      "name": "DecryptionFulfilled",
      "type": "event"
    },
    {
      "anonymous": false,
      "inputs": [
        {
          "indexed": true,
          "internalType": "uint256",
          "name": "requestId",
          "type": "uint256"
        },
        {
          "indexed": false,
          "internalType": "uint256",
          "name": "decryptedAmount",
          "type": "uint256"
        }
      ],
      "name": "DecryptionFulfilled",
      "type": "event"
    },
    {
      "anonymous": false,
      "inputs": [
        {
          "indexed": true,
          "internalType": "uint256",
          "name": "batchId",
          "type": "uint256"
        },
        {
          "indexed": true,
          "internalType": "uint256",
          "name": "requestId",
          "type": "uint256"
        },
        {
          "indexed": false,
          "internalType": "euint64",
          "name": "encryptedAmount",
          "type": "bytes32"
        }
      ],
      "name": "DecryptionRequested",
      "type": "event"
    },
    {
      "anonymous": false,
      "inputs": [
        {
          "indexed": true,
          "internalType": "address",
          "name": "token",
          "type": "address"
        },
        {
          "indexed": false,
          "internalType": "uint256",
          "name": "amount",
          "type": "uint256"
        }
      ],
      "name": "EmergencyWithdraw",
      "type": "event"
    },
    {
      "anonymous": false,
      "inputs": [
        {
          "indexed": true,
          "internalType": "address",
          "name": "user",
          "type": "address"
        },
        {
          "indexed": false,
          "internalType": "uint256",
          "name": "ethAmount",
          "type": "uint256"
        },
        {
          "indexed": false,
          "internalType": "uint256",
          "name": "timestamp",
          "type": "uint256"
        }
      ],
      "name": "EthWithdrawalCompleted",
      "type": "event"
    },
    {
      "anonymous": false,
      "inputs": [
        {
          "indexed": true,
          "internalType": "address",
          "name": "user",
          "type": "address"
        },
        {
          "indexed": true,
          "internalType": "uint256",
          "name": "requestId",
          "type": "uint256"
        },
        {
          "indexed": false,
          "internalType": "uint256",
          "name": "timestamp",
          "type": "uint256"
        }
      ],
      "name": "EthWithdrawalInitiated",
      "type": "event"
    },
    {
      "anonymous": false,
      "inputs": [
        {
          "indexed": true,
          "internalType": "uint256",
          "name": "intentId",
          "type": "uint256"
        },
        {
          "indexed": true,
          "internalType": "uint256",
          "name": "batchId",
          "type": "uint256"
        },
        {
          "indexed": false,
          "internalType": "bool",
          "name": "passedPriceFilter",
          "type": "bool"
        }
      ],
      "name": "IntentFiltered",
      "type": "event"
    },
    {
      "anonymous": false,
      "inputs": [
        {
          "indexed": true,
          "internalType": "address",
          "name": "previousOwner",
          "type": "address"
        },
        {
          "indexed": true,
          "internalType": "address",
          "name": "newOwner",
          "type": "address"
        }
      ],
      "name": "OwnershipTransferred",
      "type": "event"
    },
    {
      "anonymous": false,
      "inputs": [
        {
          "indexed": true,
          "internalType": "uint256",
          "name": "batchId",
          "type": "uint256"
        },
        {
          "indexed": false,
          "internalType": "uint256",
          "name": "participantCount",
          "type": "uint256"
        },
        {
          "indexed": false,
          "internalType": "uint256",
          "name": "totalUsdcSpent",
          "type": "uint256"
        },
        {
          "indexed": false,
          "internalType": "uint256",
          "name": "totalEthReceived",
          "type": "uint256"
        },
        {
          "indexed": false,
          "internalType": "uint256",
          "name": "scaledRate",
          "type": "uint256"
        }
      ],
      "name": "ProportionalDistributionCompleted",
      "type": "event"
    },
    {
      "anonymous": false,
      "inputs": [
        {
          "indexed": true,
          "internalType": "uint256",
          "name": "batchId",
          "type": "uint256"
        },
        {
          "indexed": false,
          "internalType": "uint256",
          "name": "amountIn",
          "type": "uint256"
        },
        {
          "indexed": false,
          "internalType": "uint256",
          "name": "amountOut",
          "type": "uint256"
        },
        {
          "indexed": false,
          "internalType": "uint256",
          "name": "price",
          "type": "uint256"
        }
      ],
      "name": "SwapExecuted",
      "type": "event"
    },
    {
      "anonymous": false,
      "inputs": [
        {
          "indexed": true,
          "internalType": "address",
          "name": "user",
          "type": "address"
        },
        {
          "indexed": false,
          "internalType": "uint256",
          "name": "usdcAmount",
          "type": "uint256"
        },
        {
          "indexed": false,
          "internalType": "uint256",
          "name": "timestamp",
          "type": "uint256"
        }
      ],
      "name": "UsdcWithdrawalCompleted",
      "type": "event"
    },
    {
      "anonymous": false,
      "inputs": [
        {
          "indexed": true,
          "internalType": "address",
          "name": "user",
          "type": "address"
        },
        {
          "indexed": true,
          "internalType": "uint256",
          "name": "requestId",
          "type": "uint256"
        },
        {
          "indexed": false,
          "internalType": "uint256",
          "name": "timestamp",
          "type": "uint256"
        }
      ],
      "name": "UsdcWithdrawalInitiated",
      "type": "event"
    },
    {
      "anonymous": false,
      "inputs": [
        {
          "indexed": true,
          "internalType": "address",
          "name": "user",
          "type": "address"
        },
        {
          "indexed": false,
          "internalType": "uint256",
          "name": "ethAmount",
          "type": "uint256"
        },
        {
          "indexed": false,
          "internalType": "uint256",
          "name": "scaledAmount",
          "type": "uint256"
        }
      ],
      "name": "UserWithdrew",
      "type": "event"
    },
    {
      "inputs": [],
      "name": "CHECK_UPKEEP_GAS_LIMIT",
      "outputs": [
        {
          "internalType": "uint256",
          "name": "",
          "type": "uint256"
        }
      ],
      "stateMutability": "view",
      "type": "function"
    },
    {
      "inputs": [],
      "name": "MIN_PRICE_DEVIATION",
      "outputs": [
        {
          "internalType": "uint256",
          "name": "",
          "type": "uint256"
        }
      ],
      "stateMutability": "view",
      "type": "function"
    },
    {
      "inputs": [],
      "name": "PERFORM_UPKEEP_GAS_LIMIT",
      "outputs": [
        {
          "internalType": "uint256",
          "name": "",
          "type": "uint256"
        }
      ],
      "stateMutability": "view",
      "type": "function"
    },
    {
      "inputs": [],
      "name": "POOL_FEE",
      "outputs": [
        {
          "internalType": "uint24",
          "name": "",
          "type": "uint24"
        }
      ],
      "stateMutability": "view",
      "type": "function"
    },
    {
      "inputs": [],
      "name": "PRICE_STALENESS_THRESHOLD",
      "outputs": [
        {
          "internalType": "uint256",
          "name": "",
          "type": "uint256"
        }
      ],
      "stateMutability": "view",
      "type": "function"
    },
    {
      "inputs": [],
      "name": "RATE_PRECISION",
      "outputs": [
        {
          "internalType": "uint256",
          "name": "",
          "type": "uint256"
        }
      ],
      "stateMutability": "view",
      "type": "function"
    },
    {
      "inputs": [],
      "name": "SCALING_FACTOR",
      "outputs": [
        {
          "internalType": "uint256",
          "name": "",
          "type": "uint256"
        }
      ],
      "stateMutability": "view",
      "type": "function"
    },
    {
      "inputs": [],
      "name": "SLIPPAGE_TOLERANCE",
      "outputs": [
        {
          "internalType": "uint256",
          "name": "",
          "type": "uint256"
        }
      ],
      "stateMutability": "view",
      "type": "function"
    },
    {
      "inputs": [
        {
          "internalType": "address",
          "name": "",
          "type": "address"
        }
      ],
      "name": "activeEthWithdrawalRequest",
      "outputs": [
        {
          "internalType": "uint256",
          "name": "",
          "type": "uint256"
        }
      ],
      "stateMutability": "view",
      "type": "function"
    },
    {
      "inputs": [
        {
          "internalType": "address",
          "name": "",
          "type": "address"
        }
      ],
      "name": "activeUsdcWithdrawalRequest",
      "outputs": [
        {
          "internalType": "uint256",
          "name": "",
          "type": "uint256"
        }
      ],
      "stateMutability": "view",
      "type": "function"
    },
    {
      "inputs": [],
      "name": "automationEnabled",
      "outputs": [
        {
          "internalType": "bool",
          "name": "",
          "type": "bool"
        }
      ],
      "stateMutability": "view",
      "type": "function"
    },
    {
      "inputs": [
        {
          "internalType": "uint256",
          "name": "",
          "type": "uint256"
        },
        {
          "internalType": "uint256",
          "name": "",
          "type": "uint256"
        }
      ],
      "name": "batchContributions",
      "outputs": [
        {
          "internalType": "address",
          "name": "user",
          "type": "address"
        },
        {
          "internalType": "euint64",
          "name": "encryptedAmount",
          "type": "bytes32"
        }
      ],
      "stateMutability": "view",
      "type": "function"
    },
    {
      "inputs": [
        {
          "internalType": "uint256",
          "name": "",
          "type": "uint256"
        }
      ],
      "name": "batchResults",
      "outputs": [
        {
          "internalType": "uint256",
          "name": "batchId",
          "type": "uint256"
        },
        {
          "internalType": "uint256",
          "name": "totalAmountIn",
          "type": "uint256"
        },
        {
          "internalType": "uint256",
          "name": "totalAmountOut",
          "type": "uint256"
        },
        {
          "internalType": "uint256",
          "name": "priceAtExecution",
          "type": "uint256"
        },
        {
          "internalType": "uint256",
          "name": "participantCount",
          "type": "uint256"
        },
        {
          "internalType": "uint256",
          "name": "executedAt",
          "type": "uint256"
        },
        {
          "internalType": "bool",
          "name": "success",
          "type": "bool"
        }
      ],
      "stateMutability": "view",
      "type": "function"
    },
    {
      "inputs": [
        {
          "internalType": "bytes",
          "name": "checkData",
          "type": "bytes"
        }
      ],
      "name": "checkUpkeep",
      "outputs": [
        {
          "internalType": "bool",
          "name": "upkeepNeeded",
          "type": "bool"
        },
        {
          "internalType": "bytes",
          "name": "performData",
          "type": "bytes"
        }
      ],
      "stateMutability": "view",
      "type": "function"
    },
    {
      "inputs": [
        {
          "internalType": "address",
          "name": "token",
          "type": "address"
        },
        {
          "internalType": "uint256",
          "name": "amount",
          "type": "uint256"
        }
      ],
      "name": "emergencyWithdraw",
      "outputs": [],
      "stateMutability": "nonpayable",
      "type": "function"
    },
    {
      "inputs": [
        {
          "internalType": "address",
          "name": "",
          "type": "address"
        }
      ],
      "name": "encryptedEthBalances",
      "outputs": [
        {
          "internalType": "euint128",
          "name": "",
          "type": "bytes32"
        }
      ],
      "stateMutability": "view",
      "type": "function"
    },
    {
      "inputs": [
        {
          "internalType": "uint256",
          "name": "",
          "type": "uint256"
        }
      ],
      "name": "ethWithdrawalRequests",
      "outputs": [
        {
          "internalType": "uint256",
          "name": "requestId",
          "type": "uint256"
        },
        {
          "internalType": "address",
          "name": "user",
          "type": "address"
        },
        {
          "internalType": "uint256",
          "name": "timestamp",
          "type": "uint256"
        },
        {
          "internalType": "bool",
          "name": "processed",
          "type": "bool"
        }
      ],
      "stateMutability": "view",
      "type": "function"
    },
    {
      "inputs": [],
      "name": "fundPool",
      "outputs": [
        {
          "internalType": "contract IFundPool",
          "name": "",
          "type": "address"
        }
      ],
      "stateMutability": "view",
      "type": "function"
    },
    {
      "inputs": [
        {
          "internalType": "uint256",
          "name": "batchId",
          "type": "uint256"
        }
      ],
      "name": "getBatchResult",
      "outputs": [
        {
          "components": [
            {
              "internalType": "uint256",
              "name": "batchId",
              "type": "uint256"
            },
            {
              "internalType": "uint256",
              "name": "totalAmountIn",
              "type": "uint256"
            },
            {
              "internalType": "uint256",
              "name": "totalAmountOut",
              "type": "uint256"
            },
            {
              "internalType": "uint256",
              "name": "priceAtExecution",
              "type": "uint256"
            },
            {
              "internalType": "uint256",
              "name": "participantCount",
              "type": "uint256"
            },
            {
              "internalType": "uint256",
              "name": "executedAt",
              "type": "uint256"
            },
            {
              "internalType": "bool",
              "name": "success",
              "type": "bool"
            }
          ],
          "internalType": "struct BatchProcessor.BatchResult",
          "name": "result",
          "type": "tuple"
        }
      ],
      "stateMutability": "view",
      "type": "function"
    },
    {
      "inputs": [
        {
          "internalType": "address",
          "name": "user",
          "type": "address"
        }
      ],
      "name": "getUserScaledBalance",
      "outputs": [
        {
          "internalType": "euint128",
          "name": "",
          "type": "bytes32"
        }
      ],
      "stateMutability": "view",
      "type": "function"
    },
    {
      "inputs": [
        {
          "internalType": "address",
          "name": "user",
          "type": "address"
        }
      ],
      "name": "getUserWithdrawalStatus",
      "outputs": [
        {
          "internalType": "bool",
          "name": "usdcWithdrawing",
          "type": "bool"
        },
        {
          "internalType": "bool",
          "name": "ethWithdrawing",
          "type": "bool"
        },
        {
          "internalType": "uint256",
          "name": "usdcRequestId",
          "type": "uint256"
        },
        {
          "internalType": "uint256",
          "name": "ethRequestId",
          "type": "uint256"
        }
      ],
      "stateMutability": "view",
      "type": "function"
    },
    {
      "inputs": [],
      "name": "initiateUsdcWithdrawal",
      "outputs": [],
      "stateMutability": "nonpayable",
      "type": "function"
    },
    {
      "inputs": [],
      "name": "intentCollector",
      "outputs": [
        {
          "internalType": "contract IntentCollector",
          "name": "",
          "type": "address"
        }
      ],
      "stateMutability": "view",
      "type": "function"
    },
    {
      "inputs": [
        {
          "internalType": "address",
          "name": "",
          "type": "address"
        }
      ],
      "name": "isWithdrawing",
      "outputs": [
        {
          "internalType": "bool",
          "name": "",
          "type": "bool"
        }
      ],
      "stateMutability": "view",
      "type": "function"
    },
    {
      "inputs": [],
      "name": "lastProcessedBatch",
      "outputs": [
        {
          "internalType": "uint256",
          "name": "",
          "type": "uint256"
        }
      ],
      "stateMutability": "view",
      "type": "function"
    },
    {
      "inputs": [
        {
          "internalType": "uint256",
          "name": "batchId",
          "type": "uint256"
        }
      ],
      "name": "manualTriggerBatch",
      "outputs": [],
      "stateMutability": "nonpayable",
      "type": "function"
    },
    {
      "inputs": [
        {
          "internalType": "uint256",
          "name": "requestId",
          "type": "uint256"
        },
        {
          "internalType": "uint64",
          "name": "decryptedAmount",
          "type": "uint64"
        },
        {
          "internalType": "bytes[]",
          "name": "signatures",
          "type": "bytes[]"
        }
      ],
      "name": "onBatchDecrypted",
      "outputs": [],
      "stateMutability": "nonpayable",
      "type": "function"
    },
    {
      "inputs": [
        {
          "internalType": "uint256",
          "name": "requestId",
          "type": "uint256"
        },
        {
          "internalType": "uint128",
          "name": "scaledEthAmount",
          "type": "uint128"
        },
        {
          "internalType": "bytes[]",
          "name": "signatures",
          "type": "bytes[]"
        }
      ],
      "name": "onEthDecrypted",
      "outputs": [],
      "stateMutability": "nonpayable",
      "type": "function"
    },
    {
      "inputs": [
        {
          "internalType": "uint256",
          "name": "requestId",
          "type": "uint256"
        },
        {
          "internalType": "uint64",
          "name": "decryptedBalance",
          "type": "uint64"
        },
        {
          "internalType": "bytes[]",
          "name": "signatures",
          "type": "bytes[]"
        }
      ],
      "name": "onUsdcDecrypted",
      "outputs": [],
      "stateMutability": "nonpayable",
      "type": "function"
    },
    {
      "inputs": [],
      "name": "owner",
      "outputs": [
        {
          "internalType": "address",
          "name": "",
          "type": "address"
        }
      ],
      "stateMutability": "view",
      "type": "function"
    },
    {
      "inputs": [
        {
          "internalType": "uint256",
          "name": "",
          "type": "uint256"
        }
      ],
      "name": "pendingDecryptions",
      "outputs": [
        {
          "internalType": "uint256",
          "name": "batchId",
          "type": "uint256"
        },
        {
          "internalType": "uint256",
          "name": "currentPrice",
          "type": "uint256"
        },
        {
          "internalType": "uint256",
          "name": "timestamp",
          "type": "uint256"
        },
        {
          "internalType": "bool",
          "name": "processed",
          "type": "bool"
        }
      ],
      "stateMutability": "view",
      "type": "function"
    },
    {
      "inputs": [
        {
          "internalType": "bytes",
          "name": "performData",
          "type": "bytes"
        }
      ],
      "name": "performUpkeep",
      "outputs": [],
      "stateMutability": "nonpayable",
      "type": "function"
    },
    {
      "inputs": [],
      "name": "priceFeed",
      "outputs": [
        {
          "internalType": "contract IChainlinkAggregator",
          "name": "",
          "type": "address"
        }
      ],
      "stateMutability": "view",
      "type": "function"
    },
    {
      "inputs": [
        {
          "internalType": "uint256",
          "name": "",
          "type": "uint256"
        }
      ],
      "name": "priceHistory",
      "outputs": [
        {
          "internalType": "uint256",
          "name": "price",
          "type": "uint256"
        },
        {
          "internalType": "uint256",
          "name": "updatedAt",
          "type": "uint256"
        },
        {
          "internalType": "uint80",
          "name": "roundId",
          "type": "uint80"
        },
        {
          "internalType": "bool",
          "name": "isValid",
          "type": "bool"
        }
      ],
      "stateMutability": "view",
      "type": "function"
    },
    {
      "inputs": [],
      "name": "priceUpdateCounter",
      "outputs": [
        {
          "internalType": "uint256",
          "name": "",
          "type": "uint256"
        }
      ],
      "stateMutability": "view",
      "type": "function"
    },
    {
      "inputs": [
        {
          "internalType": "address",
          "name": "token",
          "type": "address"
        },
        {
          "internalType": "uint256",
          "name": "amount",
          "type": "uint256"
        }
      ],
      "name": "recoverToken",
      "outputs": [],
      "stateMutability": "nonpayable",
      "type": "function"
    },
    {
      "inputs": [],
      "name": "renounceOwnership",
      "outputs": [],
      "stateMutability": "nonpayable",
      "type": "function"
    },
    {
      "inputs": [
        {
          "internalType": "bool",
          "name": "enabled",
          "type": "bool"
        }
      ],
      "name": "setAutomationEnabled",
      "outputs": [],
      "stateMutability": "nonpayable",
      "type": "function"
    },
    {
      "inputs": [
        {
          "internalType": "address",
          "name": "_fundPool",
          "type": "address"
        }
      ],
      "name": "setFundPool",
      "outputs": [],
      "stateMutability": "nonpayable",
      "type": "function"
    },
    {
      "inputs": [
        {
          "internalType": "address",
          "name": "newOwner",
          "type": "address"
        }
      ],
      "name": "transferOwnership",
      "outputs": [],
      "stateMutability": "nonpayable",
      "type": "function"
    },
    {
      "inputs": [],
      "name": "uniswapRouter",
      "outputs": [
        {
          "internalType": "contract IUniswapV3Router",
          "name": "",
          "type": "address"
        }
      ],
      "stateMutability": "view",
      "type": "function"
    },
    {
      "inputs": [],
      "name": "usdcToken",
      "outputs": [
        {
          "internalType": "contract IERC20",
          "name": "",
          "type": "address"
        }
      ],
      "stateMutability": "view",
      "type": "function"
    },
    {
      "inputs": [
        {
          "internalType": "uint256",
          "name": "",
          "type": "uint256"
        }
      ],
      "name": "usdcWithdrawalRequests",
      "outputs": [
        {
          "internalType": "uint256",
          "name": "requestId",
          "type": "uint256"
        },
        {
          "internalType": "address",
          "name": "user",
          "type": "address"
        },
        {
          "internalType": "uint256",
          "name": "timestamp",
          "type": "uint256"
        },
        {
          "internalType": "bool",
          "name": "processed",
          "type": "bool"
        }
      ],
      "stateMutability": "view",
      "type": "function"
    },
    {
      "inputs": [],
      "name": "wethAddress",
      "outputs": [
        {
          "internalType": "address",
          "name": "",
          "type": "address"
        }
      ],
      "stateMutability": "view",
      "type": "function"
    },
    {
      "inputs": [],
      "name": "withdrawEth",
      "outputs": [],
      "stateMutability": "nonpayable",
      "type": "function"
    },
    {
      "stateMutability": "payable",
      "type": "receive"
    }
  ],
  "bytecode": "0x610120346200035057601f62004a6938819003918201601f1916830191906001600160401b0383118484101762000354578160c092859260409586528339810103126200035057620000518262000388565b6200005f6020840162000388565b6200006c83850162000388565b6200007a6060860162000388565b916200009760a06200008f6080890162000388565b970162000388565b935f6060620000a562000368565b82815282602082015282898201520152620000bf62000368565b7350157cffd6bbfa2dece204a89ec419c23ef5755d80825273cd3ab3bd6bcc0c0bf3e27912a92043e817b1cf6960208301819052731364cbbf2cdf5032c47d8226a6f6fbd2afcdacac89840181905273901f8942346f7ab3a01f6d7613119bca447bb03060609094018490527fed8d60e34876f751cc8b014c560745351147d9de11b9347c854e881b128ea60080546001600160a01b031990811690941790557fed8d60e34876f751cc8b014c560745351147d9de11b9347c854e881b128ea601805484169092179091557fed8d60e34876f751cc8b014c560745351147d9de11b9347c854e881b128ea6028054831690911790557fed8d60e34876f751cc8b014c560745351147d9de11b9347c854e881b128ea603805482169092179091557f5ea69329017273582817d320489fbd94f775580e90c092699ca6f3d12fdf7d008054821673a02cda4ca3a71d7c46997716f4283aa851c28812179055956001600160a01b039586169081156200033a578694939192838680959381945f549c8d16175f55519a167f8be0079c531659141344cd1fd0a4f28419497f9722a3daafe3b4186f6b6457e05f80a360018055166080521660a0521660c0521660e052610100918252600160ff1960055416176005556146cb91826200039e83396080518281816105e20152818161097e0152818161181d015281816121f80152818161254801528181612d9301528181612eab01528181612fc3015281816130d9015281816136a00152613932015260a05182818161111f0152818161225501526125fa015260c0518281816110dc01526132d5015260e05182818161059f01528181610d77015261326a015251818181610b38015261336f0152f35b51631e4fbdf760e01b81525f6004820152602490fd5b5f80fd5b634e487b7160e01b5f52604160045260245ffd5b60405190608082016001600160401b038111838210176200035457604052565b51906001600160a01b0382168203620003505756fe6080604052600436101561001a575b3615610018575f80fd5b005b5f3560e01c8063029c470e146102e457806307826d51146102df5780630eb8baa1146102da57806311eac855146102d5578063198ab791146102d05780631ab2b5d8146102355780632b3ba681146102cb5780632c8022e1146102c65780632ccf360d146102c15780634585e33b146102bc5780634c203786146102b75780634c98c150146102b25780634f0e0ef3146102ad57806355002b75146102a8578063553c1a76146102a357806356b29ea21461029e5780635f48a6631461029957806367f63bae146102945780636e04ff0d1461028f5780636ebdff2c1461028a57806370f37d2714610285578063715018a614610280578063735de9f71461027b578063741bef1a1461027657806379e6662214610271578063842140171461026c57806388da2b2d146102675780638da5cb5b146102625780638eb4791a1461025d578063905eb22e1461025857806395ccea67146102535780639f589c471461024e578063a0ef91df14610249578063a3a06e1414610244578063b27a04841461023f578063b29a81401461023a578063cb72f91214610235578063cc7bc5d914610230578063d966a5941461022b578063dd1b9c4a14610226578063ed095b8414610221578063ef4cadc51461021c578063f25b9caa14610217578063f2fde38b146102125763f7c8eac70361000e57611c09565b611b82565b611b66565b611b44565b611b03565b611ae7565b611ac5565b611a6b565b61062e565b61193b565b6118e0565b6117ed565b6116b7565b6113cb565b61128f565b611253565b611236565b611211565b6111a1565b611186565b61114d565b611100565b6110bd565b611066565b611040565b610fb2565b610f7b565b610eec565b610eb0565b610bd4565b610bb7565b610b5c565b610b19565b610aa8565b610a8d565b610938565b6107f8565b610690565b61066a565b6105c3565b610580565b61050b565b610314565b6102f7565b5f9103126102f357565b5f80fd5b346102f3575f3660031901126102f3576020604051620186a08152f35b346102f3575f3660031901126102f35761032c6123fa565b61035161034a336001600160a01b03165f52600b60205260405f2090565b5460ff1690565b6104ea57335f908152600d60205260409020546104ea5761039c6001600160a01b036103946103886002546001600160a01b031690565b6001600160a01b031690565b161515611c26565b6103c76103ba336001600160a01b03165f52600b60205260405f2090565b805460ff19166001179055565b6103dc6103886002546001600160a01b031690565b60405163100b713960e21b815233600482015290602090829060249082905afa80156104e557610426915f916104b6575b50610416611dc9565b9061042082611de3565b5261289e565b61045d610431611d13565b8281523360208201524260408201525f6060820152610458835f52600c60205260405f2090565b611e09565b80610479336001600160a01b03165f52600d60205260405f2090565b5560405142815233907f602e7b2cc16a811b76692f5afa8c9d846224112b1ef13e72f7e98499ec49deb49080602081015b0390a361001860018055565b6104d8915060203d6020116104de575b6104d08183611cd7565b810190611cf9565b5f61040d565b503d6104c6565b611d08565b604051632a290aa960e01b8152600490fd5b908160209103126102f3573590565b346102f35760203660031901126102f3576004355f52600c60205260405f20805461057c6001600160a01b036001840154169260ff60036002830154920154169060405194859485926001600160a01b03606093969592966080860197865216602085015260408401521515910152565b0390f35b346102f3575f3660031901126102f35760206040516001600160a01b037f0000000000000000000000000000000000000000000000000000000000000000168152f35b346102f3575f3660031901126102f35760206040516001600160a01b037f0000000000000000000000000000000000000000000000000000000000000000168152f35b6001600160a01b038116036102f357565b6001600160a01b03165f52600b60205260405f2090565b346102f35760203660031901126102f3576001600160a01b0360043561065381610606565b165f526009602052602060405f2054604051908152f35b346102f3575f3660031901126102f35760206040516b033b2e3c9fd0803ce80000008152f35b346102f35760203660031901126102f35761057c60405f60c082516106b481611c86565b82815282602082015282848201528260608201528260808201528260a082015201526004355f526003602052805f209061073860ff60068351946106f786611c86565b80548652600181015460208701526002810154858701526003810154606087015260048101546080870152600581015460a0870152015416151560c0840152565b519182918291909160c08060e0830194805184526020810151602085015260408101516040850152606081015160608501526080810151608085015260a081015160a085015201511515910152565b9181601f840112156102f35782359167ffffffffffffffff83116102f3576020808501948460051b0101116102f357565b60606003198201126102f3576004359167ffffffffffffffff60243581811681036102f357926044359182116102f3576107f491600401610787565b9091565b346102f35761081f61081961080c366107b8565b9492949391933691611e82565b8361241d565b815f52600860205260405f2090600582019260ff8454166108a95761084d610018946103ba85541515611f2b565b60405167ffffffffffffffff831681527ffd31de4bda66b2edfcb212e63d9fe0e36c91ade9a760dd29d2afbafb1b8795b290602090a281546003830154926108a3600261089c60018401611f77565b9201611f77565b916124ff565b60405162461bcd60e51b815260206004820152601c60248201527f44656372797074696f6e20616c72656164792070726f636573736564000000006044820152606490fd5b9060206003198301126102f35760043567ffffffffffffffff928382116102f357806023830112156102f35781600401359384116102f357602484830101116102f3576024019190565b346102f357610946366108ee565b9061095a61095660055460ff1690565b1590565b610a7b5761096a918101906104fc565b6040516307757e2160e41b81525f816004817f00000000000000000000000000000000000000000000000000000000000000006001600160a01b03165afa9081156104e55782905f905f93610a54575b5014801590610a48575b610a365781610018927f56ac93fd47f15da210aa3b94cd30ab893c2ff7b69d5bf1ef2325fcb4d9bca73f60405180610a2e8160609060208152601460208201527f436861696e6c696e6b204175746f6d6174696f6e00000000000000000000000060408201520190565b0390a26125bc565b604051634e10775b60e01b8152600490fd5b506004548211156109c4565b9050610a739192503d805f833e610a6b8183611cd7565b810190612026565b91905f6109ba565b604051634c9136e360e01b8152600490fd5b346102f3575f3660031901126102f357602060405160c88152f35b346102f35760203660031901126102f3576004355f52600e60205260405f20805461057c6001600160a01b036001840154169260ff60036002830154920154169060405194859485926001600160a01b03606093969592966080860197865216602085015260408401521515910152565b346102f3575f3660031901126102f35760206040516001600160a01b037f0000000000000000000000000000000000000000000000000000000000000000168152f35b346102f35760203660031901126102f3576001600160a01b03600435610b8181610606565b165f52600d602052608060405f2054600f60205260405f2054604051918015158352811515602084015260408301526060820152f35b346102f3575f3660031901126102f35760206040516207a1208152f35b346102f357610bfd610c0b610bf7610beb366107b8565b95929391953691611e82565b8261241d565b5f52600c60205260405f2090565b90610c6267ffffffffffffffff610c5260016003860195610c38610c33610956895460ff1690565b612057565b610c4481541515611f2b565b01546001600160a01b031690565b921692600160ff19825416179055565b5f610c7e826001600160a01b03165f52600d60205260405f2090565b5581610cf2575b6001600160a01b0381610cd7610ccd7f2995e351759a5cf0f8e558d435876f3e80f61d1ad1a0d32320654739cc708335946001600160a01b03165f52600b60205260405f2090565b805460ff19169055565b6040805194855242602086015291169290819081015b0390a2005b610d076103886002546001600160a01b031690565b803b156102f3576040516311ffc57760e11b815260048101849052905f908290602490829084905af180156104e557610e97575b5060405163a9059cbb60e01b81526001600160a01b038216600482015260248101839052906020908183806044810103815f6001600160a01b037f0000000000000000000000000000000000000000000000000000000000000000165af19283156104e5575f93610db3918591610e7a575b506120c3565b81610e07610dcc6103886002546001600160a01b031690565b610dd587613f69565b6040516279bb4560e11b81526001600160a01b0386166004820152602481019190915295869283919082906044820190565b03925af19182156104e5577f2995e351759a5cf0f8e558d435876f3e80f61d1ad1a0d32320654739cc708335936001600160a01b0393610e4c575b5050915050610c85565b81610e6b92903d10610e73575b610e638183611cd7565b8101906120ae565b505f80610e42565b503d610e59565b610e919150843d8611610e7357610e638183611cd7565b5f610dad565b80610ea4610eaa92611ca7565b806102e9565b5f610d3b565b346102f35760203660031901126102f3576001600160a01b03600435610ed581610606565b165f52600d602052602060405f2054604051908152f35b346102f35760203660031901126102f3576004355f526008602052608060405f2080549060038101549060ff6005600483015492015416916040519384526020840152604083015215156060820152f35b91908251928382525f5b848110610f67575050825f602080949584010152601f8019910116010190565b602081830181015184830182015201610f47565b346102f357610f89366108ee565b5050610f936121c3565b9061057c60405192839215158352604060208401526040830190610f3d565b346102f35760203660031901126102f3576001600160a01b03600435610fd781610606565b610fdf612720565b168015610ffb576001600160a01b031960025416176002555f80f35b60405162461bcd60e51b815260206004820152601160248201527f496e76616c69642066756e6420706f6f6c0000000000000000000000000000006044820152606490fd5b346102f3575f3660031901126102f35760206001600160a01b0360025416604051908152f35b346102f3575f3660031901126102f35761107e612720565b5f6001600160a01b0381546001600160a01b031981168355167f8be0079c531659141344cd1fd0a4f28419497f9722a3daafe3b4186f6b6457e08280a3005b346102f3575f3660031901126102f35760206040516001600160a01b037f0000000000000000000000000000000000000000000000000000000000000000168152f35b346102f3575f3660031901126102f35760206040516001600160a01b037f0000000000000000000000000000000000000000000000000000000000000000168152f35b801515036102f357565b346102f35760203660031901126102f35760043561116a81611143565b611172612720565b60ff80196005541691151516176005555f80f35b346102f3575f3660031901126102f357602060405160328152f35b346102f35760203660031901126102f3576004355f52600360205260e060405f208054906001810154906002810154600382015460048301549160ff600660058601549501541694604051968752602087015260408601526060850152608084015260a0830152151560c0820152f35b346102f3575f3660031901126102f35760206001600160a01b035f5416604051908152f35b346102f3575f3660031901126102f3576020600454604051908152f35b346102f35760203660031901126102f3576001600160a01b0360043561127881610606565b165f52600f602052602060405f2054604051908152f35b346102f35760403660031901126102f3576004356112ac81610606565b6001600160a01b03602435916112c0612720565b16908161132557610ced816113155f8080807f5fafa99d0643513820be26656b45130b01e1c03062e1266bf36f88cbd3bd96959761130582546001600160a01b031690565b5af161130f61235a565b50612389565b6040519081529081906020820190565b80602061136e9261133d5f546001600160a01b031690565b60405163a9059cbb60e01b81526001600160a01b039091166004820152602481019190915292839081906044820190565b03815f875af19081156104e5577f5fafa99d0643513820be26656b45130b01e1c03062e1266bf36f88cbd3bd969592610ced926113ac575b50611315565b6113c49060203d602011610e7357610e638183611cd7565b505f6113a6565b346102f35760603660031901126102f357600435602435906fffffffffffffffffffffffffffffffff82168092036102f3576044359067ffffffffffffffff82116102f35761142e610bf761142761143c943690600401610787565b3691611e82565b5f52600e60205260405f2090565b9061146961145b60016003850194610c38610c33610956885460ff1690565b835460ff1916600117909355565b5f611485836001600160a01b03165f52600f60205260405f2090565b55801561166a576b033b2e3c9fd0803ce800000081049081471061163a576114ab613fd2565b6114c6846001600160a01b03165f52600960205260405f2090565b556114eb6114e5846001600160a01b03165f52600960205260405f2090565b5461274b565b506115118361150b816001600160a01b03165f52600960205260405f2090565b5461415a565b5f80808085875af161152161235a565b501561158b57506040805191825242602083015261001892610ccd9290916001600160a01b038316917fd81ee00430fb7a9bd4c72dd614a449dc0f51f5f28b9996167fd583fcc3a98b3191819081015b0390a26001600160a01b03165f52600b60205260405f2090565b610ccd8361159b6115f593614020565b6115b6826001600160a01b03165f52600960205260405f2090565b556115d56114e5826001600160a01b03165f52600960205260405f2090565b506106178161150b816001600160a01b03165f52600960205260405f2090565b60405162461bcd60e51b815260206004820152601360248201527f455448207472616e73666572206661696c6564000000000000000000000000006044820152606490fd5b611658610ccd846001600160a01b03165f52600b60205260405f2090565b604051631e9acf1760e31b8152600490fd5b50610ccd610018916040517fd81ee00430fb7a9bd4c72dd614a449dc0f51f5f28b9996167fd583fcc3a98b316001600160a01b038316918061157142829190602060408401935f81520152565b346102f3575f3660031901126102f3576116cf6123fa565b6116ed61034a336001600160a01b03165f52600b60205260405f2090565b6104ea57335f908152600f60205260409020546104ea5761176a611722336001600160a01b03165f52600960205260405f2090565b5461173461172f82612755565b6123ae565b6117526103ba336001600160a01b03165f52600b60205260405f2090565b61175a611dc9565b9061176482611de3565b52612a04565b61179c611775611d13565b8281523360208201524260408201525f6060820152610458835f52600e60205260405f2090565b806117b8336001600160a01b03165f52600f60205260405f2090565b5560405142815233907f37323593a592af5e26a9898110fda42c2ff4d8e3ebc45e0e2f1b569d36e640599080602081016104aa565b346102f35760203660031901126102f357600435611809612720565b6040516307757e2160e41b81525f816004817f00000000000000000000000000000000000000000000000000000000000000006001600160a01b03165afa9081156104e55782905f905f936118c1575b5003610a365781610018927f56ac93fd47f15da210aa3b94cd30ab893c2ff7b69d5bf1ef2325fcb4d9bca73f606060405160208152600e60208201527f4d616e75616c20547269676765720000000000000000000000000000000000006040820152a26125bc565b90506118d89192503d805f833e610a6b8183611cd7565b91905f611859565b346102f35760203660031901126102f3576004355f526006602052608060405f2060ff8154916002600182015491015490604051938452602084015269ffffffffffffffffffff8116604084015260501c1615156060820152f35b346102f35760403660031901126102f35760043561195881610606565b6001600160a01b036024359161196c612720565b169081156119f45780602061198c9261133d5f546001600160a01b031690565b03815f875af19081156104e5577f5fafa99d0643513820be26656b45130b01e1c03062e1266bf36f88cbd3bd969592610ced926119d5575b506040519081529081906020820190565b6119ed9060203d602011610e7357610e638183611cd7565b505f6119c4565b60405162461bcd60e51b815260206004820152601560248201527f496e76616c696420746f6b656e206164647265737300000000000000000000006044820152606490fd5b634e487b7160e01b5f52603260045260245ffd5b8054821015611a66575f5260205f209060011b01905f90565b611a39565b346102f35760403660031901126102f3576024356004355f52600a60205260405f209081548110156102f357611aa091611a4d565b508054600190910154604080516001600160a01b039093168352602083019190915290f35b346102f3575f3660031901126102f357602060ff600554166040519015158152f35b346102f3575f3660031901126102f3576020604051610bb88152f35b346102f35760203660031901126102f3576001600160a01b03600435611b2881610606565b165f52600b602052602060ff60405f2054166040519015158152f35b346102f3575f3660031901126102f3576020604051670de0b6b3a76400008152f35b346102f3575f3660031901126102f3576020604051610e108152f35b346102f35760203660031901126102f357600435611b9f81610606565b611ba7612720565b6001600160a01b03809116908115611bf1575f54826001600160a01b03198216175f55167f8be0079c531659141344cd1fd0a4f28419497f9722a3daafe3b4186f6b6457e05f80a3005b604051631e4fbdf760e01b81525f6004820152602490fd5b346102f3575f3660031901126102f3576020600754604051908152f35b15611c2d57565b60405162461bcd60e51b815260206004820152601760248201527f46756e64506f6f6c206e6f7420636f6e666967757265640000000000000000006044820152606490fd5b634e487b7160e01b5f52604160045260245ffd5b60e0810190811067ffffffffffffffff821117611ca257604052565b611c72565b67ffffffffffffffff8111611ca257604052565b6040810190811067ffffffffffffffff821117611ca257604052565b90601f8019910116810190811067ffffffffffffffff821117611ca257604052565b908160209103126102f3575190565b6040513d5f823e3d90fd5b604051906080820182811067ffffffffffffffff821117611ca257604052565b60405190611d4082611c86565b565b60405190610100820182811067ffffffffffffffff821117611ca257604052565b60405190610160820182811067ffffffffffffffff821117611ca257604052565b60405190611d4082611cbb565b6040519060c0820182811067ffffffffffffffff821117611ca257604052565b67ffffffffffffffff8111611ca25760051b60200190565b60405190611dd682611cbb565b6001825260203681840137565b805115611a665760200190565b8051821015611a665760209160051b010190565b600455565b60036060611d409380518455611e456001600160a01b0360208301511660018601906001600160a01b03166001600160a01b0319825416179055565b604081015160028501550151151591019060ff801983541691151516179055565b67ffffffffffffffff8111611ca257601f01601f191660200190565b92919092611e8f84611db1565b91604094611ea06040519485611cd7565b839581855260208095019160051b8401938385116102f35780925b858410611ecb5750505050505050565b833567ffffffffffffffff81116102f357820185601f820112156102f357803591611ef583611e66565b611f0186519182611cd7565b838152878a85850101116102f3575f8a858196828097018386013783010152815201930192611ebb565b15611f3257565b60405162461bcd60e51b815260206004820152601260248201527f496e76616c6964207265717565737420494400000000000000000000000000006044820152606490fd5b90604051918281549182825260209260208301915f5260205f20935f905b828210611fab57505050611d4092500383611cd7565b855484526001958601958895509381019390910190611f95565b9080601f830112156102f357815190602091611fe081611db1565b93611fee6040519586611cd7565b81855260208086019260051b8201019283116102f357602001905b828210612017575050505090565b81518152908301908301612009565b9190916040818403126102f357805192602082015167ffffffffffffffff81116102f3576120549201611fc5565b90565b1561205e57565b60405162461bcd60e51b815260206004820152601c60248201527f5769746864726177616c20616c72656164792070726f636573736564000000006044820152606490fd5b5190611d4082611143565b908160209103126102f3575161205481611143565b156120ca57565b60405162461bcd60e51b815260206004820152601460248201527f55534443207472616e73666572206661696c65640000000000000000000000006044820152606490fd5b604051906020820182811067ffffffffffffffff821117611ca2576040525f8252565b91908260409103126102f3576020825161214b81611143565b92015190565b519069ffffffffffffffffffff821682036102f357565b908160a09103126102f35761217c81612151565b91602082015191604081015191612054608060608401519301612151565b634e487b7160e01b5f52601160045260245ffd5b610e0f198101919082116121be57565b61219a565b5f906060906121d761095660055460ff1690565b61234d5760408051633985618160e01b81526001600160a01b0382826004817f000000000000000000000000000000000000000000000000000000000000000085165afa9182156104e5575f905f9361231b575b5080612310575b61223b57505050565b60a0600491849795975192838092633fabe5a360e21b82527f0000000000000000000000000000000000000000000000000000000000000000165afa90815f915f936122d8575b506122905750505050505f91565b5f909694961390816122c6575b506122a6575050565b905160208082019290925290815260019350909150612054604082611cd7565b90506122d1426121ae565b105f61229d565b9092506122fd915060a03d60a011612309575b6122f58183611cd7565b810190612168565b5092505090915f612282565b503d6122eb565b506004548211612232565b905061233e919250833d8511612346575b6123368183611cd7565b810190612132565b91905f61222b565b503d61232c565b9150505f9061205461210f565b3d15612384573d9061236b82611e66565b916123796040519384611cd7565b82523d5f602084013e565b606090565b156115f557565b811561239a570490565b634e487b7160e01b5f52601260045260245ffd5b156123b557565b60405162461bcd60e51b815260206004820152601c60248201527f496e73756666696369656e7420464845207065726d697373696f6e73000000006044820152606490fd5b60026001541461240b576002600155565b604051633ee5aeb560e01b8152600490fd5b90815f527f5ea69329017273582817d320489fbd94f775580e90c092699ca6f3d12fdf7d026020908060205260405f2054156124ed57835f5260205260405f206040519182602083549182815201925f5260205f20915f905b8282106124d6575050505091816124956109569361249a950382611cd7565b612bc3565b6124c4577f1af0453083661051f6e56e5c070792320652e612154bf9af8637bb1e7655b99d5f80a2565b60405163cf6c44e960e01b8152600490fd5b835485529384019360019384019390910190612476565b60405163d66ca67560e01b8152600490fd5b9267ffffffffffffffff169384156125af578461251f8261253e9761321b565b9081156125a15784612536878484611e0499613670565b519386612f6a565b6001600160a01b037f000000000000000000000000000000000000000000000000000000000000000016803b156102f3575f8091600460405180948193631ef76deb60e01b83525af180156104e5576125945750565b80610ea4611d4092611ca7565b9050611e0493519285612e58565b91611d4094505192612d36565b906125ce916125c96123fa565b6125d4565b60018055565b6125dc61389e565b91604051633fabe5a360e21b815260a0816004816001600160a01b037f0000000000000000000000000000000000000000000000000000000000000000165afa5f90805f935f926126f8575b50612689575050505f60608401525b6126476109566060850151151590565b61267757612656835182613921565b9181511561266957611d40945193613d8b565b915050611d40925191613083565b60405163f45e167b60e01b8152600490fd5b909192945f8413806126e7575b156126d65750906126c991620f42406126ad611d13565b94048452602084015269ffffffffffffffffffff166040830152565b6001606082015291612637565b5f6060820152949250612637915050565b506126f1426121ae565b8211612696565b91509250612715915060a03d60a011612309576122f58183611cd7565b50919390505f612628565b6001600160a01b035f5416330361273357565b60405163118cdaa760e01b8152336004820152602490fd5b612054308261415a565b7fed8d60e34876f751cc8b014c560745351147d9de11b9347c854e881b128ea600546040516382027b6d60e01b81526004810192909252336024830152602090829060449082906001600160a01b03165afa9081156104e5575f916127b8575090565b612054915060203d602011610e7357610e638183611cd7565b9081518082526020808093019301915f5b8281106127f0575050505090565b8351855293810193928101926001016127e2565b9060206120549281815201906127d1565b929161282e9184526060602085015260608401906127d1565b916040632b594f5160e11b910152565b92916128579184526060602085015260608401906127d1565b916040639f589c4760e01b910152565b92916128809184526060602085015260608401906127d1565b916040632ccf360d60e01b910152565b5f1981146121be5760010190565b907f5ea69329017273582817d320489fbd94f775580e90c092699ca6f3d12fdf7d01918254926128fb6103886103887fed8d60e34876f751cc8b014c560745351147d9de11b9347c854e881b128ea600546001600160a01b031690565b803b156102f3575f6040518092637d6e912360e11b82528183816129228960048301612804565b03925af180156104e5576129f1575b506129696103886103887f5ea69329017273582817d320489fbd94f775580e90c092699ca6f3d12fdf7d00546001600160a01b031690565b90813b156102f3575f6040518093633263b83b60e01b8252818381612992898c60048401612815565b03925af180156104e557611d40936129ba936129b4926129de575b50866141d4565b54612890565b7f5ea69329017273582817d320489fbd94f775580e90c092699ca6f3d12fdf7d0155565b80610ea46129eb92611ca7565b5f6129ad565b80610ea46129fe92611ca7565b5f612931565b907f5ea69329017273582817d320489fbd94f775580e90c092699ca6f3d12fdf7d0191825492612a616103886103887fed8d60e34876f751cc8b014c560745351147d9de11b9347c854e881b128ea600546001600160a01b031690565b803b156102f3575f6040518092637d6e912360e11b8252818381612a888960048301612804565b03925af180156104e557612af8575b50612acf6103886103887f5ea69329017273582817d320489fbd94f775580e90c092699ca6f3d12fdf7d00546001600160a01b031690565b90813b156102f3575f6040518093633263b83b60e01b8252818381612992898c6004840161283e565b80610ea4612b0592611ca7565b5f612a97565b90612b1582611e66565b612b226040519182611cd7565b8281528092612b33601f1991611e66565b0190602036910137565b9190612b54612b63916060855260608501906127d1565b60209284820384860152610f3d565b9160408184039101528251908183528083019281808460051b8301019501935f915b848310612b955750505050505090565b9091929394958480612bb3600193601f198682030187528a51610f3d565b9801930193019194939290612b85565b80515f905f905b808210612c5e57505091602091612be3612c49946131f0565b612bec81612b0b565b906024858301375f612c2b6103886103887fed8d60e34876f751cc8b014c560745351147d9de11b9347c854e881b128ea602546001600160a01b031690565b9260405196879586948593632c027b1360e21b855260048501612b3d565b03925af19081156104e5575f916127b8575090565b90916009612c6c8486611df0565b51601e1a612c7981613f4b565b612c8281613f4b565b1015612c9b57612c936001916131f0565b920190612bca565b60405163ce54a8d160e01b8152600490fd5b600660c0611d4093805184556020810151600185015560408101516002850155606081015160038501556080810151600485015560a081015160058501550151151591019060ff801983541691151516179055565b91906020612d1a6001926040865260408601906127d1565b930152565b91906020612d1a5f926040865260408601906127d1565b929091612d89612d44611d33565b8581525f60208201525f60408201528260608201528360808201524260a0820152612d7260c0820160019052565b612d84865f52600360205260405f2090565b612cad565b6001600160a01b037f000000000000000000000000000000000000000000000000000000000000000016803b156102f35760405163ce1b696360e01b8152935f918591829084908290612ddf9060048301612d02565b03925af19283156104e5577f2cbee46d0f54ed472c250204a5aed9f2b9668d5b5e47f01ca874d374534bd2e493612e45575b50612e4060405192839283608090600192949360a08201955f83525f6020840152604083015260608201520152565b0390a2565b80610ea4612e5292611ca7565b5f612e11565b9392919092612ea1612e68611d33565b8681528360208201525f60408201528460608201528260808201524260a08201525f60c0820152612d84875f52600360205260405f2090565b6001600160a01b037f000000000000000000000000000000000000000000000000000000000000000016803b156102f35760405163ce1b696360e01b8152945f918691829084908290612ef79060048301612d1f565b03925af19081156104e5577f2cbee46d0f54ed472c250204a5aed9f2b9668d5b5e47f01ca874d374534bd2e494612e4092612f57575b506040519384938460809194935f9360a08301968352846020840152604083015260608201520152565b80610ea4612f6492611ca7565b5f612f2d565b94939093612fb9612f79611d33565b8781528460208201528560408201528360608201528260808201524260a0820152612fa760c0820160019052565b612d84885f52600360205260405f2090565b6001600160a01b037f000000000000000000000000000000000000000000000000000000000000000016803b156102f35760405163ce1b696360e01b8152955f91879182908490829061300f9060048301612d02565b03925af19182156104e5577f2cbee46d0f54ed472c250204a5aed9f2b9668d5b5e47f01ca874d374534bd2e495612e4093613070575b506040519485948590949360019360809360a084019784526020840152604083015260608201520152565b80610ea461307d92611ca7565b5f613045565b916130cf61308f611d33565b8481525f60208201525f60408201528260608201525f60808201524260a08201526130bd60c0820160019052565b612d84855f52600360205260405f2090565b6001600160a01b037f000000000000000000000000000000000000000000000000000000000000000016803b156102f35760405163ce1b696360e01b8152925f9184918290849082906131259060048301612d02565b03925af19081156104e5577f2cbee46d0f54ed472c250204a5aed9f2b9668d5b5e47f01ca874d374534bd2e492612e4092613188575b5060405191829182608060019193929360a08101945f82525f602083015260408201525f60608201520152565b80610ea461319592611ca7565b5f61315b565b90670de0b6b3a7640000918281029281840414901517156121be57565b906b033b2e3c9fd0803ce8000000918281029281840414901517156121be57565b90612648918281029281840414901517156121be57565b90602082018092116121be57565b9061012c82018092116121be57565b90600182018092116121be57565b8015613555576132366103886002546001600160a01b031690565b926001600160a01b039384811661350e575b50604080516370a0823160e01b815230600480830191909152959193916020917f00000000000000000000000000000000000000000000000000000000000000008216908381602481855afa80156104e55785915f916134f1575b50106134e157908392916132d26132ca6132c58a6132c08861319b565b612390565b6131d9565b612710900490565b917f00000000000000000000000000000000000000000000000000000000000000001683818b6133298b51998a93849363095ea7b360e01b85528401602090939291936001600160a01b0360408201951681520152565b03815f865af19283156104e5576134349685946134c4575b5061334b426131fe565b613365613356611d42565b6001600160a01b039095168552565b6001600160a01b037f00000000000000000000000000000000000000000000000000000000000000001684860152610bb8848b015230606085015260808401528560a084015260c08301525f60e0830152895f895180988195829463414bf38960e01b8452830191909160e0610100820193816001600160a01b039182815116855282602082015116602086015262ffffff60408201511660408601528260608201511660608601526080810151608086015260a081015160a086015260c081015160c0860152015116910152565b03925af19283915f946134a5575b505061345857835163081ceff360e41b81528690fd5b612e407fabed9c2bf91a3043c0b147978b27b3272de63d4ccdcbcb8ba15ff32b078c5be3939561348984985461320d565b9551938493846040919493926060820195825260208201520152565b6134bc929450803d106104de576104d08183611cd7565b915f80613442565b6134da90853d8711610e7357610e638183611cd7565b505f613341565b8551631e9acf1760e31b81528890fd5b6135089150853d87116104de576104d08183611cd7565b5f6132a3565b803b156102f3576040516311ffc57760e11b815260048101849052905f908290602490829084905af180156104e557156132485780610ea461354f92611ca7565b5f613248565b50505f90565b5190611d4082610606565b90816101609103126102f35761357a611d63565b90805182526020810151602083015260408101516040830152606081015160608301526080810151608083015260a081015160a08301526135bd60c0820161355b565b60c083015260e081015160e083015261010080820151908301526101206135e58183016120a3565b908301526135f76101408092016120a3565b9082015290565b805468010000000000000000811015611ca25761362091600182018155611a4d565b91909161365d576020816136566001600160a01b03600194511685906001600160a01b03166001600160a01b0319825416179055565b0151910155565b634e487b7160e01b5f525f60045260245ffd5b93909291938051158015613896575b61388f57613693846132c0879694966131b8565b935f926001600160a01b037f000000000000000000000000000000000000000000000000000000000000000016966fffffffffffffffffffffffffffffffff8716945b845181101561383c576136e98186611df0565b516040805163906e277b60e01b815260048101929092529091906101609081846024818f5afa9081156104e557600194613807935f9361380d575b505060c08201516001600160a01b03169101516137766137556137468361443c565b61374f8d614020565b906142ae565b613770846001600160a01b03165f52600960205260405f2090565b546142dd565b613791836001600160a01b03165f52600960205260405f2090565b556137b06114e5836001600160a01b03165f52600960205260405f2090565b506137d08261150b816001600160a01b03165f52600960205260405f2090565b6137e28b5f52600a60205260405f2090565b906137fd6137ee611d84565b6001600160a01b039094168452565b60208301526135fe565b016136d6565b61382d929350803d10613835575b6138258183611cd7565b810190613566565b905f80613724565b503d61381b565b5092612e409297507f1efc972212596274bc610401ed4fd54ce55e54df742b5bc00a417da30e281a9295969194505192604051948594859094939260609260808301968352602083015260408201520152565b5092505050565b50831561367f565b604051906080820182811067ffffffffffffffff821117611ca2576040525f6060838281528260208201528260408201520152565b906020828203126102f357815167ffffffffffffffff81116102f3576120549201611fc5565b9061390382611db1565b6139106040519182611cd7565b8281528092612b33601f1991611db1565b9190916139716001600160a01b03807f000000000000000000000000000000000000000000000000000000000000000016905f604094604051809581926396ea8d6960e01b835260048301612804565b0381855afa9283156104e5575f93613bf4575b5061398f83516138f9565b955f916139ad67ffffffffffffffff6139a6614070565b9316613f69565b945f935b8151851015613bb4576139c48583611df0565b51885163906e277b60e01b815260048101829052956101609290919083886024818c5afa9687156104e5578b988e955f99613b95575b505060c088018b613a1861034a61061784516001600160a01b031690565b613b8557610388613a7f613a5b8c613a4d819f6103889f613a8d97613a3c9161430c565b920151613a476140be565b906143ea565b613a55614070565b9161464b565b8095613a7160029e8f546001600160a01b031690565b8d8116613b75575b50614413565b9a546001600160a01b031690565b90888216613af5575b505050613ab38183613aad61010094600198611df0565b52612890565b970151907f339a9692045b8b078d3e6350c4cb8ec85a59e3f73364cf49f76f2629dc19c3578b5180613aea81906001602083019252565b0390a35b01936139b1565b518d516279bb4560e11b81526001600160a01b0390911660048201526024810192909252602095509091908590839060449082905f905af19081156104e557838f82613aad9160019961010097613ab397613b57575b50509850945050613a96565b81613b6d92903d10610e7357610e638183611cd7565b505f80613b4b565b613b7f908361415a565b5f613a79565b5050965096505060019150613aee565b613bac929950803d10613835576138258183611cd7565b965f806139fa565b955050509493505050613bc6816138f9565b935f5b828110613bd557505050565b80613be260019284611df0565b51613bed8289611df0565b5201613bc9565b613c119193503d805f833e613c098183611cd7565b8101906138d3565b915f613984565b81519167ffffffffffffffff8311611ca257680100000000000000008311611ca2578154838355808410613c7d575b50613c5a6020809201925f5260205f2090565b905f5b848110613c6b575050505050565b83518382015592810192600101613c5d565b825f528360205f2091820191015b818110613c985750613c47565b5f8155600101613c8b565b9080518255600180830160209060208401519182519267ffffffffffffffff8411611ca257680100000000000000008411611ca2578254848455808510613d63575b506020613cf79101925f5260205f2090565b905f5b848110613d5257505050505050906005613d3f60a084613d246040611d4097015160028701613c18565b60608101516003860155608081015160048601550151151590565b91019060ff801983541691151516179055565b835183820155928101928501613cfa565b835f52858560205f2092830192015b828110613d80575050613ce5565b5f8155018690613d72565b92613d94611dc9565b805115611a66578160208201527f5ea69329017273582817d320489fbd94f775580e90c092699ca6f3d12fdf7d0192835496613dfd6103886103887fed8d60e34876f751cc8b014c560745351147d9de11b9347c854e881b128ea600546001600160a01b031690565b803b156102f3575f6040518092637d6e912360e11b8252818381613e248a60048301612804565b03925af180156104e557613f38575b50613e6b6103886103887f5ea69329017273582817d320489fbd94f775580e90c092699ca6f3d12fdf7d00546001600160a01b031690565b95863b156102f3575f84613e97988b83604051809c81958294633263b83b60e01b845260048401612867565b03925af19384156104e5576129ba613f20976129b4613ee2937fbcf5a976ad5099b80a136d75eb362431099ce72445dd2c1a9305e658986b570b9b61131599613f25575b508d6141d4565b613eea611d91565b928884526020840152604083015260608201524260808201525f60a0820152613f1b875f52600860205260405f2090565b613ca3565b0390a3565b80610ea4613f3292611ca7565b5f613edb565b80610ea4613f4592611ca7565b5f613e33565b60541115613f5557565b634e487b7160e01b5f52602160045260245ffd5b60205f9160446001600160a01b035f8051602061469f8339815191525416916040519485938492639cd07acb60e01b84526004840152600560248401525af19081156104e5575f91613fb9575090565b612054915060203d6020116104de576104d08183611cd7565b5f60206001600160a01b035f8051602061469f8339815191525416604460405180948193639cd07acb60e01b8352816004840152600660248401525af19081156104e5575f91613fb9575090565b60205f9160446001600160a01b035f8051602061469f8339815191525416916040519485938492639cd07acb60e01b84526004840152600660248401525af19081156104e5575f91613fb9575090565b5f60206001600160a01b035f8051602061469f8339815191525416604460405180948193639cd07acb60e01b8352816004840152600560248401525af19081156104e5575f91613fb9575090565b5f60206001600160a01b035f8051602061469f8339815191525416604460405180948193639cd07acb60e01b835260016004840152600560248401525af19081156104e5575f91613fb9575090565b5f60206001600160a01b035f8051602061469f8339815191525416604460405180948193639cd07acb60e01b83528160048401528160248401525af19081156104e5575f91613fb9575090565b6001600160a01b037fed8d60e34876f751cc8b014c560745351147d9de11b9347c854e881b128ea600541691823b156102f357604051635ca4b5b160e11b815260048101929092526001600160a01b03166024820152905f908290604490829084905af180156104e5576141cb5750565b611d4090611ca7565b805f527f5ea69329017273582817d320489fbd94f775580e90c092699ca6f3d12fdf7d026020918160205260405f205461429c575f5260205260405f209082519267ffffffffffffffff8411611ca257680100000000000000008411611ca2578254848455808510614276575b5060206142539101925f5260205f2090565b905f5b848110614264575050505050565b83518382015592810192600101614256565b835f528460205f2091820191015b8181106142915750614241565b5f8155600101614284565b604051633f06d22b60e01b8152600490fd5b906120549180156142cf575b8161448c5790506142c9613fd2565b9061448c565b506142d8613fd2565b6142ba565b906120549180156142fe575b816144e15790506142f8613fd2565b906144e1565b50614307613fd2565b6142e9565b61437a91602060808301518283156143dc575b81156143cc575b61434a6103886103885f8051602061469f833981519152546001600160a01b031690565b905f604051809881958294631391547f60e01b8452600484016040905f9294936060820195825260208201520152565b03925af19081156104e557612054935f926143a6575b5060a06143a09293015190614536565b906145bb565b6143a092506143c560a09160203d6020116104de576104d08183611cd7565b9250614390565b90506143d6614070565b90614326565b506143e5614070565b61431f565b90612054918015614405575b8161448c5790506142c9614070565b5061440e614070565b6143f6565b9061205491801561442e575b816144e15790506142f8614070565b50614437614070565b61441f565b60205f9160446001600160a01b035f8051602061469f83398151915254169160405194859384926307227b9160e21b84526004840152600660248401525af19081156104e5575f91613fb9575090565b9060209060646001600160a01b035f8051602061469f8339815191525416935f6040519586948593630afe14ad60e31b8552600485015260248401528160448401525af19081156104e5575f91613fb9575090565b9060209060646001600160a01b035f8051602061469f8339815191525416935f604051958694859363022f65e760e31b8552600485015260248401528160448401525af19081156104e5575f91613fb9575090565b9081156145ab575b8015614599575b60209060646001600160a01b035f8051602061469f8339815191525416935f6040519586948593631d44e90160e21b8552600485015260248401528160448401525af19081156104e5575f91613fb9575090565b5060206145a4614070565b9050614545565b90506145b5614070565b9061453e565b61461891602091801561463d575b811561462d575b6001600160a01b035f8051602061469f8339815191525416905f60405180968195829463d99882d560e01b8452600484016040905f9294936060820195825260208201520152565b03925af19081156104e5575f91613fb9575090565b905061463761410d565b906145d0565b5061464661410d565b6145c9565b9060646020925f6001600160a01b035f8051602061469f83398151915254166040519687958694637702dcff60e01b86526004860152602485015260448401525af19081156104e5575f91613fb957509056feed8d60e34876f751cc8b014c560745351147d9de11b9347c854e881b128ea601a164736f6c6343000818000a",
  "linkReferences": {},
  "deployedLinkReferences": {}
}