{
  "_format": "hh-sol-artifact-1",
  "contractName": "FundPool",
  "sourceName": "contracts/FundPool.sol",
  "abi": [
    {
      "inputs": [
        {
          "internalType": "address",
          "name": "_usdcToken",
          "type": "address"
        },
        {
          "internalType": "address",
          "name": "_owner",
          "type": "address"
        }
      ],
      "stateMutability": "nonpayable",
      "type": "constructor"
    },
    {
      "inputs": [],
      "name": "BalanceNotInitialized",
      "type": "error"
    },
    {
      "inputs": [],
      "name": "DepositFailed",
      "type": "error"
    },
    {
      "inputs": [],
      "name": "InsufficientBalance",
      "type": "error"
    },
    {
      "inputs": [],
      "name": "InvalidAddress",
      "type": "error"
    },
    {
      "inputs": [],
      "name": "InvalidAmount",
      "type": "error"
    },
    {
      "inputs": [],
      "name": "InvalidGateway",
      "type": "error"
    },
    {
      "inputs": [],
      "name": "NoWithdrawalPending",
      "type": "error"
    },
    {
      "inputs": [
        {
          "internalType": "address",
          "name": "owner",
          "type": "address"
        }
      ],
      "name": "OwnableInvalidOwner",
      "type": "error"
    },
    {
      "inputs": [
        {
          "internalType": "address",
          "name": "account",
          "type": "address"
        }
      ],
      "name": "OwnableUnauthorizedAccount",
      "type": "error"
    },
    {
      "inputs": [],
      "name": "ReentrancyGuardReentrantCall",
      "type": "error"
    },
    {
      "inputs": [],
      "name": "TransferFailed",
      "type": "error"
    },
    {
      "inputs": [],
      "name": "UnauthorizedCaller",
      "type": "error"
    },
    {
      "inputs": [],
      "name": "WithdrawalCooldownActive",
      "type": "error"
    },
    {
      "inputs": [],
      "name": "WithdrawalFailed",
      "type": "error"
    },
    {
      "inputs": [],
      "name": "WithdrawalPending",
      "type": "error"
    },
    {
      "anonymous": false,
      "inputs": [
        {
          "indexed": true,
          "internalType": "address",
          "name": "user",
          "type": "address"
        }
      ],
      "name": "BalanceDeducted",
      "type": "event"
    },
    {
      "anonymous": false,
      "inputs": [
        {
          "indexed": true,
          "internalType": "address",
          "name": "oldProcessor",
          "type": "address"
        },
        {
          "indexed": true,
          "internalType": "address",
          "name": "newProcessor",
          "type": "address"
        }
      ],
      "name": "BatchProcessorUpdated",
      "type": "event"
    },
    {
      "anonymous": false,
      "inputs": [
        {
          "indexed": true,
          "internalType": "address",
          "name": "user",
          "type": "address"
        },
        {
          "indexed": false,
          "internalType": "uint256",
          "name": "amount",
          "type": "uint256"
        }
      ],
      "name": "Deposit",
      "type": "event"
    },
    {
      "anonymous": false,
      "inputs": [
        {
          "indexed": false,
          "internalType": "uint256",
          "name": "amount",
          "type": "uint256"
        }
      ],
      "name": "FundsTransferredToBatchProcessor",
      "type": "event"
    },
    {
      "anonymous": false,
      "inputs": [
        {
          "indexed": true,
          "internalType": "address",
          "name": "oldCollector",
          "type": "address"
        },
        {
          "indexed": true,
          "internalType": "address",
          "name": "newCollector",
          "type": "address"
        }
      ],
      "name": "IntentCollectorUpdated",
      "type": "event"
    },
    {
      "anonymous": false,
      "inputs": [
        {
          "indexed": true,
          "internalType": "address",
          "name": "previousOwner",
          "type": "address"
        },
        {
          "indexed": true,
          "internalType": "address",
          "name": "newOwner",
          "type": "address"
        }
      ],
      "name": "OwnershipTransferred",
      "type": "event"
    },
    {
      "anonymous": false,
      "inputs": [
        {
          "indexed": true,
          "internalType": "address",
          "name": "user",
          "type": "address"
        },
        {
          "indexed": false,
          "internalType": "uint256",
          "name": "amount",
          "type": "uint256"
        }
      ],
      "name": "Withdrawal",
      "type": "event"
    },
    {
      "anonymous": false,
      "inputs": [
        {
          "indexed": true,
          "internalType": "address",
          "name": "user",
          "type": "address"
        },
        {
          "indexed": false,
          "internalType": "uint256",
          "name": "requestId",
          "type": "uint256"
        },
        {
          "indexed": false,
          "internalType": "uint256",
          "name": "timestamp",
          "type": "uint256"
        }
      ],
      "name": "WithdrawalCancelled",
      "type": "event"
    },
    {
      "anonymous": false,
      "inputs": [
        {
          "indexed": true,
          "internalType": "address",
          "name": "user",
          "type": "address"
        },
        {
          "indexed": false,
          "internalType": "uint256",
          "name": "usdcAmount",
          "type": "uint256"
        },
        {
          "indexed": false,
          "internalType": "uint256",
          "name": "timestamp",
          "type": "uint256"
        }
      ],
      "name": "WithdrawalCompleted",
      "type": "event"
    },
    {
      "anonymous": false,
      "inputs": [
        {
          "indexed": true,
          "internalType": "address",
          "name": "oldGateway",
          "type": "address"
        },
        {
          "indexed": true,
          "internalType": "address",
          "name": "newGateway",
          "type": "address"
        }
      ],
      "name": "WithdrawalGatewayUpdated",
      "type": "event"
    },
    {
      "anonymous": false,
      "inputs": [
        {
          "indexed": true,
          "internalType": "address",
          "name": "user",
          "type": "address"
        },
        {
          "indexed": false,
          "internalType": "uint256",
          "name": "requestId",
          "type": "uint256"
        },
        {
          "indexed": false,
          "internalType": "uint256",
          "name": "timestamp",
          "type": "uint256"
        }
      ],
      "name": "WithdrawalInitiated",
      "type": "event"
    },
    {
      "inputs": [],
      "name": "WITHDRAWAL_COOLDOWN",
      "outputs": [
        {
          "internalType": "uint256",
          "name": "",
          "type": "uint256"
        }
      ],
      "stateMutability": "view",
      "type": "function"
    },
    {
      "inputs": [
        {
          "internalType": "address",
          "name": "",
          "type": "address"
        }
      ],
      "name": "activeWithdrawalRequest",
      "outputs": [
        {
          "internalType": "uint256",
          "name": "",
          "type": "uint256"
        }
      ],
      "stateMutability": "view",
      "type": "function"
    },
    {
      "inputs": [],
      "name": "batchProcessor",
      "outputs": [
        {
          "internalType": "address",
          "name": "",
          "type": "address"
        }
      ],
      "stateMutability": "view",
      "type": "function"
    },
    {
      "inputs": [
        {
          "internalType": "address",
          "name": "user",
          "type": "address"
        }
      ],
      "name": "canWithdraw",
      "outputs": [
        {
          "internalType": "bool",
          "name": "canWithdraw",
          "type": "bool"
        },
        {
          "internalType": "string",
          "name": "reason",
          "type": "string"
        }
      ],
      "stateMutability": "view",
      "type": "function"
    },
    {
      "inputs": [],
      "name": "cancelWithdrawal",
      "outputs": [],
      "stateMutability": "nonpayable",
      "type": "function"
    },
    {
      "inputs": [
        {
          "internalType": "address",
          "name": "user",
          "type": "address"
        },
        {
          "internalType": "euint64",
          "name": "amount",
          "type": "bytes32"
        }
      ],
      "name": "deductBalance",
      "outputs": [
        {
          "internalType": "bool",
          "name": "success",
          "type": "bool"
        }
      ],
      "stateMutability": "nonpayable",
      "type": "function"
    },
    {
      "inputs": [
        {
          "internalType": "externalEuint64",
          "name": "amountExt",
          "type": "bytes32"
        },
        {
          "internalType": "bytes",
          "name": "amountProof",
          "type": "bytes"
        },
        {
          "internalType": "uint256",
          "name": "plaintextAmount",
          "type": "uint256"
        }
      ],
      "name": "deposit",
      "outputs": [],
      "stateMutability": "nonpayable",
      "type": "function"
    },
    {
      "inputs": [
        {
          "internalType": "uint256",
          "name": "requestId",
          "type": "uint256"
        },
        {
          "internalType": "uint256",
          "name": "decryptedBalance",
          "type": "uint256"
        }
      ],
      "name": "fulfillWithdrawal",
      "outputs": [],
      "stateMutability": "nonpayable",
      "type": "function"
    },
    {
      "inputs": [
        {
          "internalType": "address",
          "name": "user",
          "type": "address"
        }
      ],
      "name": "getEncryptedBalance",
      "outputs": [
        {
          "internalType": "euint64",
          "name": "",
          "type": "bytes32"
        }
      ],
      "stateMutability": "view",
      "type": "function"
    },
    {
      "inputs": [],
      "name": "getTotalPoolBalance",
      "outputs": [
        {
          "internalType": "uint256",
          "name": "",
          "type": "uint256"
        }
      ],
      "stateMutability": "view",
      "type": "function"
    },
    {
      "inputs": [
        {
          "internalType": "address",
          "name": "user",
          "type": "address"
        }
      ],
      "name": "getWithdrawalStatus",
      "outputs": [
        {
          "internalType": "bool",
          "name": "pending",
          "type": "bool"
        },
        {
          "internalType": "uint256",
          "name": "requestId",
          "type": "uint256"
        },
        {
          "internalType": "uint256",
          "name": "timestamp",
          "type": "uint256"
        }
      ],
      "stateMutability": "view",
      "type": "function"
    },
    {
      "inputs": [],
      "name": "initiateWithdrawal",
      "outputs": [],
      "stateMutability": "nonpayable",
      "type": "function"
    },
    {
      "inputs": [],
      "name": "intentCollector",
      "outputs": [
        {
          "internalType": "address",
          "name": "",
          "type": "address"
        }
      ],
      "stateMutability": "view",
      "type": "function"
    },
    {
      "inputs": [
        {
          "internalType": "address",
          "name": "",
          "type": "address"
        }
      ],
      "name": "isBalanceInitialized",
      "outputs": [
        {
          "internalType": "bool",
          "name": "",
          "type": "bool"
        }
      ],
      "stateMutability": "view",
      "type": "function"
    },
    {
      "inputs": [
        {
          "internalType": "address",
          "name": "",
          "type": "address"
        }
      ],
      "name": "lastWithdrawalTime",
      "outputs": [
        {
          "internalType": "uint256",
          "name": "",
          "type": "uint256"
        }
      ],
      "stateMutability": "view",
      "type": "function"
    },
    {
      "inputs": [],
      "name": "owner",
      "outputs": [
        {
          "internalType": "address",
          "name": "",
          "type": "address"
        }
      ],
      "stateMutability": "view",
      "type": "function"
    },
    {
      "inputs": [
        {
          "internalType": "address",
          "name": "token",
          "type": "address"
        },
        {
          "internalType": "uint256",
          "name": "amount",
          "type": "uint256"
        }
      ],
      "name": "recoverToken",
      "outputs": [],
      "stateMutability": "nonpayable",
      "type": "function"
    },
    {
      "inputs": [],
      "name": "renounceOwnership",
      "outputs": [],
      "stateMutability": "nonpayable",
      "type": "function"
    },
    {
      "inputs": [
        {
          "internalType": "address",
          "name": "_batchProcessor",
          "type": "address"
        }
      ],
      "name": "setBatchProcessor",
      "outputs": [],
      "stateMutability": "nonpayable",
      "type": "function"
    },
    {
      "inputs": [
        {
          "internalType": "address",
          "name": "_intentCollector",
          "type": "address"
        }
      ],
      "name": "setIntentCollector",
      "outputs": [],
      "stateMutability": "nonpayable",
      "type": "function"
    },
    {
      "inputs": [
        {
          "internalType": "address",
          "name": "_gateway",
          "type": "address"
        }
      ],
      "name": "setWithdrawalGateway",
      "outputs": [],
      "stateMutability": "nonpayable",
      "type": "function"
    },
    {
      "inputs": [
        {
          "internalType": "address",
          "name": "user",
          "type": "address"
        },
        {
          "internalType": "uint256",
          "name": "amount",
          "type": "uint256"
        }
      ],
      "name": "testInitializeBalance",
      "outputs": [],
      "stateMutability": "nonpayable",
      "type": "function"
    },
    {
      "inputs": [],
      "name": "totalDeposited",
      "outputs": [
        {
          "internalType": "uint256",
          "name": "",
          "type": "uint256"
        }
      ],
      "stateMutability": "view",
      "type": "function"
    },
    {
      "inputs": [],
      "name": "totalWithdrawn",
      "outputs": [
        {
          "internalType": "uint256",
          "name": "",
          "type": "uint256"
        }
      ],
      "stateMutability": "view",
      "type": "function"
    },
    {
      "inputs": [
        {
          "internalType": "address",
          "name": "newOwner",
          "type": "address"
        }
      ],
      "name": "transferOwnership",
      "outputs": [],
      "stateMutability": "nonpayable",
      "type": "function"
    },
    {
      "inputs": [
        {
          "internalType": "uint256",
          "name": "amount",
          "type": "uint256"
        }
      ],
      "name": "transferToBatchProcessor",
      "outputs": [],
      "stateMutability": "nonpayable",
      "type": "function"
    },
    {
      "inputs": [],
      "name": "usdcToken",
      "outputs": [
        {
          "internalType": "contract IERC20",
          "name": "",
          "type": "address"
        }
      ],
      "stateMutability": "view",
      "type": "function"
    },
    {
      "inputs": [
        {
          "internalType": "uint256",
          "name": "amount",
          "type": "uint256"
        },
        {
          "internalType": "bytes",
          "name": "proof",
          "type": "bytes"
        }
      ],
      "name": "withdraw",
      "outputs": [],
      "stateMutability": "nonpayable",
      "type": "function"
    },
    {
      "inputs": [],
      "name": "withdrawalGateway",
      "outputs": [
        {
          "internalType": "contract IWithdrawalGateway",
          "name": "",
          "type": "address"
        }
      ],
      "stateMutability": "view",
      "type": "function"
    },
    {
      "inputs": [
        {
          "internalType": "uint256",
          "name": "",
          "type": "uint256"
        }
      ],
      "name": "withdrawalRequests",
      "outputs": [
        {
          "internalType": "uint256",
          "name": "requestId",
          "type": "uint256"
        },
        {
          "internalType": "address",
          "name": "user",
          "type": "address"
        },
        {
          "internalType": "euint64",
          "name": "encryptedBalance",
          "type": "bytes32"
        },
        {
          "internalType": "uint256",
          "name": "timestamp",
          "type": "uint256"
        },
        {
          "internalType": "bool",
          "name": "fulfilled",
          "type": "bool"
        },
        {
          "internalType": "bool",
          "name": "cancelled",
          "type": "bool"
        }
      ],
      "stateMutability": "view",
      "type": "function"
    }
  ],
  "bytecode": "0x60a03462000297576200243090601f38839003908101601f19168201906001600160401b038211838310176200029b578083916040958694855283398101031262000297576200005d60206200005583620002cf565b9201620002cf565b5f60606200006a620002af565b8281528260208201528286820152015262000084620002af565b7350157cffd6bbfa2dece204a89ec419c23ef5755d80825273cd3ab3bd6bcc0c0bf3e27912a92043e817b1cf6960208301819052731364cbbf2cdf5032c47d8226a6f6fbd2afcdacac86840181905273901f8942346f7ab3a01f6d7613119bca447bb03060609094018490527fed8d60e34876f751cc8b014c560745351147d9de11b9347c854e881b128ea60080546001600160a01b031990811690941790557fed8d60e34876f751cc8b014c560745351147d9de11b9347c854e881b128ea601805484169092179091557fed8d60e34876f751cc8b014c560745351147d9de11b9347c854e881b128ea6028054831690911790557fed8d60e34876f751cc8b014c560745351147d9de11b9347c854e881b128ea603805482169092179091557f5ea69329017273582817d320489fbd94f775580e90c092699ca6f3d12fdf7d008054821673a02cda4ca3a71d7c46997716f4283aa851c28812179055916001600160a01b0391821680156200028057805f54948516175f5582855194167f8be0079c531659141344cd1fd0a4f28419497f9722a3daafe3b4186f6b6457e05f80a360018055169081156200027157506080525161214b9081620002e5823960805181818161040901528181610d5a0152818161121a015281816113b80152818161164401526117400152f35b63e6c4247b60e01b8152600490fd5b8451631e4fbdf760e01b81525f6004820152602490fd5b5f80fd5b634e487b7160e01b5f52604160045260245ffd5b60405190608082016001600160401b038111838210176200029b57604052565b51906001600160a01b0382168203620002975756fe6080604081815260049182361015610015575f80fd5b5f925f3560e01c918262f3768a146119bf57508163030ba25d146116da57816308e85b9d1461166857816311eac8551461162557816319262d30146115e2578163198ab791146115bb5781632261128014611431578163233fc9a21461138457816323ff8aee146111e55781632601ee1514611167578163402dc4e41461110b5781634b319713146110ec5781634b41f292146110b05781634bfe2a1f14610fe85781634de5120e14610fb15781635308ed6314610f8a5781636cc9276914610cf4578163715018a614610c9b5781637491687e14610c315781638da5cb5b14610c0b578163937b258114610b9c578163a0af698b14610b74578163af88f2fa14610af4578163b29a814014610a37578163b51d1d4f14610778578163c391f7c51461026b578163cb2641fe14610234578163f2fde38b146101a957508063feedab001461018c5763ff50abdc1461016b575f80fd5b346101885781600319360112610188576020906007549051908152f35b5080fd5b503461018857816003193601126101885760209051620151808152f35b905034610230576020366003190112610230576101c4611b50565b906101cd611f39565b6001600160a01b0380921692831561021a5750505f54826001600160a01b03198216175f55167f8be0079c531659141344cd1fd0a4f28419497f9722a3daafe3b4186f6b6457e05f80a380f35b51631e4fbdf760e01b8152908101849052602490fd5b8280fd5b50503461018857602036600319011261018857806020926001600160a01b0361025b611b50565b168152600a845220549051908152f35b9190503461023057606036600319011261023057602480359267ffffffffffffffff93848111610774576102a29036908301611b66565b604493919335956102b1611f16565b811161076157866020948651926102d187601f19601f8401160185611c16565b8084523681830111610230578087928386013783010152866001600160a01b03918561034b7fed8d60e34876f751cc8b014c560745351147d9de11b9347c854e881b128ea6019285845416908a5195868094819363196d0b9b60e01b83528c358d840152338c840152608060448401526084830190611b94565b6005606483015203925af1918215610757578992610728575b5088837fed8d60e34876f751cc8b014c560745351147d9de11b9347c854e881b128ea6005416803b15610188578851630f8e573b60e21b81528781018581523360208201529091839183919082908490829060400103925af1801561071e57610706575b505087156106f6573389526006865260ff878a205416156106e8575b86516323b872dd60e01b8152338682015230858201526044810189905286816064818d7f000000000000000000000000000000000000000000000000000000000000000089165af19081156106de578a916106b1575b50156106a1578590338a5260058252878a20549284818515610691575b1561067e575b606491925416938b8a51958694859363022f65e760e31b85528b8501528984015260ff60f81b821660448401525af190811561062357889161064d575b503388526005855280868920556104b13082611ffe565b6104bb3382611ffe565b81600254168061063d575b5081600354168061062d575b50506104e086600754611c50565b600755600354169081610521575b5050507fe1fffcc4923d04b559f4d29a8bfc6cda04eb5b0d3c460751c2402c5c5cc9109c91519283523392a26001805580f35b845163082d5ced60e31b815233848201529084828281865afa9182156106235788926105e8575b50838210156105d757509081879392159081156105cc575b50156104ee57803b1561023057845163e2943c8d60e01b81523392810192835260016020840152918391839182908490829060400103925af180156105c2576105aa575b806104ee565b6105b390611bd2565b6105be57835f6105a4565b8380fd5b84513d84823e3d90fd5b60039150145f610560565b634e487b7160e01b88526021845287fd5b9091508481813d831161061c575b6106008183611c16565b8101031261061857518381101561061857905f610548565b8780fd5b503d6105f6565b86513d8a823e3d90fd5b61063691611ffe565b5f806104d2565b6106479082611ffe565b5f6104c6565b90508481813d8311610677575b6106648183611c16565b8101031261067357515f61049a565b5f80fd5b503d61065a565b6064915061068a6120dd565b915061045d565b945061069b6120dd565b94610457565b86516379cacff160e01b81528590fd5b6106d19150873d89116106d7575b6106c98183611c16565b810190611c38565b5f61043a565b503d6106bf565b88513d8c823e3d90fd5b6106f133611f64565b6103e4565b865163162908e360e11b81528590fd5b61070f90611bd2565b61071a57885f6103c8565b8880fd5b89513d84823e3d90fd5b9091508581813d8311610750575b6107408183611c16565b810103126106735751905f610364565b503d610736565b87513d8b823e3d90fd5b50634e487b7160e01b5f90815260418352fd5b8580fd5b90508234610a345780600319360112610a3457610793611f16565b3381526020926006845260ff818320541615610a2557338252600a845280822054610a1657338252600b84528082205480151590816109ff575b506109f0576001600160a01b039384600354168061094f575b50829394338452600582528284205490828188541660448651809881936310e0d99f60e11b8352878d8401523360248401525af1948515610945578695610916575b5083519660c088019780891067ffffffffffffffff8a1117610903577f31f69201fab7912e3ec9850e3ab705964bf46d9d4276bdcbb6d05e965e5f5401969798865287815284810193338552868201908152606082019042825260808301958b875260a08401958c87528b8d5260098952898d2094518555600185019151166001600160a01b031982541617905551600283015551600382015501915115159060ff61ff0084549251151560081b1692169061ffff191617179055338552600a81528382862055815193845242908401523392a26001805580f35b604182634e487b7160e01b5f525260245ffd5b9094508281813d831161093e575b61092e8183611c16565b8101031261067357519387610828565b503d610924565b84513d88823e3d90fd5b803b156105be57838091604485518094819363e2943c8d60e01b8352338b840152600260248401525af180156109cf579084916109dc575b50508460035416803b156105be578380916024855180948193620c50d560e91b8352338b8401525af180156109cf57156107e6576109c58491611bd2565b61023057856107e6565b50505051903d90823e3d90fd5b6109e590611bd2565b610230578286610987565b5163b3c12fdf60e01b81529050fd5b620151809150610a0f9042611c71565b10856107cd565b51632cd3d71b60e21b81529050fd5b51634e8879e560e01b81529050fd5b80fd5b905034610230578160031936011261023057610a51611b50565b610a59611f39565b6001600160a01b03809116908115610ae45791602091610aab949386541686855180978195829463a9059cbb60e01b8452602435918401602090939291936001600160a01b0360408201951681520152565b03925af1908115610adb5750610abf575080f35b610ad79060203d6020116106d7576106c98183611c16565b5080f35b513d84823e3d90fd5b835163e6c4247b60e01b81528390fd5b90503461023057602036600319011261023057610b0f611b50565b90610b18611f39565b6001600160a01b03809216928315610b67575050600354826001600160a01b0319821617600355167fa8eb7374d35d2ee99740e012a28e2ac715a2511911850022b0a19e463a223a0d8380a380f35b5163e6c4247b60e01b8152fd5b5050346101885781600319360112610188576020906001600160a01b03600254169051908152f35b91905034610230576020366003190112610230578060ff9160c094843581526009602052208054936001600160a01b03600183015416926002830154916003840154930154938151968752602087015285015260608401528181161515608084015260081c16151560a0820152f35b5050346101885781600319360112610188576001600160a01b0360209254169051908152f35b5050346101885760203660031901126101885790606091610c50611b50565b6001600160a01b03168252600a602052808220548291908281610c80575b50815193151584526020840152820152f35b8181526009602052829020600301546001945092505f610c6e565b8334610a345780600319360112610a3457610cb4611f39565b5f6001600160a01b0381546001600160a01b031981168355167f8be0079c531659141344cd1fd0a4f28419497f9722a3daafe3b4186f6b6457e08280a380f35b838334610188578060031936011261018857602435906001600160a01b0391828554163303610f7a57843584526020600981528285208681019485549160ff8316610f6a5760ff8360081c16610f6a576001829101541695600160ff19809416179055807f0000000000000000000000000000000000000000000000000000000000000000169085516370a0823160e01b8152308a8201528481602481865afa908115610757579086918a91610f39575b5010610f2957848491610dd789898c610dbc6120dd565b918184849352600589522055610dd23082611ffe565b611ffe565b888a52600a835289888120556003541680610ec8575b50865163a9059cbb60e01b81526001600160a01b038916818c01908152602081019290925292839182908b90829060400103925af1908115610ebe578791610ea1575b5015610e91577f35fc39e80f531e18729cd92611935c06db664fc014e88f0b60f14699df88377b94959650610e6783600854611c50565b600855858752600b825242848820556006825283872090815416905582519182524290820152a280f35b83516327fcd9d160e01b81528790fd5b610eb89150833d85116106d7576106c98183611c16565b88610e30565b85513d89823e3d90fd5b915050803b1561061857878760448b838a51958694859363e2943c8d60e01b8552840152600360248401525af18015610623578885928792610f0b575b50610ded565b909250610f189150611bd2565b610f25578284888b610f05565b8680fd5b8551631e9acf1760e31b81528990fd5b809250868092503d8311610f63575b610f528183611c16565b81010312610673578590518b610da5565b503d610f48565b855163162908e360e11b81528990fd5b8151635c427cd960e01b81528590fd5b828434610a345780600319360112610a3457506001600160a01b0360209254169051908152f35b50503461018857602036600319011261018857806020926001600160a01b03610fd8611b50565b168152600b845220549051908152f35b505034610188578060031936011261018857611002611b50565b61100a611f39565b6110606001600160a01b0391828116808652600660205260ff8587205416156110a2575b61104367ffffffffffffffff6024351661207a565b9485918752600560205286205561105a3085611ffe565b83611ffe565b61106a3083611ffe565b806002541680611092575b506003541680611083578280f35b61108c91611ffe565b5f808280f35b61109c9083611ffe565b5f611075565b6110ab82611f64565b61102e565b5050346101885760203660031901126101885760ff816020936001600160a01b036110d9611b50565b1681526006855220541690519015158152f35b5050346101885781600319360112610188576020906008549051908152f35b905034610230576020366003190112610230576001600160a01b0361112e611b50565b1690818452600660205260ff8385205416156111595750828291602094526005845220549051908152f35b8251634e8879e560e01b8152fd5b90503461023057602036600319011261023057611182611b50565b9061118b611f39565b6001600160a01b038092169283156111d85750805490836001600160a01b03198316179055167fbf1536c1fc8645dff296d382e0058e9852eb9be1abbce6d21063206b1c54bcbc8380a380f35b5163fc9dfe8560e01b8152fd5b8383346101885760209081600319360112610230578335906001600160a01b03806002541690813303611374578315611364577f0000000000000000000000000000000000000000000000000000000000000000169082516370a0823160e01b815230888201528581602481865afa90811561135a579085918891611329575b501061131957825163a9059cbb60e01b81526001600160a01b03909116818801908152602081018590529091859183919082908990829060400103925af190811561130f5785916112f2575b50156112e3577fed66efa13df72a92822464200dee6f3956d280efc155228b3c58dbc44a5f8e4793945051908152a180f35b516312171d8360e31b81528490fd5b6113099150843d86116106d7576106c98183611c16565b866112b1565b82513d87823e3d90fd5b8251631e9acf1760e31b81528790fd5b809250878092503d8311611353575b6113428183611c16565b810103126106735784905189611265565b503d611338565b84513d89823e3d90fd5b825163162908e360e11b81528790fd5b8251635c427cd960e01b81528790fd5b8383346101885781600319360112610188578051926370a0823160e01b845230908401526020836024816001600160a01b037f0000000000000000000000000000000000000000000000000000000000000000165afa91821561142657916113f1575b6020925051908152f35b90506020823d60201161141e575b8161140c60209383611c16565b810103126106735760209151906113e7565b3d91506113ff565b9051903d90823e3d90fd5b91905034610673575f3660031901126106735761144c611f16565b335f52600a602052805f20549182156115ad57825f52600960205280825f2001805460ff811661159d5760ff8160081c1661159d576101009061ff001916179055335f52600a6020525f828120556001600160a01b0380825416803b15610673575f80916024865180948193633dd0753b60e21b83528a898401525af180156115935761157e575b50908491600354168061151c575b505050807f609802616efe88a6b73a266ced98c5dfd07c25e64549e620527605107ea30e8191519283524260208401523392a26001805580f35b803b1561023057835163e2943c8d60e01b81523392810192835260016020840152918391839182908490829060400103925af1801561157457611560575b806114e2565b61156990611bd2565b61023057825f61155a565b83513d84823e3d90fd5b61158a91929550611bd2565b5f93905f6114d4565b84513d5f823e3d90fd5b835163162908e360e11b81528390fd5b90516383e8949360e01b8152fd5b8234610673575f366003190112610673576020906001600160a01b03600354169051908152f35b823461067357602036600319011261067357611621611607611602611b50565b611c7e565b839291925193849315158452806020850152830190611b94565b0390f35b8234610673575f36600319011261067357602090516001600160a01b037f0000000000000000000000000000000000000000000000000000000000000000168152f35b90503461067357602036600319011261067357611683611b50565b9061168c611f39565b6001600160a01b03809216928315610b67575050600254826001600160a01b0319821617600255167fe3ce8b0c8e08139f4b8a0ae6921a6b230c9db00c66f32343a0d86ac59499f61e5f80a3005b823461067357806003193601126106735781359067ffffffffffffffff906024358281116106735761170f9036908601611b66565b5050611719611f16565b82156119b057335f526020916006835260ff825f205416156119a0576001600160a01b03807f0000000000000000000000000000000000000000000000000000000000000000169183516370a0823160e01b815230888201528581602481875afa908115611996579087915f91611965575b50106119555761179c90861661207a565b90335f526005855284845f2054926064895f6117c26117bb8589611dac565b9488611e7e565b96867fed8d60e34876f751cc8b014c560745351147d9de11b9347c854e881b128ea6015416908a519889968795637702dcff60e01b8752860152602485015260448401525af1918215611593575f92611926575b50335f526005855281845f205561182d3083611ffe565b6118373383611ffe565b806002541680611916575b506003541680611906575b5050815163a9059cbb60e01b815233868201908152602081018690529091849183919082905f90829060400103925af19081156118fc575f916118df575b50156118d057907f7fcf532c15f0a6db0bd6d0e038bea71d30d808c7d98cb3bf7268a95bf5081b65916118c084600854611c50565b600855519283523392a260018055005b516327fcd9d160e01b81528390fd5b6118f69150833d85116106d7576106c98183611c16565b8561188b565b82513d5f823e3d90fd5b61190f91611ffe565b858061184d565b6119209083611ffe565b87611842565b9091508481813d831161194e575b61193e8183611c16565b8101031261067357519087611816565b503d611934565b8351631e9acf1760e31b81528790fd5b809250878092503d831161198f575b61197e8183611c16565b81010312610673578690518961178b565b503d611974565b85513d5f823e3d90fd5b8151634e8879e560e01b81528590fd5b5163162908e360e11b81528390fd5b9083346106735780600319360112610673576119d9611b50565b91602435936001600160a01b039081600254163303611b42575080841693845f526020956006875260ff855f20541615611b32578690865f52600582526064865f205495611a273388611ffe565b5f611a3c611a35858a611dac565b9489611e7e565b97877fed8d60e34876f751cc8b014c560745351147d9de11b9347c854e881b128ea6015416908a51998a968795637702dcff60e01b8752860152602485015260448401525af1928315611593575f93611b01575b50611aab90855f526005875283855f205561105a3085611ffe565b611ab9816002541683611ffe565b6003541680611af1575b505051907f8d40058f71a35eb08202758a0dad4080c68b5b29583891ccb17a840fc250833d5f80a260018152f35b611afa91611ffe565b8380611ac3565b9092508581813d8311611b2b575b611b198183611c16565b81010312610673575191611aab611a90565b503d611b0f565b8451634e8879e560e01b81528490fd5b635c427cd960e01b81529050fd5b600435906001600160a01b038216820361067357565b9181601f840112156106735782359167ffffffffffffffff8311610673576020838186019501011161067357565b91908251928382525f5b848110611bbe575050825f602080949584010152601f8019910116010190565b602081830181015184830182015201611b9e565b67ffffffffffffffff8111611be657604052565b634e487b7160e01b5f52604160045260245ffd5b6040810190811067ffffffffffffffff821117611be657604052565b90601f8019910116810190811067ffffffffffffffff821117611be657604052565b90816020910312610673575180151581036106735790565b91908201809211611c5d57565b634e487b7160e01b5f52601160045260245ffd5b91908203918211611c5d57565b6001600160a01b031690815f5260206006815260409260ff845f20541615611d7357805f52600a8252835f2054611d3a575f52600b8152825f20548015159081611d23575b50611ceb5760019280519182019082821067ffffffffffffffff831117611be657525f815290565b7f436f6f6c646f776e20706572696f6420616374697665000000000000000000005f935191611d1983611bfa565b6016835282015290565b620151809150611d339042611c71565b105f611cc3565b507f5769746864726177616c20616c72656164792070656e64696e670000000000005f935191611d6983611bfa565b601a835282015290565b507f42616c616e6365206e6f7420696e697469616c697a65640000000000000000005f935191611da283611bfa565b6017835282015290565b908115611e6e575b8015611e5c575b60209060646001600160a01b037fed8d60e34876f751cc8b014c560745351147d9de11b9347c854e881b128ea6015416935f6040519586948593631391547f60e01b8552600485015260248401528160448401525af1908115611e51575f91611e22575090565b90506020813d602011611e49575b81611e3d60209383611c16565b81010312610673575190565b3d9150611e30565b6040513d5f823e3d90fd5b506020611e676120dd565b9050611dbb565b9050611e786120dd565b90611db4565b908115611f06575b8015611ef4575b60209060646001600160a01b037fed8d60e34876f751cc8b014c560745351147d9de11b9347c854e881b128ea6015416935f60405195869485936303056db360e31b8552600485015260248401528160448401525af1908115611e51575f91611e22575090565b506020611eff6120dd565b9050611e8d565b9050611f106120dd565b90611e86565b600260015414611f27576002600155565b604051633ee5aeb560e01b8152600490fd5b6001600160a01b035f54163303611f4c57565b60405163118cdaa760e01b8152336004820152602490fd5b6001600160a01b039081811691825f52600660205260ff60405f205416611ff957611fa9611f906120dd565b92845f5260056020528360405f205561105a3085611ffe565b806002541680611fe9575b506003541680611fd9575b50505f52600660205260405f20600160ff19825416179055565b611fe291611ffe565b5f80611fbf565b611ff39083611ffe565b5f611fb4565b505050565b6001600160a01b037fed8d60e34876f751cc8b014c560745351147d9de11b9347c854e881b128ea600541691823b1561067357604051635ca4b5b160e11b815260048101929092526001600160a01b03166024820152905f908290604490829084905af18015611e515761206f5750565b61207890611bd2565b565b60205f9160446001600160a01b037fed8d60e34876f751cc8b014c560745351147d9de11b9347c854e881b128ea6015416916040519485938492639cd07acb60e01b84526004840152600560248401525af1908115611e51575f91611e22575090565b5f60206001600160a01b037fed8d60e34876f751cc8b014c560745351147d9de11b9347c854e881b128ea6015416604460405180948193639cd07acb60e01b8352816004840152600560248401525af1908115611e51575f91611e2257509056fea164736f6c6343000818000a",
  "linkReferences": {},
  "deployedLinkReferences": {}
}