{
  "address": "0x79FE21399cC9a67a71E7F2f2DDEcF605F256fadd",
  "abi": [
    {
      "inputs": [
        {
          "internalType": "address",
          "name": "_usdcToken",
          "type": "address"
        },
        {
          "internalType": "address",
          "name": "_owner",
          "type": "address"
        }
      ],
      "stateMutability": "nonpayable",
      "type": "constructor"
    },
    {
      "inputs": [],
      "name": "BalanceNotInitialized",
      "type": "error"
    },
    {
      "inputs": [],
      "name": "DepositFailed",
      "type": "error"
    },
    {
      "inputs": [],
      "name": "HandlesAlreadySavedForRequestID",
      "type": "error"
    },
    {
      "inputs": [],
      "name": "InsufficientBalance",
      "type": "error"
    },
    {
      "inputs": [],
      "name": "InvalidAddress",
      "type": "error"
    },
    {
      "inputs": [],
      "name": "InvalidAmount",
      "type": "error"
    },
    {
      "inputs": [],
      "name": "InvalidKMSSignatures",
      "type": "error"
    },
    {
      "inputs": [],
      "name": "NoHandleFoundForRequestID",
      "type": "error"
    },
    {
      "inputs": [],
      "name": "NoWithdrawalPending",
      "type": "error"
    },
    {
      "inputs": [
        {
          "internalType": "address",
          "name": "owner",
          "type": "address"
        }
      ],
      "name": "OwnableInvalidOwner",
      "type": "error"
    },
    {
      "inputs": [
        {
          "internalType": "address",
          "name": "account",
          "type": "address"
        }
      ],
      "name": "OwnableUnauthorizedAccount",
      "type": "error"
    },
    {
      "inputs": [],
      "name": "ReentrancyGuardReentrantCall",
      "type": "error"
    },
    {
      "inputs": [],
      "name": "TransferFailed",
      "type": "error"
    },
    {
      "inputs": [],
      "name": "UnauthorizedCaller",
      "type": "error"
    },
    {
      "inputs": [],
      "name": "UnsupportedHandleType",
      "type": "error"
    },
    {
      "inputs": [],
      "name": "WithdrawalCooldownActive",
      "type": "error"
    },
    {
      "inputs": [],
      "name": "WithdrawalFailed",
      "type": "error"
    },
    {
      "inputs": [],
      "name": "WithdrawalPending",
      "type": "error"
    },
    {
      "anonymous": false,
      "inputs": [
        {
          "indexed": true,
          "internalType": "address",
          "name": "user",
          "type": "address"
        }
      ],
      "name": "BalanceDeducted",
      "type": "event"
    },
    {
      "anonymous": false,
      "inputs": [
        {
          "indexed": true,
          "internalType": "address",
          "name": "oldProcessor",
          "type": "address"
        },
        {
          "indexed": true,
          "internalType": "address",
          "name": "newProcessor",
          "type": "address"
        }
      ],
      "name": "BatchProcessorUpdated",
      "type": "event"
    },
    {
      "anonymous": false,
      "inputs": [
        {
          "indexed": true,
          "internalType": "uint256",
          "name": "requestID",
          "type": "uint256"
        }
      ],
      "name": "DecryptionFulfilled",
      "type": "event"
    },
    {
      "anonymous": false,
      "inputs": [
        {
          "indexed": true,
          "internalType": "address",
          "name": "user",
          "type": "address"
        },
        {
          "indexed": false,
          "internalType": "uint256",
          "name": "amount",
          "type": "uint256"
        }
      ],
      "name": "Deposit",
      "type": "event"
    },
    {
      "anonymous": false,
      "inputs": [
        {
          "indexed": false,
          "internalType": "uint256",
          "name": "amount",
          "type": "uint256"
        }
      ],
      "name": "FundsTransferredToBatchProcessor",
      "type": "event"
    },
    {
      "anonymous": false,
      "inputs": [
        {
          "indexed": true,
          "internalType": "address",
          "name": "oldCollector",
          "type": "address"
        },
        {
          "indexed": true,
          "internalType": "address",
          "name": "newCollector",
          "type": "address"
        }
      ],
      "name": "IntentCollectorUpdated",
      "type": "event"
    },
    {
      "anonymous": false,
      "inputs": [
        {
          "indexed": true,
          "internalType": "address",
          "name": "previousOwner",
          "type": "address"
        },
        {
          "indexed": true,
          "internalType": "address",
          "name": "newOwner",
          "type": "address"
        }
      ],
      "name": "OwnershipTransferred",
      "type": "event"
    },
    {
      "anonymous": false,
      "inputs": [
        {
          "indexed": true,
          "internalType": "address",
          "name": "user",
          "type": "address"
        },
        {
          "indexed": false,
          "internalType": "uint256",
          "name": "amount",
          "type": "uint256"
        }
      ],
      "name": "Withdrawal",
      "type": "event"
    },
    {
      "anonymous": false,
      "inputs": [
        {
          "indexed": true,
          "internalType": "address",
          "name": "user",
          "type": "address"
        },
        {
          "indexed": false,
          "internalType": "uint256",
          "name": "requestId",
          "type": "uint256"
        },
        {
          "indexed": false,
          "internalType": "uint256",
          "name": "timestamp",
          "type": "uint256"
        }
      ],
      "name": "WithdrawalCancelled",
      "type": "event"
    },
    {
      "anonymous": false,
      "inputs": [
        {
          "indexed": true,
          "internalType": "address",
          "name": "user",
          "type": "address"
        },
        {
          "indexed": false,
          "internalType": "uint256",
          "name": "usdcAmount",
          "type": "uint256"
        },
        {
          "indexed": false,
          "internalType": "uint256",
          "name": "timestamp",
          "type": "uint256"
        }
      ],
      "name": "WithdrawalCompleted",
      "type": "event"
    },
    {
      "anonymous": false,
      "inputs": [
        {
          "indexed": true,
          "internalType": "address",
          "name": "user",
          "type": "address"
        },
        {
          "indexed": false,
          "internalType": "uint256",
          "name": "requestId",
          "type": "uint256"
        },
        {
          "indexed": false,
          "internalType": "uint256",
          "name": "timestamp",
          "type": "uint256"
        }
      ],
      "name": "WithdrawalInitiated",
      "type": "event"
    },
    {
      "inputs": [],
      "name": "WITHDRAWAL_COOLDOWN",
      "outputs": [
        {
          "internalType": "uint256",
          "name": "",
          "type": "uint256"
        }
      ],
      "stateMutability": "view",
      "type": "function"
    },
    {
      "inputs": [
        {
          "internalType": "address",
          "name": "",
          "type": "address"
        }
      ],
      "name": "activeWithdrawalRequest",
      "outputs": [
        {
          "internalType": "uint256",
          "name": "",
          "type": "uint256"
        }
      ],
      "stateMutability": "view",
      "type": "function"
    },
    {
      "inputs": [],
      "name": "batchProcessor",
      "outputs": [
        {
          "internalType": "address",
          "name": "",
          "type": "address"
        }
      ],
      "stateMutability": "view",
      "type": "function"
    },
    {
      "inputs": [
        {
          "internalType": "address",
          "name": "user",
          "type": "address"
        }
      ],
      "name": "canWithdraw",
      "outputs": [
        {
          "internalType": "bool",
          "name": "allowed",
          "type": "bool"
        },
        {
          "internalType": "string",
          "name": "reason",
          "type": "string"
        }
      ],
      "stateMutability": "view",
      "type": "function"
    },
    {
      "inputs": [],
      "name": "cancelWithdrawal",
      "outputs": [],
      "stateMutability": "nonpayable",
      "type": "function"
    },
    {
      "inputs": [
        {
          "internalType": "address",
          "name": "user",
          "type": "address"
        },
        {
          "internalType": "euint64",
          "name": "amount",
          "type": "bytes32"
        }
      ],
      "name": "deductBalance",
      "outputs": [
        {
          "internalType": "bool",
          "name": "success",
          "type": "bool"
        }
      ],
      "stateMutability": "nonpayable",
      "type": "function"
    },
    {
      "inputs": [
        {
          "internalType": "uint256",
          "name": "amount",
          "type": "uint256"
        }
      ],
      "name": "deposit",
      "outputs": [],
      "stateMutability": "nonpayable",
      "type": "function"
    },
    {
      "inputs": [
        {
          "internalType": "address",
          "name": "user",
          "type": "address"
        }
      ],
      "name": "getEncryptedBalance",
      "outputs": [
        {
          "internalType": "euint64",
          "name": "",
          "type": "bytes32"
        }
      ],
      "stateMutability": "view",
      "type": "function"
    },
    {
      "inputs": [],
      "name": "getTotalPoolBalance",
      "outputs": [
        {
          "internalType": "uint256",
          "name": "",
          "type": "uint256"
        }
      ],
      "stateMutability": "view",
      "type": "function"
    },
    {
      "inputs": [
        {
          "internalType": "address",
          "name": "user",
          "type": "address"
        }
      ],
      "name": "getWithdrawalStatus",
      "outputs": [
        {
          "internalType": "bool",
          "name": "pending",
          "type": "bool"
        },
        {
          "internalType": "uint256",
          "name": "requestId",
          "type": "uint256"
        },
        {
          "internalType": "uint256",
          "name": "timestamp",
          "type": "uint256"
        }
      ],
      "stateMutability": "view",
      "type": "function"
    },
    {
      "inputs": [],
      "name": "initiateWithdrawal",
      "outputs": [],
      "stateMutability": "nonpayable",
      "type": "function"
    },
    {
      "inputs": [],
      "name": "intentCollector",
      "outputs": [
        {
          "internalType": "address",
          "name": "",
          "type": "address"
        }
      ],
      "stateMutability": "view",
      "type": "function"
    },
    {
      "inputs": [
        {
          "internalType": "address",
          "name": "",
          "type": "address"
        }
      ],
      "name": "isBalanceInitialized",
      "outputs": [
        {
          "internalType": "bool",
          "name": "",
          "type": "bool"
        }
      ],
      "stateMutability": "view",
      "type": "function"
    },
    {
      "inputs": [
        {
          "internalType": "address",
          "name": "",
          "type": "address"
        }
      ],
      "name": "lastWithdrawalTime",
      "outputs": [
        {
          "internalType": "uint256",
          "name": "",
          "type": "uint256"
        }
      ],
      "stateMutability": "view",
      "type": "function"
    },
    {
      "inputs": [
        {
          "internalType": "uint256",
          "name": "requestId",
          "type": "uint256"
        },
        {
          "internalType": "uint64",
          "name": "decryptedBalance",
          "type": "uint64"
        },
        {
          "internalType": "bytes[]",
          "name": "signatures",
          "type": "bytes[]"
        }
      ],
      "name": "onWithdrawalDecrypted",
      "outputs": [],
      "stateMutability": "nonpayable",
      "type": "function"
    },
    {
      "inputs": [],
      "name": "owner",
      "outputs": [
        {
          "internalType": "address",
          "name": "",
          "type": "address"
        }
      ],
      "stateMutability": "view",
      "type": "function"
    },
    {
      "inputs": [
        {
          "internalType": "address",
          "name": "token",
          "type": "address"
        },
        {
          "internalType": "uint256",
          "name": "amount",
          "type": "uint256"
        }
      ],
      "name": "recoverToken",
      "outputs": [],
      "stateMutability": "nonpayable",
      "type": "function"
    },
    {
      "inputs": [],
      "name": "renounceOwnership",
      "outputs": [],
      "stateMutability": "nonpayable",
      "type": "function"
    },
    {
      "inputs": [
        {
          "internalType": "address",
          "name": "_batchProcessor",
          "type": "address"
        }
      ],
      "name": "setBatchProcessor",
      "outputs": [],
      "stateMutability": "nonpayable",
      "type": "function"
    },
    {
      "inputs": [
        {
          "internalType": "address",
          "name": "_intentCollector",
          "type": "address"
        }
      ],
      "name": "setIntentCollector",
      "outputs": [],
      "stateMutability": "nonpayable",
      "type": "function"
    },
    {
      "inputs": [],
      "name": "totalDeposited",
      "outputs": [
        {
          "internalType": "uint256",
          "name": "",
          "type": "uint256"
        }
      ],
      "stateMutability": "view",
      "type": "function"
    },
    {
      "inputs": [],
      "name": "totalWithdrawn",
      "outputs": [
        {
          "internalType": "uint256",
          "name": "",
          "type": "uint256"
        }
      ],
      "stateMutability": "view",
      "type": "function"
    },
    {
      "inputs": [
        {
          "internalType": "address",
          "name": "newOwner",
          "type": "address"
        }
      ],
      "name": "transferOwnership",
      "outputs": [],
      "stateMutability": "nonpayable",
      "type": "function"
    },
    {
      "inputs": [
        {
          "internalType": "uint256",
          "name": "amount",
          "type": "uint256"
        }
      ],
      "name": "transferToBatchProcessor",
      "outputs": [],
      "stateMutability": "nonpayable",
      "type": "function"
    },
    {
      "inputs": [],
      "name": "usdcToken",
      "outputs": [
        {
          "internalType": "contract IERC20",
          "name": "",
          "type": "address"
        }
      ],
      "stateMutability": "view",
      "type": "function"
    },
    {
      "inputs": [
        {
          "internalType": "uint256",
          "name": "amount",
          "type": "uint256"
        },
        {
          "internalType": "bytes",
          "name": "",
          "type": "bytes"
        }
      ],
      "name": "withdraw",
      "outputs": [],
      "stateMutability": "nonpayable",
      "type": "function"
    },
    {
      "inputs": [
        {
          "internalType": "uint256",
          "name": "",
          "type": "uint256"
        }
      ],
      "name": "withdrawalRequests",
      "outputs": [
        {
          "internalType": "uint256",
          "name": "requestId",
          "type": "uint256"
        },
        {
          "internalType": "address",
          "name": "user",
          "type": "address"
        },
        {
          "internalType": "euint64",
          "name": "encryptedBalance",
          "type": "bytes32"
        },
        {
          "internalType": "uint256",
          "name": "timestamp",
          "type": "uint256"
        },
        {
          "internalType": "bool",
          "name": "processed",
          "type": "bool"
        }
      ],
      "stateMutability": "view",
      "type": "function"
    }
  ],
  "transactionHash": "0xb395ac3f8cfd570105684cb0fcedb57458b0fa828071b6c1979cc4bd337c044a",
  "args": [
    "0x1c7D4B196Cb0C7B01d743Fbc6116a902379C7238",
    "0xf8185A9E8DCABE43dcA52f2f649F51BE1E2E972a"
  ],
  "numDeployments": 1,
  "solcInputHash": "ce7e5f58ec57a8da84316662f2242f7e",
  "bytecode": "0x60a0346200029757620029db90601f38839003908101601f19168201906001600160401b038211838310176200029b578083916040958694855283398101031262000297576200005d60206200005583620002cf565b9201620002cf565b5f60606200006a620002af565b8281528260208201528286820152015262000084620002af565b73687820221192c5b662b25367f70076a37bc79b6c80825273848b0066793bcc60346da1f49049357399b8d59560208301819052731364cbbf2cdf5032c47d8226a6f6fbd2afcdacac86840181905273bc91f3dad1a5f19f8390c400196e58073b6a0bc460609094018490527fed8d60e34876f751cc8b014c560745351147d9de11b9347c854e881b128ea60080546001600160a01b031990811690941790557fed8d60e34876f751cc8b014c560745351147d9de11b9347c854e881b128ea601805484169092179091557fed8d60e34876f751cc8b014c560745351147d9de11b9347c854e881b128ea6028054831690911790557fed8d60e34876f751cc8b014c560745351147d9de11b9347c854e881b128ea603805482169092179091557f5ea69329017273582817d320489fbd94f775580e90c092699ca6f3d12fdf7d008054821673a02cda4ca3a71d7c46997716f4283aa851c28812179055916001600160a01b0391821680156200028057805f54948516175f5582855194167f8be0079c531659141344cd1fd0a4f28419497f9722a3daafe3b4186f6b6457e05f80a36001805516908115620002715750608052516126f69081620002e582396080518181816103f2015281816106b7015281816108e20152818161098a015281816111590152611b020152f35b63e6c4247b60e01b8152600490fd5b8451631e4fbdf760e01b81525f6004820152602490fd5b5f80fd5b634e487b7160e01b5f52604160045260245ffd5b60405190608082016001600160401b038111838210176200029b57604052565b51906001600160a01b0382168203620002975756fe60806040526004361015610011575f80fd5b5f3560e01c8062f3768a146101c3578063030ba25d146101be57806308e85b9d146101b957806311eac855146101b457806319262d30146101af578063198ab791146101aa57806322611280146101a5578063233fc9a2146101a057806323ff8aee1461019b578063402dc4e4146101965780634b319713146101915780634b41f2921461018c5780634de5120e146101875780635a16484114610182578063715018a61461017d5780637491687e146101785780638da5cb5b14610173578063937b25811461016e578063a0af698b14610169578063af88f2fa14610164578063b29a81401461015f578063b51d1d4f1461015a578063b6b55f2514610155578063cb2641fe14610150578063f2fde38b1461014b578063feedab00146101465763ff50abdc14610141575f80fd5b6114c5565b6114a8565b611425565b6113ed565b6110d5565b610e8f565b610deb565b610d7e565b610d58565b610cf4565b610ccf565b610c65565b610c0e565b610ba7565b610b6f565b610b32565b610b15565b610ac8565b610942565b6108b7565b61077f565b610759565b610719565b610698565b61060f565b610353565b6101e2565b600435906001600160a01b03821682036101de57565b5f80fd5b346101de5760403660031901126101de576101fb6101c8565b6024356001600160a01b0390816002541633036103415761023e61023a610233856001600160a01b03165f52600560205260405f2090565b5460ff1690565b1590565b61032f5761028790610261846001600160a01b03165f52600460205260405f2090565b549061026d33836120d0565b61028161027a8284611ce9565b9183611d9a565b9061213f565b806102a3846001600160a01b03165f52600460205260405f2090565b556102ad81611e32565b506102b883826120d0565b6102d36102cd6002546001600160a01b031690565b826120d0565b6003546001600160a01b031682811661031f575b505060405191167f8d40058f71a35eb08202758a0dad4080c68b5b29583891ccb17a840fc250833d5f80a260018152602090f35b0390f35b610328916120d0565b5f806102e7565b604051634e8879e560e01b8152600490fd5b604051635c427cd960e01b8152600490fd5b346101de576040806003193601126101de5760048035919067ffffffffffffffff6024358181116101de57366023820112156101de57808301358281116101de57369101602401116101de576103a7611e3c565b8315610600576103ce61023a610233336001600160a01b03165f52600560205260405f2090565b6105f15782516370a0823160e01b8152308382019081526020926001600160a01b037f0000000000000000000000000000000000000000000000000000000000000000811693909285908290819083010381875afa801561058f5788915f916105c4575b50106105b457610446610463918816612210565b335f908152600460205260409020549061028161027a8284611ce9565b9081610480336001600160a01b03165f52600460205260405f2090565b5561048a82611e32565b5061049533836120d0565b6002546001600160a01b03168181166105a4575b506003546001600160a01b0316908116610594575b5050835163a9059cbb60e01b815233848201908152602081018790529091839183919082905f90829060400103925af191821561058f575f92610562575b50501561055457507f7fcf532c15f0a6db0bd6d0e038bea71d30d808c7d98cb3bf7268a95bf5081b659061053a610535846007546115a6565b600755565b51918252339180602081015b0390a261055260018055565b005b90516327fcd9d160e01b8152fd5b6105819250803d10610588575b610579818361152b565b810190611567565b5f806104fc565b503d61056f565b61155c565b61059d916120d0565b5f806104be565b6105ae90836120d0565b5f6104a9565b8551631e9acf1760e31b81528590fd5b6105e49150863d88116105ea575b6105dc818361152b565b81019061154d565b5f610432565b503d6105d2565b509051634e8879e560e01b8152fd5b50905163162908e360e11b8152fd5b346101de5760203660031901126101de576106286101c8565b610630611e5f565b6001600160a01b0380911690811561067c57600254826001600160a01b0319821617600255167fe3ce8b0c8e08139f4b8a0ae6921a6b230c9db00c66f32343a0d86ac59499f61e5f80a3005b60405163e6c4247b60e01b8152600490fd5b5f9103126101de57565b346101de575f3660031901126101de5760206040516001600160a01b037f0000000000000000000000000000000000000000000000000000000000000000168152f35b91908251928382525f5b848110610705575050825f602080949584010152601f8019910116010190565b6020818301810151848301820152016106e5565b346101de5760203660031901126101de5761073a6107356101c8565b6116ca565b9061031b604051928392151583526040602084015260408301906106db565b346101de575f3660031901126101de5760206001600160a01b0360035416604051908152f35b346101de575f3660031901126101de57610797611e3c565b335f9081526009602052604090205480156108a55760046107c0825f52600860205260405f2090565b01805460ff1661089357805460ff19166001179055335f908152600960205260408120556001600160a01b036107fe6003546001600160a01b031690565b1680610840575b506040805191825242602083015233917f609802616efe88a6b73a266ced98c5dfd07c25e64549e620527605107ea30e819181908101610546565b803b156101de5760405163e2943c8d60e01b815233600482015260016024820152905f908290604490829084905af1801561058f5715610805578061088761088d926114f6565b8061068e565b5f610805565b60405163162908e360e11b8152600490fd5b6040516383e8949360e01b8152600490fd5b346101de575f3660031901126101de576040516370a0823160e01b81523060048201526020816024817f00000000000000000000000000000000000000000000000000000000000000006001600160a01b03165afa801561058f576020915f91610925575b50604051908152f35b61093c9150823d84116105ea576105dc818361152b565b5f61091c565b346101de576020806003193601126101de5760048035916001600160a01b03806002541690813303610ab7578415610aa6576040516370a0823160e01b8152308582019081527f00000000000000000000000000000000000000000000000000000000000000009290921692918490829081906020010381865afa801561058f5786915f91610a89575b5010610a78576040805163a9059cbb60e01b81526001600160a01b039092168583019081526020810187905291928492849283915f9183910103925af191821561058f575f92610a5b575b505015610a4c576040518281527fed66efa13df72a92822464200dee6f3956d280efc155228b3c58dbc44a5f8e4790602090a1005b6040516312171d8360e31b8152fd5b610a719250803d1061058857610579818361152b565b5f80610a17565b604051631e9acf1760e31b81528490fd5b610aa09150853d87116105ea576105dc818361152b565b5f6109cc565b60405163162908e360e11b81528490fd5b604051635c427cd960e01b81528490fd5b346101de5760203660031901126101de576001600160a01b03610ae96101c8565b16805f52600560205260ff60405f2054161561032f575f526004602052602060405f2054604051908152f35b346101de575f3660031901126101de576020600754604051908152f35b346101de5760203660031901126101de576001600160a01b03610b536101c8565b165f526005602052602060ff60405f2054166040519015158152f35b346101de5760203660031901126101de576001600160a01b03610b906101c8565b165f52600a602052602060405f2054604051908152f35b346101de5760603660031901126101de5760243567ffffffffffffffff80821682036101de57604435918183116101de57366023840112156101de5782600401359182116101de573660248360051b850101116101de57602461055293019060043561195c565b346101de575f3660031901126101de57610c26611e5f565b5f6001600160a01b0381546001600160a01b031981168355167f8be0079c531659141344cd1fd0a4f28419497f9722a3daafe3b4186f6b6457e08280a3005b346101de5760203660031901126101de576060610c806101c8565b5f906001600160a01b035f91165f52600960205260405f205480610cb3575b604051921515835260208301526040820152f35b915050600190805f526008602052600360405f20015490610c9f565b346101de575f3660031901126101de5760206001600160a01b035f5416604051908152f35b346101de5760203660031901126101de576004355f52600860205260a060405f208054906001600160a01b0360018201541690600281015460ff60046003840154930154169260405194855260208501526040840152606083015215156080820152f35b346101de575f3660031901126101de5760206001600160a01b0360025416604051908152f35b346101de5760203660031901126101de57610d976101c8565b610d9f611e5f565b6001600160a01b0380911690811561067c57600354826001600160a01b0319821617600355167fa8eb7374d35d2ee99740e012a28e2ac715a2511911850022b0a19e463a223a0d5f80a3005b346101de5760403660031901126101de576001600160a01b03610e0c6101c8565b610e14611e5f565b16801561067c576020610e675f92610e3384546001600160a01b031690565b60405163a9059cbb60e01b81526001600160a01b039091166004820152602480359082015293849283919082906044820190565b03925af1801561058f57610e7757005b6105529060203d60201161058857610579818361152b565b346101de575f3660031901126101de57610ea7611e3c565b610ec861023a610233336001600160a01b03165f52600560205260405f2090565b61032f57335f908152600960205260409020546110c3576001600160a01b03610ef96003546001600160a01b031690565b168061100c575b335f90815260046020526040902054610fb5610f2d610f1d611c7d565b83610f2782611cab565b526124a9565b91610f366115b3565b8381523360208201529060408201524260608201525f6080820152610f63835f52600860205260405f2090565b600460809183518155600181016001600160a01b036020860151166001600160a01b0319825416179055604084015160028201556060840151600382015501910151151560ff80198354169116179055565b80610fd1336001600160a01b03165f52600960205260405f2090565b556040805191825242602083015233917f31f69201fab7912e3ec9850e3ab705964bf46d9d4276bdcbb6d05e965e5f54019181908101610546565b803b156101de5760405163e2943c8d60e01b815233600482015260026024820152905f908290604490829084905af1801561058f576110b0575b5061106b61105f61105f6003546001600160a01b031690565b6001600160a01b031690565b803b156101de57604051620c50d560e91b8152336004820152905f908290602490829084905af1801561058f5715610f0057806108876110aa926114f6565b5f610f00565b806108876110bd926114f6565b5f611046565b604051632cd3d71b60e21b8152600490fd5b346101de576020806003193601126101de5760048035916110f4611e3c565b82156113dd5761111b61023a610233336001600160a01b03165f52600560205260405f2090565b6113cf575b604080516323b872dd60e01b8152338482019081523060208201529182018590526001600160a01b039183908290819060600103815f867f0000000000000000000000000000000000000000000000000000000000000000165af190811561058f575f916113b2575b50156113a1576111b96111a567ffffffffffffffff8616612210565b335f90815260046020526040902054612038565b806111d5336001600160a01b03165f52600460205260405f2090565b556111df81611e32565b506111ea33826120d0565b61120f33611209336001600160a01b03165f52600460205260405f2090565b546120d0565b6002546001600160a01b0316828116611391575b506003546001600160a01b0316828116611381575b505061124e611249856006546115a6565b600655565b6003546001600160a01b0316169081611296575b60405184815233907fe1fffcc4923d04b559f4d29a8bfc6cda04eb5b0d3c460751c2402c5c5cc9109c908060208101610546565b60405163082d5ced60e31b8152338482019081528290829081906020010381865afa91821561058f575f92611354575b50506112d1816117a8565b8015908115611340575b506112e7575b80611262565b803b156101de576040805163e2943c8d60e01b81523393810193845260016020850152925f92849290918391859183910103925af1801561058f5761132d575b806112e1565b8061088761133a926114f6565b5f611327565b6003915061134d816117a8565b145f6112db565b6113739250803d1061137a575b61136b818361152b565b810190611cd1565b5f806112c6565b503d611361565b61138a916120d0565b5f80611238565b61139b90826120d0565b5f611223565b6040516379cacff160e01b81528390fd5b6113c99150833d851161058857610579818361152b565b5f611189565b6113d833611f6c565b611120565b5060405163162908e360e11b8152fd5b346101de5760203660031901126101de576001600160a01b0361140e6101c8565b165f526009602052602060405f2054604051908152f35b346101de5760203660031901126101de5761143e6101c8565b611446611e5f565b6001600160a01b03809116908115611490575f54826001600160a01b03198216175f55167f8be0079c531659141344cd1fd0a4f28419497f9722a3daafe3b4186f6b6457e05f80a3005b604051631e4fbdf760e01b81525f6004820152602490fd5b346101de575f3660031901126101de576020604051620151808152f35b346101de575f3660031901126101de576020600654604051908152f35b634e487b7160e01b5f52604160045260245ffd5b67ffffffffffffffff811161150a57604052565b6114e2565b6040810190811067ffffffffffffffff82111761150a57604052565b90601f8019910116810190811067ffffffffffffffff82111761150a57604052565b908160209103126101de575190565b6040513d5f823e3d90fd5b908160209103126101de575180151581036101de5790565b634e487b7160e01b5f52601160045260245ffd5b90602082018092116115a157565b61157f565b919082018092116115a157565b6040519060a0820182811067ffffffffffffffff82111761150a57604052565b67ffffffffffffffff811161150a57601f01601f191660200190565b604051906020820182811067ffffffffffffffff82111761150a576040525f8252565b6040519061161f8261150f565b601782527f42616c616e6365206e6f7420696e697469616c697a65640000000000000000006020830152565b604051906116588261150f565b601a82527f5769746864726177616c20616c72656164792070656e64696e670000000000006020830152565b919082039182116115a157565b6040519061169e8261150f565b601682527f436f6f6c646f776e20706572696f6420616374697665000000000000000000006020830152565b6001600160a01b0381165f9081526005602052604090205460ff161561178957611705816001600160a01b03165f52600960205260405f2090565b5461177e57611725816001600160a01b03165f52600a60205260405f2090565b541515908161174c575b506117425760019061173f6115ef565b90565b5f9061173f611691565b620151809150611770611777916001600160a01b03165f52600a60205260405f2090565b5442611684565b105f61172f565b505f9061173f61164b565b505f9061173f611612565b634e487b7160e01b5f52602160045260245ffd5b600411156117b257565b611794565b67ffffffffffffffff811161150a5760051b60200190565b929190926117dc846117b7565b916040946117ed604051948561152b565b839581855260208095019160051b8401938385116101de5780925b8584106118185750505050505050565b833567ffffffffffffffff81116101de57820185601f820112156101de57803591611842836115d3565b61184e8651918261152b565b838152878a85850101116101de575f8a858196828097018386013783010152815201930192611808565b1561187f57565b60405162461bcd60e51b815260206004820152601c60248201527f5769746864726177616c20616c72656164792070726f636573736564000000006044820152606490fd5b156118cb57565b60405162461bcd60e51b815260206004820152601960248201527f496e73756666696369656e7420706f6f6c2062616c616e6365000000000000006044820152606490fd5b1561191757565b60405162461bcd60e51b815260206004820152601460248201527f55534443207472616e73666572206661696c65640000000000000000000000006044820152606490fd5b9092611970611984936119769236916117cf565b82611e8a565b5f52600860205260405f2090565b906119cf67ffffffffffffffff6119bf600160048601956119b16119ac61023a895460ff1690565b611878565b01546001600160a01b031690565b921692600160ff19825416179055565b5f6119eb826001600160a01b03165f52600960205260405f2090565b556119f46121af565b80611a10836001600160a01b03165f52600460205260405f2090565b55611a1a81611e32565b50611a2582826120d0565b6002546001600160a01b039190821680611c6d575b506003546001600160a01b0316828116611c5d575b505080611a646003546001600160a01b031690565b1680611c07575b5042611a88836001600160a01b03165f52600a60205260405f2090565b55611ab1611aa7836001600160a01b03165f52600560205260405f2090565b805460ff19169055565b82611aed575b604080519384524260208501529116917f35fc39e80f531e18729cd92611935c06db664fc014e88f0b60f14699df88377b9190a2565b6040516370a0823160e01b81523060048201527f0000000000000000000000000000000000000000000000000000000000000000821692906020908181602481885afa90811561058f57611b4c9187915f91611bea575b5010156118c4565b60405163a9059cbb60e01b81526001600160a01b038316600482015260248101869052938190859060449082905f905af1801561058f577f35fc39e80f531e18729cd92611935c06db664fc014e88f0b60f14699df88377b94611bb7925f92611bcd575b5050611910565b611bc6610535856007546115a6565b9150611ab7565b611be39250803d1061058857610579818361152b565b5f80611bb0565b611c019150843d86116105ea576105dc818361152b565b5f611b44565b803b156101de5760405163e2943c8d60e01b81526001600160a01b038416600482015260036024820152905f908290604490829084905af1801561058f5715611a6b5780610887611c57926114f6565b5f611a6b565b611c66916120d0565b5f80611a4f565b611c7790826120d0565b5f611a3a565b60405190611c8a8261150f565b6001825260203681840137565b634e487b7160e01b5f52603260045260245ffd5b805115611cb85760200190565b611c97565b8051821015611cb85760209160051b010190565b908160209103126101de575160048110156101de5790565b908115611d8a575b8015611d78575b60209060646001600160a01b037fed8d60e34876f751cc8b014c560745351147d9de11b9347c854e881b128ea6015416935f6040519586948593631391547f60e01b8552600485015260248401528160448401525af190811561058f575f91611d5f575090565b61173f915060203d6020116105ea576105dc818361152b565b506020611d836121af565b9050611cf8565b9050611d946121af565b90611cf1565b908115611e22575b8015611e10575b60209060646001600160a01b037fed8d60e34876f751cc8b014c560745351147d9de11b9347c854e881b128ea6015416935f60405195869485936303056db360e31b8552600485015260248401528160448401525af190811561058f575f91611d5f575090565b506020611e1b6121af565b9050611da9565b9050611e2c6121af565b90611da2565b61173f30826120d0565b600260015414611e4d576002600155565b604051633ee5aeb560e01b8152600490fd5b6001600160a01b035f54163303611e7257565b60405163118cdaa760e01b8152336004820152602490fd5b90815f527f5ea69329017273582817d320489fbd94f775580e90c092699ca6f3d12fdf7d026020908060205260405f205415611f5a57835f5260205260405f206040519182602083549182815201925f5260205f20915f905b828210611f4357505050509181611f0261023a93611f0795038261152b565b61235e565b611f31577f1af0453083661051f6e56e5c070792320652e612154bf9af8637bb1e7655b99d5f80a2565b60405163cf6c44e960e01b8152600490fd5b835485529384019360019384019390910190611ee3565b60405163d66ca67560e01b8152600490fd5b60ff611f89826001600160a01b03165f52600560205260405f2090565b54166120355761200661201391611f9e6121af565b80611fba836001600160a01b03165f52600460205260405f2090565b55611fc530826120d0565b611fcf82826120d0565b6001600160a01b03806002541680612025575b506003541680612015575b50506001600160a01b03165f52600560205260405f2090565b805460ff19166001179055565b565b61201e916120d0565b5f80611fed565b61202f90836120d0565b5f611fe2565b50565b9081156120c0575b80156120ae575b60209060646001600160a01b037fed8d60e34876f751cc8b014c560745351147d9de11b9347c854e881b128ea6015416935f604051958694859363022f65e760e31b8552600485015260248401528160448401525af190811561058f575f91611d5f575090565b5060206120b96121af565b9050612047565b90506120ca6121af565b90612040565b6001600160a01b0391827fed8d60e34876f751cc8b014c560745351147d9de11b9347c854e881b128ea6005416803b156101de575f92836044926040519687958694635ca4b5b160e11b865260048601521660248401525af1801561058f576121365750565b612013906114f6565b9060646020925f6001600160a01b037fed8d60e34876f751cc8b014c560745351147d9de11b9347c854e881b128ea60154166040519687958694637702dcff60e01b86526004860152602485015260448401525af190811561058f575f91611d5f575090565b605411156117b257565b5f60206001600160a01b037fed8d60e34876f751cc8b014c560745351147d9de11b9347c854e881b128ea6015416604460405180948193639cd07acb60e01b8352816004840152600560248401525af190811561058f575f91611d5f575090565b60205f9160446001600160a01b037fed8d60e34876f751cc8b014c560745351147d9de11b9347c854e881b128ea6015416916040519485938492639cd07acb60e01b84526004840152600560248401525af190811561058f575f91611d5f575090565b9061227d826115d3565b61228a604051918261152b565b828152809261229b601f19916115d3565b0190602036910137565b9081518082526020808093019301915f5b8281106122c4575050505090565b8351855293810193928101926001016122b6565b91906122ef6122fe916060855260608501906122a5565b602092848203848601526106db565b9160408184039101528251908183528083019281808460051b8301019501935f915b8483106123305750505050505090565b909192939495848061234e600193601f198682030187528a516106db565b9801930193019194939290612320565b80515f905f905b8082106124125750509160209161237e6123e494611593565b61238781612273565b906024858301375f6123c661105f61105f7fed8d60e34876f751cc8b014c560745351147d9de11b9347c854e881b128ea602546001600160a01b031690565b9260405196879586948593632c027b1360e21b8552600485016122d8565b03925af190811561058f575f916123f9575090565b61173f915060203d60201161058857610579818361152b565b909160096124208486611cbd565b51601e1a61242d816121a5565b612436816121a5565b101561244f57612447600191611593565b920190612365565b60405163ce54a8d160e01b8152600490fd5b90602061173f9281815201906122a5565b929161248b9184526060602085015260608401906122a5565b916040635a16484160e01b910152565b5f1981146115a15760010190565b907f5ea69329017273582817d320489fbd94f775580e90c092699ca6f3d12fdf7d019182549261250661105f61105f7fed8d60e34876f751cc8b014c560745351147d9de11b9347c854e881b128ea600546001600160a01b031690565b803b156101de575f6040518092637d6e912360e11b825281838161252d8960048301612461565b03925af1801561058f576125fc575b5061257461105f61105f7f5ea69329017273582817d320489fbd94f775580e90c092699ca6f3d12fdf7d00546001600160a01b031690565b90813b156101de575f6040518093633263b83b60e01b825281838161259d898c60048401612472565b03925af1801561058f57612013936125c5936125bf926125e9575b508661260f565b5461249b565b7f5ea69329017273582817d320489fbd94f775580e90c092699ca6f3d12fdf7d0155565b806108876125f6926114f6565b5f6125b8565b80610887612609926114f6565b5f61253c565b805f527f5ea69329017273582817d320489fbd94f775580e90c092699ca6f3d12fdf7d026020918160205260405f20546126d7575f5260205260405f209082519267ffffffffffffffff841161150a5768010000000000000000841161150a5782548484558085106126b1575b50602061268e9101925f5260205f2090565b905f5b84811061269f575050505050565b83518382015592810192600101612691565b835f528460205f2091820191015b8181106126cc575061267c565b5f81556001016126bf565b604051633f06d22b60e01b8152600490fdfea164736f6c6343000818000a",
  "devdoc": {
    "details": "Uses Zama FHE to maintain encrypted balance records",
    "errors": {
      "OwnableInvalidOwner(address)": [
        {
          "details": "The owner is not a valid owner account. (eg. `address(0)`)"
        }
      ],
      "OwnableUnauthorizedAccount(address)": [
        {
          "details": "The caller account is not authorized to perform an operation."
        }
      ],
      "ReentrancyGuardReentrantCall()": [
        {
          "details": "Unauthorized reentrant call."
        }
      ]
    },
    "kind": "dev",
    "methods": {
      "canWithdraw(address)": {
        "params": {
          "user": "User address"
        },
        "returns": {
          "allowed": "Whether user can initiate withdrawal",
          "reason": "Reason if cannot withdraw"
        }
      },
      "cancelWithdrawal()": {
        "details": "Note: FHEVM decryption requests cannot be cancelled once submitted"
      },
      "constructor": {
        "params": {
          "_owner": "Owner of the contract",
          "_usdcToken": "Address of USDC token contract"
        }
      },
      "deductBalance(address,bytes32)": {
        "params": {
          "amount": "The encrypted amount to deduct",
          "user": "The user address"
        },
        "returns": {
          "success": "Whether the deduction was successful"
        }
      },
      "deposit(uint256)": {
        "params": {
          "amount": "The amount of USDC to deposit"
        }
      },
      "getEncryptedBalance(address)": {
        "params": {
          "user": "The user address"
        },
        "returns": {
          "_0": "The encrypted balance"
        }
      },
      "getTotalPoolBalance()": {
        "returns": {
          "_0": "The total balance"
        }
      },
      "getWithdrawalStatus(address)": {
        "params": {
          "user": "User address"
        },
        "returns": {
          "pending": "Whether user has pending withdrawal",
          "requestId": "The request ID if pending",
          "timestamp": "The request timestamp if pending"
        }
      },
      "initiateWithdrawal()": {
        "details": "Starts the withdrawal process by requesting decryption of balances"
      },
      "onWithdrawalDecrypted(uint256,uint64,bytes[])": {
        "params": {
          "decryptedBalance": "The decrypted balance amount",
          "requestId": "The request ID from FHEVM decryption service",
          "signatures": "Cryptographic signatures for verification"
        }
      },
      "owner()": {
        "details": "Returns the address of the current owner."
      },
      "recoverToken(address,uint256)": {
        "params": {
          "amount": "The amount to recover",
          "token": "The token to recover"
        }
      },
      "renounceOwnership()": {
        "details": "Leaves the contract without owner. It will not be possible to call `onlyOwner` functions. Can only be called by the current owner. NOTE: Renouncing ownership will leave the contract without an owner, thereby disabling any functionality that is only available to the owner."
      },
      "setBatchProcessor(address)": {
        "params": {
          "_batchProcessor": "New batch processor address"
        }
      },
      "setIntentCollector(address)": {
        "params": {
          "_intentCollector": "New intent collector address"
        }
      },
      "transferOwnership(address)": {
        "details": "Transfers ownership of the contract to a new account (`newOwner`). Can only be called by the current owner."
      },
      "transferToBatchProcessor(uint256)": {
        "params": {
          "amount": "The amount to transfer"
        }
      },
      "withdraw(uint256,bytes)": {
        "details": "proof parameter is deprecated and not used",
        "params": {
          "amount": "Plain amount to withdraw"
        }
      }
    },
    "title": "FundPool",
    "version": 1
  },
  "userdoc": {
    "errors": {
      "HandlesAlreadySavedForRequestID()": [
        {
          "notice": "Returned if some handles were already saved for corresponding ID."
        }
      ],
      "InvalidKMSSignatures()": [
        {
          "notice": "Returned if the returned KMS signatures are not valid."
        }
      ],
      "NoHandleFoundForRequestID()": [
        {
          "notice": "Returned if there was not handle found for the requested ID."
        }
      ],
      "UnauthorizedCaller()": [
        {
          "notice": "Custom errors"
        }
      ],
      "UnsupportedHandleType()": [
        {
          "notice": "Returned if the requested handle to be decrypted is not of a supported type."
        }
      ]
    },
    "events": {
      "DecryptionFulfilled(uint256)": {
        "notice": "This event is emitted when requested decryption has been fulfilled."
      },
      "Deposit(address,uint256)": {
        "notice": "Events"
      }
    },
    "kind": "user",
    "methods": {
      "WITHDRAWAL_COOLDOWN()": {
        "notice": "Withdrawal cooldown period (24 hours)"
      },
      "activeWithdrawalRequest(address)": {
        "notice": "Mapping from user to their active withdrawal request ID"
      },
      "batchProcessor()": {
        "notice": "BatchProcessor contract address (authorized to deduct balances)"
      },
      "canWithdraw(address)": {
        "notice": "Check if user can withdraw"
      },
      "cancelWithdrawal()": {
        "notice": "Cancel a pending withdrawal request"
      },
      "constructor": {
        "notice": "Constructor"
      },
      "deductBalance(address,bytes32)": {
        "notice": "Deduct encrypted amount from user's balance (only callable by BatchProcessor)"
      },
      "deposit(uint256)": {
        "notice": "Deposit USDC and record encrypted balance"
      },
      "getEncryptedBalance(address)": {
        "notice": "Get encrypted balance for a user"
      },
      "getTotalPoolBalance()": {
        "notice": "Get the total USDC balance held by the pool"
      },
      "getWithdrawalStatus(address)": {
        "notice": "Get withdrawal request status"
      },
      "initiateWithdrawal()": {
        "notice": "Initiate full withdrawal of all funds"
      },
      "intentCollector()": {
        "notice": "IntentCollector contract address (authorized to check balances)"
      },
      "isBalanceInitialized(address)": {
        "notice": "Track if user has initialized their encrypted balance"
      },
      "lastWithdrawalTime(address)": {
        "notice": "Last withdrawal timestamp for each user"
      },
      "onWithdrawalDecrypted(uint256,uint64,bytes[])": {
        "notice": "Callback for withdrawal decryption (standard FHEVM pattern)"
      },
      "recoverToken(address,uint256)": {
        "notice": "Emergency function to recover stuck tokens"
      },
      "setBatchProcessor(address)": {
        "notice": "Set the batch processor address"
      },
      "setIntentCollector(address)": {
        "notice": "Set the intent collector address"
      },
      "totalDeposited()": {
        "notice": "Total USDC deposited (for security tracking)"
      },
      "totalWithdrawn()": {
        "notice": "Total USDC withdrawn (for security tracking)"
      },
      "transferToBatchProcessor(uint256)": {
        "notice": "Transfer aggregated USDC to BatchProcessor for swap"
      },
      "usdcToken()": {
        "notice": "USDC token contract"
      },
      "withdraw(uint256,bytes)": {
        "notice": "Legacy withdraw function (deprecated, kept for interface compatibility)"
      },
      "withdrawalRequests(uint256)": {
        "notice": "Mapping from request ID to withdrawal request"
      }
    },
    "notice": "Manages encrypted user USDC deposits for privacy-preserving DCA",
    "version": 1
  },
  "storageLayout": {
    "storage": [
      {
        "astId": 39118,
        "contract": "contracts/FundPool.sol:FundPool",
        "label": "_owner",
        "offset": 0,
        "slot": "0",
        "type": "t_address"
      },
      {
        "astId": 39298,
        "contract": "contracts/FundPool.sol:FundPool",
        "label": "_status",
        "offset": 0,
        "slot": "1",
        "type": "t_uint256"
      },
      {
        "astId": 41725,
        "contract": "contracts/FundPool.sol:FundPool",
        "label": "batchProcessor",
        "offset": 0,
        "slot": "2",
        "type": "t_address"
      },
      {
        "astId": 41728,
        "contract": "contracts/FundPool.sol:FundPool",
        "label": "intentCollector",
        "offset": 0,
        "slot": "3",
        "type": "t_address"
      },
      {
        "astId": 41734,
        "contract": "contracts/FundPool.sol:FundPool",
        "label": "encryptedBalances",
        "offset": 0,
        "slot": "4",
        "type": "t_mapping(t_address,t_userDefinedValueType(euint64)45858)"
      },
      {
        "astId": 41739,
        "contract": "contracts/FundPool.sol:FundPool",
        "label": "isBalanceInitialized",
        "offset": 0,
        "slot": "5",
        "type": "t_mapping(t_address,t_bool)"
      },
      {
        "astId": 41742,
        "contract": "contracts/FundPool.sol:FundPool",
        "label": "totalDeposited",
        "offset": 0,
        "slot": "6",
        "type": "t_uint256"
      },
      {
        "astId": 41745,
        "contract": "contracts/FundPool.sol:FundPool",
        "label": "totalWithdrawn",
        "offset": 0,
        "slot": "7",
        "type": "t_uint256"
      },
      {
        "astId": 41751,
        "contract": "contracts/FundPool.sol:FundPool",
        "label": "withdrawalRequests",
        "offset": 0,
        "slot": "8",
        "type": "t_mapping(t_uint256,t_struct(WithdrawalRequest)41718_storage)"
      },
      {
        "astId": 41756,
        "contract": "contracts/FundPool.sol:FundPool",
        "label": "activeWithdrawalRequest",
        "offset": 0,
        "slot": "9",
        "type": "t_mapping(t_address,t_uint256)"
      },
      {
        "astId": 41765,
        "contract": "contracts/FundPool.sol:FundPool",
        "label": "lastWithdrawalTime",
        "offset": 0,
        "slot": "10",
        "type": "t_mapping(t_address,t_uint256)"
      }
    ],
    "types": {
      "t_address": {
        "encoding": "inplace",
        "label": "address",
        "numberOfBytes": "20"
      },
      "t_bool": {
        "encoding": "inplace",
        "label": "bool",
        "numberOfBytes": "1"
      },
      "t_mapping(t_address,t_bool)": {
        "encoding": "mapping",
        "key": "t_address",
        "label": "mapping(address => bool)",
        "numberOfBytes": "32",
        "value": "t_bool"
      },
      "t_mapping(t_address,t_uint256)": {
        "encoding": "mapping",
        "key": "t_address",
        "label": "mapping(address => uint256)",
        "numberOfBytes": "32",
        "value": "t_uint256"
      },
      "t_mapping(t_address,t_userDefinedValueType(euint64)45858)": {
        "encoding": "mapping",
        "key": "t_address",
        "label": "mapping(address => euint64)",
        "numberOfBytes": "32",
        "value": "t_userDefinedValueType(euint64)45858"
      },
      "t_mapping(t_uint256,t_struct(WithdrawalRequest)41718_storage)": {
        "encoding": "mapping",
        "key": "t_uint256",
        "label": "mapping(uint256 => struct FundPool.WithdrawalRequest)",
        "numberOfBytes": "32",
        "value": "t_struct(WithdrawalRequest)41718_storage"
      },
      "t_struct(WithdrawalRequest)41718_storage": {
        "encoding": "inplace",
        "label": "struct FundPool.WithdrawalRequest",
        "members": [
          {
            "astId": 41708,
            "contract": "contracts/FundPool.sol:FundPool",
            "label": "requestId",
            "offset": 0,
            "slot": "0",
            "type": "t_uint256"
          },
          {
            "astId": 41710,
            "contract": "contracts/FundPool.sol:FundPool",
            "label": "user",
            "offset": 0,
            "slot": "1",
            "type": "t_address"
          },
          {
            "astId": 41713,
            "contract": "contracts/FundPool.sol:FundPool",
            "label": "encryptedBalance",
            "offset": 0,
            "slot": "2",
            "type": "t_userDefinedValueType(euint64)45858"
          },
          {
            "astId": 41715,
            "contract": "contracts/FundPool.sol:FundPool",
            "label": "timestamp",
            "offset": 0,
            "slot": "3",
            "type": "t_uint256"
          },
          {
            "astId": 41717,
            "contract": "contracts/FundPool.sol:FundPool",
            "label": "processed",
            "offset": 0,
            "slot": "4",
            "type": "t_bool"
          }
        ],
        "numberOfBytes": "160"
      },
      "t_uint256": {
        "encoding": "inplace",
        "label": "uint256",
        "numberOfBytes": "32"
      },
      "t_userDefinedValueType(euint64)45858": {
        "encoding": "inplace",
        "label": "euint64",
        "numberOfBytes": "32"
      }
    }
  }
}