{
  "address": "0x768Dd3993b5Ce23B64De65Db678f843564cbeCd5",
  "abi": [
    {
      "inputs": [
        {
          "internalType": "address",
          "name": "_owner",
          "type": "address"
        }
      ],
      "stateMutability": "nonpayable",
      "type": "constructor"
    },
    {
      "inputs": [],
      "name": "BatchNotReady",
      "type": "error"
    },
    {
      "inputs": [],
      "name": "FundPoolNotSet",
      "type": "error"
    },
    {
      "inputs": [],
      "name": "InsufficientFundPoolBalance",
      "type": "error"
    },
    {
      "inputs": [],
      "name": "IntentAlreadyProcessed",
      "type": "error"
    },
    {
      "inputs": [],
      "name": "IntentNotFound",
      "type": "error"
    },
    {
      "inputs": [],
      "name": "InvalidBatchProcessor",
      "type": "error"
    },
    {
      "inputs": [],
      "name": "InvalidIntentParameters",
      "type": "error"
    },
    {
      "inputs": [],
      "name": "InvalidUserState",
      "type": "error"
    },
    {
      "inputs": [
        {
          "internalType": "address",
          "name": "owner",
          "type": "address"
        }
      ],
      "name": "OwnableInvalidOwner",
      "type": "error"
    },
    {
      "inputs": [
        {
          "internalType": "address",
          "name": "account",
          "type": "address"
        }
      ],
      "name": "OwnableUnauthorizedAccount",
      "type": "error"
    },
    {
      "inputs": [],
      "name": "ReentrancyGuardReentrantCall",
      "type": "error"
    },
    {
      "inputs": [],
      "name": "UnauthorizedCaller",
      "type": "error"
    },
    {
      "inputs": [],
      "name": "UserNotActive",
      "type": "error"
    },
    {
      "anonymous": false,
      "inputs": [
        {
          "indexed": true,
          "internalType": "address",
          "name": "oldProcessor",
          "type": "address"
        },
        {
          "indexed": true,
          "internalType": "address",
          "name": "newProcessor",
          "type": "address"
        }
      ],
      "name": "BatchProcessorUpdated",
      "type": "event"
    },
    {
      "anonymous": false,
      "inputs": [
        {
          "indexed": true,
          "internalType": "uint256",
          "name": "batchId",
          "type": "uint256"
        },
        {
          "indexed": false,
          "internalType": "uint256",
          "name": "intentCount",
          "type": "uint256"
        },
        {
          "indexed": false,
          "internalType": "uint256",
          "name": "timestamp",
          "type": "uint256"
        }
      ],
      "name": "BatchReady",
      "type": "event"
    },
    {
      "anonymous": false,
      "inputs": [
        {
          "indexed": true,
          "internalType": "uint256",
          "name": "intentId",
          "type": "uint256"
        },
        {
          "indexed": true,
          "internalType": "uint256",
          "name": "batchId",
          "type": "uint256"
        },
        {
          "indexed": false,
          "internalType": "bool",
          "name": "success",
          "type": "bool"
        }
      ],
      "name": "IntentProcessed",
      "type": "event"
    },
    {
      "anonymous": false,
      "inputs": [
        {
          "indexed": true,
          "internalType": "uint256",
          "name": "intentId",
          "type": "uint256"
        },
        {
          "indexed": true,
          "internalType": "address",
          "name": "user",
          "type": "address"
        },
        {
          "indexed": true,
          "internalType": "uint256",
          "name": "batchId",
          "type": "uint256"
        },
        {
          "indexed": false,
          "internalType": "uint256",
          "name": "timestamp",
          "type": "uint256"
        }
      ],
      "name": "IntentSubmitted",
      "type": "event"
    },
    {
      "anonymous": false,
      "inputs": [
        {
          "indexed": true,
          "internalType": "address",
          "name": "previousOwner",
          "type": "address"
        },
        {
          "indexed": true,
          "internalType": "address",
          "name": "newOwner",
          "type": "address"
        }
      ],
      "name": "OwnershipTransferred",
      "type": "event"
    },
    {
      "anonymous": false,
      "inputs": [
        {
          "indexed": true,
          "internalType": "address",
          "name": "user",
          "type": "address"
        },
        {
          "indexed": false,
          "internalType": "uint256[]",
          "name": "intentIds",
          "type": "uint256[]"
        },
        {
          "indexed": false,
          "internalType": "uint256",
          "name": "timestamp",
          "type": "uint256"
        }
      ],
      "name": "UserIntentsCancelled",
      "type": "event"
    },
    {
      "anonymous": false,
      "inputs": [
        {
          "indexed": true,
          "internalType": "address",
          "name": "user",
          "type": "address"
        },
        {
          "indexed": false,
          "internalType": "enum IntentCollector.UserState",
          "name": "oldState",
          "type": "uint8"
        },
        {
          "indexed": false,
          "internalType": "enum IntentCollector.UserState",
          "name": "newState",
          "type": "uint8"
        },
        {
          "indexed": false,
          "internalType": "uint256",
          "name": "timestamp",
          "type": "uint256"
        }
      ],
      "name": "UserStateChanged",
      "type": "event"
    },
    {
      "inputs": [],
      "name": "BATCH_TIMEOUT",
      "outputs": [
        {
          "internalType": "uint256",
          "name": "",
          "type": "uint256"
        }
      ],
      "stateMutability": "view",
      "type": "function"
    },
    {
      "inputs": [],
      "name": "batchCounter",
      "outputs": [
        {
          "internalType": "uint256",
          "name": "",
          "type": "uint256"
        }
      ],
      "stateMutability": "view",
      "type": "function"
    },
    {
      "inputs": [
        {
          "internalType": "uint256",
          "name": "",
          "type": "uint256"
        },
        {
          "internalType": "uint256",
          "name": "",
          "type": "uint256"
        }
      ],
      "name": "batchIntents",
      "outputs": [
        {
          "internalType": "uint256",
          "name": "",
          "type": "uint256"
        }
      ],
      "stateMutability": "view",
      "type": "function"
    },
    {
      "inputs": [],
      "name": "batchProcessor",
      "outputs": [
        {
          "internalType": "address",
          "name": "",
          "type": "address"
        }
      ],
      "stateMutability": "view",
      "type": "function"
    },
    {
      "inputs": [
        {
          "internalType": "address",
          "name": "user",
          "type": "address"
        }
      ],
      "name": "canSubmitIntent",
      "outputs": [
        {
          "internalType": "bool",
          "name": "",
          "type": "bool"
        }
      ],
      "stateMutability": "view",
      "type": "function"
    },
    {
      "inputs": [
        {
          "internalType": "address",
          "name": "user",
          "type": "address"
        }
      ],
      "name": "cancelUserIntents",
      "outputs": [],
      "stateMutability": "nonpayable",
      "type": "function"
    },
    {
      "inputs": [],
      "name": "checkBatchReady",
      "outputs": [
        {
          "internalType": "bool",
          "name": "isReady",
          "type": "bool"
        },
        {
          "internalType": "uint256",
          "name": "batchId",
          "type": "uint256"
        }
      ],
      "stateMutability": "view",
      "type": "function"
    },
    {
      "inputs": [],
      "name": "currentBatchStartTime",
      "outputs": [
        {
          "internalType": "uint256",
          "name": "",
          "type": "uint256"
        }
      ],
      "stateMutability": "view",
      "type": "function"
    },
    {
      "inputs": [
        {
          "internalType": "uint256[]",
          "name": "intentIds",
          "type": "uint256[]"
        }
      ],
      "name": "filterActiveIntents",
      "outputs": [
        {
          "internalType": "uint256[]",
          "name": "activeIntentIds",
          "type": "uint256[]"
        }
      ],
      "stateMutability": "view",
      "type": "function"
    },
    {
      "inputs": [],
      "name": "fundPool",
      "outputs": [
        {
          "internalType": "contract IFundPool",
          "name": "",
          "type": "address"
        }
      ],
      "stateMutability": "view",
      "type": "function"
    },
    {
      "inputs": [
        {
          "internalType": "uint256",
          "name": "batchId",
          "type": "uint256"
        }
      ],
      "name": "getBatchIntents",
      "outputs": [
        {
          "internalType": "uint256[]",
          "name": "intentIds",
          "type": "uint256[]"
        }
      ],
      "stateMutability": "view",
      "type": "function"
    },
    {
      "inputs": [],
      "name": "getBatchStats",
      "outputs": [
        {
          "internalType": "uint256",
          "name": "currentBatch",
          "type": "uint256"
        },
        {
          "internalType": "uint256",
          "name": "pendingCount",
          "type": "uint256"
        },
        {
          "internalType": "uint256",
          "name": "timeRemaining",
          "type": "uint256"
        }
      ],
      "stateMutability": "view",
      "type": "function"
    },
    {
      "inputs": [
        {
          "internalType": "uint256",
          "name": "intentId",
          "type": "uint256"
        }
      ],
      "name": "getIntent",
      "outputs": [
        {
          "components": [
            {
              "internalType": "euint64",
              "name": "budget",
              "type": "bytes32"
            },
            {
              "internalType": "euint32",
              "name": "tradesCount",
              "type": "bytes32"
            },
            {
              "internalType": "euint64",
              "name": "amountPerTrade",
              "type": "bytes32"
            },
            {
              "internalType": "euint32",
              "name": "frequency",
              "type": "bytes32"
            },
            {
              "internalType": "euint64",
              "name": "minPrice",
              "type": "bytes32"
            },
            {
              "internalType": "euint64",
              "name": "maxPrice",
              "type": "bytes32"
            },
            {
              "internalType": "address",
              "name": "user",
              "type": "address"
            },
            {
              "internalType": "uint256",
              "name": "submittedAt",
              "type": "uint256"
            },
            {
              "internalType": "uint256",
              "name": "batchId",
              "type": "uint256"
            },
            {
              "internalType": "bool",
              "name": "isActive",
              "type": "bool"
            },
            {
              "internalType": "bool",
              "name": "isProcessed",
              "type": "bool"
            }
          ],
          "internalType": "struct IntentCollector.EncryptedIntent",
          "name": "intent",
          "type": "tuple"
        }
      ],
      "stateMutability": "view",
      "type": "function"
    },
    {
      "inputs": [],
      "name": "getPendingIntentsCount",
      "outputs": [
        {
          "internalType": "uint256",
          "name": "count",
          "type": "uint256"
        }
      ],
      "stateMutability": "view",
      "type": "function"
    },
    {
      "inputs": [],
      "name": "getReadyBatch",
      "outputs": [
        {
          "internalType": "uint256",
          "name": "batchId",
          "type": "uint256"
        },
        {
          "internalType": "uint256[]",
          "name": "intentIds",
          "type": "uint256[]"
        }
      ],
      "stateMutability": "view",
      "type": "function"
    },
    {
      "inputs": [
        {
          "internalType": "address",
          "name": "user",
          "type": "address"
        }
      ],
      "name": "getUserIntents",
      "outputs": [
        {
          "internalType": "uint256[]",
          "name": "intentIds",
          "type": "uint256[]"
        }
      ],
      "stateMutability": "view",
      "type": "function"
    },
    {
      "inputs": [
        {
          "internalType": "address",
          "name": "user",
          "type": "address"
        }
      ],
      "name": "getUserState",
      "outputs": [
        {
          "internalType": "enum IntentCollector.UserState",
          "name": "",
          "type": "uint8"
        }
      ],
      "stateMutability": "view",
      "type": "function"
    },
    {
      "inputs": [],
      "name": "intentCounter",
      "outputs": [
        {
          "internalType": "uint256",
          "name": "",
          "type": "uint256"
        }
      ],
      "stateMutability": "view",
      "type": "function"
    },
    {
      "inputs": [
        {
          "internalType": "uint256",
          "name": "",
          "type": "uint256"
        }
      ],
      "name": "intents",
      "outputs": [
        {
          "internalType": "euint64",
          "name": "budget",
          "type": "bytes32"
        },
        {
          "internalType": "euint32",
          "name": "tradesCount",
          "type": "bytes32"
        },
        {
          "internalType": "euint64",
          "name": "amountPerTrade",
          "type": "bytes32"
        },
        {
          "internalType": "euint32",
          "name": "frequency",
          "type": "bytes32"
        },
        {
          "internalType": "euint64",
          "name": "minPrice",
          "type": "bytes32"
        },
        {
          "internalType": "euint64",
          "name": "maxPrice",
          "type": "bytes32"
        },
        {
          "internalType": "address",
          "name": "user",
          "type": "address"
        },
        {
          "internalType": "uint256",
          "name": "submittedAt",
          "type": "uint256"
        },
        {
          "internalType": "uint256",
          "name": "batchId",
          "type": "uint256"
        },
        {
          "internalType": "bool",
          "name": "isActive",
          "type": "bool"
        },
        {
          "internalType": "bool",
          "name": "isProcessed",
          "type": "bool"
        }
      ],
      "stateMutability": "view",
      "type": "function"
    },
    {
      "inputs": [
        {
          "internalType": "uint256[]",
          "name": "intentIds",
          "type": "uint256[]"
        },
        {
          "internalType": "bool",
          "name": "success",
          "type": "bool"
        }
      ],
      "name": "markIntentsProcessed",
      "outputs": [],
      "stateMutability": "nonpayable",
      "type": "function"
    },
    {
      "inputs": [],
      "name": "minBatchSize",
      "outputs": [
        {
          "internalType": "uint256",
          "name": "",
          "type": "uint256"
        }
      ],
      "stateMutability": "view",
      "type": "function"
    },
    {
      "inputs": [],
      "name": "owner",
      "outputs": [
        {
          "internalType": "address",
          "name": "",
          "type": "address"
        }
      ],
      "stateMutability": "view",
      "type": "function"
    },
    {
      "inputs": [
        {
          "internalType": "uint256",
          "name": "",
          "type": "uint256"
        }
      ],
      "name": "pendingIntents",
      "outputs": [
        {
          "internalType": "uint256",
          "name": "",
          "type": "uint256"
        }
      ],
      "stateMutability": "view",
      "type": "function"
    },
    {
      "inputs": [],
      "name": "renounceOwnership",
      "outputs": [],
      "stateMutability": "nonpayable",
      "type": "function"
    },
    {
      "inputs": [
        {
          "internalType": "address",
          "name": "_batchProcessor",
          "type": "address"
        }
      ],
      "name": "setBatchProcessor",
      "outputs": [],
      "stateMutability": "nonpayable",
      "type": "function"
    },
    {
      "inputs": [
        {
          "internalType": "address",
          "name": "_fundPool",
          "type": "address"
        }
      ],
      "name": "setFundPool",
      "outputs": [],
      "stateMutability": "nonpayable",
      "type": "function"
    },
    {
      "inputs": [
        {
          "internalType": "uint256",
          "name": "_minBatchSize",
          "type": "uint256"
        }
      ],
      "name": "setMinBatchSize",
      "outputs": [],
      "stateMutability": "nonpayable",
      "type": "function"
    },
    {
      "inputs": [],
      "name": "startNewBatch",
      "outputs": [],
      "stateMutability": "nonpayable",
      "type": "function"
    },
    {
      "inputs": [
        {
          "components": [
            {
              "internalType": "externalEuint64",
              "name": "budgetExt",
              "type": "bytes32"
            },
            {
              "internalType": "externalEuint32",
              "name": "tradesCountExt",
              "type": "bytes32"
            },
            {
              "internalType": "externalEuint64",
              "name": "amountPerTradeExt",
              "type": "bytes32"
            },
            {
              "internalType": "externalEuint32",
              "name": "frequencyExt",
              "type": "bytes32"
            },
            {
              "internalType": "externalEuint64",
              "name": "minPriceExt",
              "type": "bytes32"
            },
            {
              "internalType": "externalEuint64",
              "name": "maxPriceExt",
              "type": "bytes32"
            },
            {
              "internalType": "bytes",
              "name": "proof",
              "type": "bytes"
            }
          ],
          "internalType": "struct IntentCollector.SubmitIntentParams",
          "name": "params",
          "type": "tuple"
        }
      ],
      "name": "submitIntent",
      "outputs": [
        {
          "internalType": "uint256",
          "name": "intentId",
          "type": "uint256"
        }
      ],
      "stateMutability": "nonpayable",
      "type": "function"
    },
    {
      "inputs": [
        {
          "internalType": "address",
          "name": "newOwner",
          "type": "address"
        }
      ],
      "name": "transferOwnership",
      "outputs": [],
      "stateMutability": "nonpayable",
      "type": "function"
    },
    {
      "inputs": [
        {
          "internalType": "address",
          "name": "user",
          "type": "address"
        },
        {
          "internalType": "enum IntentCollector.UserState",
          "name": "newState",
          "type": "uint8"
        }
      ],
      "name": "updateUserState",
      "outputs": [],
      "stateMutability": "nonpayable",
      "type": "function"
    },
    {
      "inputs": [
        {
          "internalType": "address",
          "name": "",
          "type": "address"
        },
        {
          "internalType": "uint256",
          "name": "",
          "type": "uint256"
        }
      ],
      "name": "userIntents",
      "outputs": [
        {
          "internalType": "uint256",
          "name": "",
          "type": "uint256"
        }
      ],
      "stateMutability": "view",
      "type": "function"
    },
    {
      "inputs": [
        {
          "internalType": "address",
          "name": "",
          "type": "address"
        }
      ],
      "name": "userStates",
      "outputs": [
        {
          "internalType": "enum IntentCollector.UserState",
          "name": "",
          "type": "uint8"
        }
      ],
      "stateMutability": "view",
      "type": "function"
    }
  ],
  "transactionHash": "0xcaebb2bdb352e30970d3f5aa38782f6947dc80af7a0f7b6a9bff286a191b5642",
  "args": [
    "0xf8185A9E8DCABE43dcA52f2f649F51BE1E2E972a"
  ],
  "numDeployments": 1,
  "solcInputHash": "ce7e5f58ec57a8da84316662f2242f7e",
  "bytecode": "0x6080346200024757601f6200250238819003918201601f19168301916001600160401b038311848410176200024b578084926020946040528339810103126200024757516001600160a01b03908181169081900362000247575f6060620000656200025f565b8281528260208201528260408201520152620000806200025f565b91606073687820221192c5b662b25367f70076a37bc79b6c9384815273848b0066793bcc60346da1f49049357399b8d595806020830152731364cbbf2cdf5032c47d8226a6f6fbd2afcdacac9182604082015273bc91f3dad1a5f19f8390c400196e58073b6a0bc4938491015260018060a01b0319957fed8d60e34876f751cc8b014c560745351147d9de11b9347c854e881b128ea60090878254161790557fed8d60e34876f751cc8b014c560745351147d9de11b9347c854e881b128ea60190868254161790557fed8d60e34876f751cc8b014c560745351147d9de11b9347c854e881b128ea60290858254161790557fed8d60e34876f751cc8b014c560745351147d9de11b9347c854e881b128ea60390848254161790557f5ea69329017273582817d320489fbd94f775580e90c092699ca6f3d12fdf7d0073a02cda4ca3a71d7c46997716f4283aa851c288128482541617905581156200022f57815f54938416175f5560405192167f8be0079c531659141344cd1fd0a4f28419497f9722a3daafe3b4186f6b6457e05f80a360018055600560085542600b5560016007556122829081620002808239f35b604051631e4fbdf760e01b81525f6004820152602490fd5b5f80fd5b634e487b7160e01b5f52604160045260245ffd5b60405190608082016001600160401b038111838210176200024b5760405256fe60806040526004361015610011575f80fd5b5f3560e01c806307933c8f1461021f57806308e85b9d1461021a5780630ecc535f1461020157806318a1aa00146102155780631ef76deb146102105780631f3525781461020b5780633985618114610206578063416ae7681461020157806346a1a095146101fc57806368233eef146101f75780636ebdff2c146101f257806370f37d27146101ed578063715018a6146101e8578063771fcf5b146101e35780637757e210146101de5780637878efe9146101d95780637eeb1c67146101d457806384ae75f0146101cf5780638593e911146101ca57806389c9c3ae146101c55780638da5cb5b146101c0578063906e277b146101bb57806396ea8d69146101b6578063992a844d146101b1578063a0af698b146101ac578063a8f28bd8146101a7578063bd97661c146101a2578063ce1b69631461019d578063d347bbdd14610198578063e2943c8d14610193578063f2fde38b1461018e578063f5d46091146101895763fa3209b214610184575f80fd5b611693565b611676565b6115f3565b611598565b611548565b611417565b6113cf565b61138a565b611364565b6112e5565b6111a5565b6110ac565b610ff8565b610fa3565b6109d1565b6109b4565b610997565b610937565b61089d565b61084e565b6107f7565b6107d1565b61077a565b61075d565b610690565b61042a565b610665565b610648565b6105cc565b61046c565b61037b565b61023e565b600435906001600160a01b038216820361023a57565b5f80fd5b3461023a57602036600319011261023a57610257610224565b600161027e610277836001600160a01b03165f52600460205260405f2090565b5460ff1690565b6102878161040e565b1480156102a0575b6040519015158152602090f35b0390f35b506102bf610277826001600160a01b03165f52600460205260405f2090565b6102c88161040e565b15806102d9575b61029c915061028f565b50602061032c916103016102f5600a546001600160a01b031690565b6001600160a01b031690565b60405180809581946325a0f94960e11b8352600483019190916001600160a01b036020820193169052565b03915afa80156103765761029c915f91610347575b506102cf565b610369915060203d60201161036f575b6103618183611715565b810190611737565b5f610341565b503d610357565b61174c565b3461023a57602036600319011261023a57610394610224565b61039c611a1e565b6001600160a01b038091169081156103e857600954826001600160a01b0319821617600955167fe3ce8b0c8e08139f4b8a0ae6921a6b230c9db00c66f32343a0d86ac59499f61e5f80a3005b60405163ca9cf31160e01b8152600490fd5b634e487b7160e01b5f52602160045260245ffd5b6004111561041857565b6103fa565b9060048210156104185752565b3461023a57602036600319011261023a576001600160a01b0361044b610224565b165f526004602052602060ff60405f20541661046a604051809261041d565bf35b3461023a57602036600319011261023a57610485610224565b61049d6102f56102f5600a546001600160a01b031690565b33036105b0576104c66104c1826001600160a01b03165f52600360205260405f2090565b611757565b905f6104d283516117ca565b925f5b8151811015610562576104e881836117fc565b5160096104fd825f52600260205260405f2090565b01805460ff8082169182610554575b505061051d575b50506001016104d5565b610547600193929561053661054d9360ff198154169055565b86610541828b6117fc565b52611824565b94611a49565b905f610513565b60081c161590505f8061050c565b50508061056b57005b7fbcc5a6ce9f1931fe4855a14e2324993ab79a1d663c01bd1599bad7b8cb35a583916001600160a01b039184526105ab6040519283921694429083611832565b0390a2005b604051635c427cd960e01b8152600490fd5b5f91031261023a57565b3461023a575f36600319011261023a576001600160a01b036009541633036105b0576105f9600754611824565b60075542600b55600c545f600c558061060e57005b7fdf6966c971051c3d54ec59162606531493a51404a002842f56009d7e5cf4a8c7908101905b81811061063d57005b5f8155600101610634565b3461023a575f36600319011261023a576020600b54604051908152f35b3461023a575f36600319011261023a57604061067f611b51565b600754825191151582526020820152f35b3461023a57602036600319011261023a576004355f52600260205260405f2080549061029c600182015491600281015493600382015491600481015460058201546001600160a01b036006840154169060078401549260096008860154950154966040519a8b9a60ff808b60081c169a16988c999692936001600160a01b03946101409a97939d9c9996929d6101608d019e8d5260208d015260408c015260608b015260808a015260a08901521660c087015260e086015261010085015215156101208401521515910152565b3461023a575f36600319011261023a576020600754604051908152f35b3461023a57602036600319011261023a576001600160a01b0361079b610224565b6107a3611a1e565b1680156107bf576001600160a01b0319600a541617600a555f80f35b604051636241ce0760e11b8152600490fd5b3461023a575f36600319011261023a5760206001600160a01b03600a5416604051908152f35b3461023a575f36600319011261023a5761080f611a1e565b5f6001600160a01b0381546001600160a01b031981168355167f8be0079c531659141344cd1fd0a4f28419497f9722a3daafe3b4186f6b6457e08280a3005b3461023a575f36600319011261023a57602060405161012c8152f35b9081518082526020808093019301915f5b828110610889575050505090565b83518552938101939281019260010161087b565b3461023a575f36600319011261023a57600754604051908182600c54808352602080930190600c5f527fdf6966c971051c3d54ec59162606531493a51404a002842f56009d7e5cf4a8c7935f905b82821061091d5750505061090192500383611715565b61029c604051928392835260406020840152604083019061086a565b8554845260019586019588955093810193909101906108eb565b3461023a575f36600319011261023a57600754600c5490600b544203914283116109925761012c928381106109805750606092505f905b60405192835260208301526040820152f35b8303928311610992576060929061096e565b611810565b3461023a575f36600319011261023a576020600854604051908152f35b3461023a575f36600319011261023a576020600c54604051908152f35b3461023a576020600319818136011261023a57600480359067ffffffffffffffff821161023a5760e082820193833603011261023a57600260015414610f31576002600155610a2b6102f5600a546001600160a01b031690565b916001600160a01b039283811615610f20576001610a5d610277336001600160a01b03165f52600460205260405f2090565b610a668161040e565b03610e74575b5060c4810191610a7c838661185c565b3690610a879261188f565b610a92908635612021565b93610a9d848761185c565b3690610aa89261188f565b610ab690602485013561213b565b93610ac1818861185c565b3690610acc9261188f565b610ada906044860135612021565b93610ae5828961185c565b3690610af09261188f565b610afe90606483013561213b565b97610b09838261185c565b3690610b149261188f565b610b22906084840135612021565b92610b2c9161185c565b3690610b379261188f565b610b449160a40135612021565b94600a54610b58906001600160a01b031690565b6001600160a01b03166040516325a0f94960e11b8152338682019081528b90829081906020010381855afa908115610376575f91610e57575b5015610e465760405163100b713960e21b81523386820190815290918b918391908290819060200103915afa998a156103765761029c9a610bdc928a925f92610e19575b5050611e59565b50610be8600654611824565b97610bf289600655565b82610c058a5f52600260205260405f2090565b95898755836001880155876002880155826003880155860155866005860155610c473360068701906001600160a01b03166001600160a01b0319825416179055565b4260078601556007546008860155610c796009809601610c6e81600160ff19825416179055565b805461ff0019169055565b610c8288611f0a565b50610c8c82611f0a565b50610c9686611f0a565b50610ca081611f0a565b50610caa83611f0a565b50610cb487611f0a565b50610cbf338961219a565b610cc9338361219a565b610cd3338761219a565b610cdd338261219a565b610ce7338461219a565b610cf1338861219a565b84546001600160a01b0316938416610d9f575b8989610d2a81610d25336001600160a01b03165f52600360205260405f2090565b611930565b610d33816118e4565b610d4b81610d256007545f52600560205260405f2090565b600754604051428152339083907fe2e478a14c086ce6ff9ab54df43b5da961d783e749c77b6b69b1401169155df990602090a4610d86611f14565b610d8f60018055565b6040519081529081906020820190565b610ddf610dc996610dcf610def94610dbd610dff98610e0c9d61219a565b88546001600160a01b03165b9061219a565b86546001600160a01b0316610dc9565b84546001600160a01b0316610dc9565b82546001600160a01b0316610dc9565b546001600160a01b031690565b5f80808080808080610d04565b610e389250803d10610e3f575b610e308183611715565b8101906118d5565b5f80610bd5565b503d610e26565b6040516344842cb960e11b81528590fd5b610e6e91508b3d8d1161036f576103618183611715565b5f610b91565b610e92610277336001600160a01b03165f52600460205260405f2090565b610e9b8161040e565b159081610ec8575b5015610eb857610eb233611c04565b5f610a6c565b50604051633613fe9560e01b8152fd5b6040516325a0f94960e11b815233858201908152909250879183918290819060200103915afa908115610376575f91610f03575b505f610ea3565b610f1a9150863d881161036f576103618183611715565b5f610efc565b604051636241ce0760e11b81528390fd5b604051633ee5aeb560e01b8152fd5b634e487b7160e01b5f52603260045260245ffd5b600c54811015610f8957600c5f527fdf6966c971051c3d54ec59162606531493a51404a002842f56009d7e5cf4a8c701905f90565b610f40565b8054821015610f89575f5260205f2001905f90565b3461023a57604036600319011261023a57610fbc610224565b6001600160a01b0360243591165f52600360205260405f20805482101561023a57602091610fe991610f8e565b90549060031b1c604051908152f35b3461023a575f36600319011261023a5760206001600160a01b035f5416604051908152f35b6110aa90929192610160810193805182526020810151602083015260408101516040830152606081015160608301526080810151608083015260a081015160a083015261107a60c082015160c08401906001600160a01b03169052565b60e08181015190830152610100808201519083015261012080820151151590830152610140908101511515910152565b565b3461023a57602036600319011261023a576004355f6101406040516110d0816116df565b8281528260208201528260408201528260608201528260808201528260a08201528260c08201528260e08201528261010082015282610120820152015280158015611155575b6111435761113761113261029c925f52600260205260405f2090565b611970565b6040519182918261101d565b6040516361ae648360e01b8152600490fd5b506006548111611116565b9181601f8401121561023a5782359167ffffffffffffffff831161023a576020808501948460051b01011161023a57565b9060206111a292818152019061086a565b90565b3461023a57602036600319011261023a5760043567ffffffffffffffff811161023a576111d6903690600401611160565b6111df816117ca565b915f915f5b81811061122e575050506111f7816117ca565b915f5b82811061120f576040518061029c8682611191565b8061121c600192846117fc565b5161122782876117fc565b52016111fa565b611239818385611a0e565b3561124f611132825f52600260205260405f2090565b600161128261027761126b60c08501516001600160a01b031690565b6001600160a01b03165f52600460205260405f2090565b61128b8161040e565b1490816112cf575b816112c1575b506112a8575b506001016111e4565b846112ba9161054160019497896117fc565b939061129f565b61014001511590505f611299565b90506112df610120820151151590565b90611293565b3461023a57602036600319011261023a57600435611301611a1e565b80151580611359575b1561131457600855005b60405162461bcd60e51b815260206004820152601260248201527f496e76616c69642062617463682073697a6500000000000000000000000000006044820152606490fd5b50606481111561130a565b3461023a575f36600319011261023a5760206001600160a01b0360095416604051908152f35b3461023a57604036600319011261023a576024356004355f52600560205260405f20805482101561023a576020916113c191610f8e565b90546040519160031b1c8152f35b3461023a57602036600319011261023a576004355f52600560205261029c6113f960405f20611757565b60405191829160208352602083019061086a565b8015150361023a57565b3461023a5760408060031936011261023a5760049060043567ffffffffffffffff811161023a5761144c903690600401611160565b91906024359361145b8561140d565b6009906001600160a01b036009541633036105b0579193851592905f5b81811061148157005b61148c818389611a0e565b358015801561153d575b61152d576114ac815f52600260205260405f2090565b808601805460081c60ff1661151d57805461ff00191661010017815560019392916008918961150f575b50015488518b151581529091907f82818daffc4e6d16642ddb000bb6c27fc4c4ba718f9a955b01308b43e76f291c90602090a301611478565b805460ff191690555f6114d6565b88516397d96e6760e01b81528690fd5b86516361ae648360e01b81528490fd5b506006548111611496565b3461023a57602036600319011261023a57600435600c5481101561023a57602090600c5f527fdf6966c971051c3d54ec59162606531493a51404a002842f56009d7e5cf4a8c70154604051908152f35b3461023a57604036600319011261023a576115b1610224565b602435600481101561023a576001600160a01b0380600a541633141590816115e4575b506105b0576115e291611ce7565b005b9050600954163314155f6115d4565b3461023a57602036600319011261023a5761160c610224565b611614611a1e565b6001600160a01b0380911690811561165e575f54826001600160a01b03198216175f55167f8be0079c531659141344cd1fd0a4f28419497f9722a3daafe3b4186f6b6457e05f80a3005b604051631e4fbdf760e01b81525f6004820152602490fd5b3461023a575f36600319011261023a576020600654604051908152f35b3461023a57602036600319011261023a576001600160a01b036116b4610224565b165f52600360205261029c6113f960405f20611757565b634e487b7160e01b5f52604160045260245ffd5b610160810190811067ffffffffffffffff8211176116fc57604052565b6116cb565b67ffffffffffffffff81116116fc57604052565b90601f8019910116810190811067ffffffffffffffff8211176116fc57604052565b9081602091031261023a57516111a28161140d565b6040513d5f823e3d90fd5b90604051918281549182825260209260208301915f5260205f20935f905b82821061178b575050506110aa92500383611715565b855484526001958601958895509381019390910190611775565b604051906110aa826116df565b67ffffffffffffffff81116116fc5760051b60200190565b906117d4826117b2565b6117e16040519182611715565b82815280926117f2601f19916117b2565b0190602036910137565b8051821015610f895760209160051b010190565b634e487b7160e01b5f52601160045260245ffd5b5f1981146109925760010190565b92919061184960209160408652604086019061086a565b930152565b5f1981019190821161099257565b903590601e198136030182121561023a570180359067ffffffffffffffff821161023a5760200191813603831361023a57565b92919267ffffffffffffffff82116116fc57604051916118b9601f8201601f191660200184611715565b82948184528183011161023a578281602093845f960137010152565b9081602091031261023a575190565b600c54680100000000000000008110156116fc576001810180600c55811015610f8957600c5f527fdf6966c971051c3d54ec59162606531493a51404a002842f56009d7e5cf4a8c70155565b90815491680100000000000000008310156116fc57826119589160016110aa95018155610f8e565b90919082549060031b91821b915f19901b1916179055565b906110aa60ff60096119806117a5565b948054865260018101546020870152600281015460408701526003810154606087015260048101546080870152600581015460a08701526119de6119ce60068301546001600160a01b031690565b6001600160a01b031660c0880152565b600781015460e087015260088101546101008701520154818116151561012086015260081c161515610140840152565b9190811015610f895760051b0190565b6001600160a01b035f54163303611a3157565b60405163118cdaa760e01b8152336004820152602490fd5b600c80545f5b818110611a5d575b50505050565b8254811015610f8957825f5283817fdf6966c971051c3d54ec59162606531493a51404a002842f56009d7e5cf4a8c7015414611a9b57600101611a4f565b919250611aa78161184e565b8210611b0c575b50508054908115611af8575f1982019180831015610f89577fdf6966c971051c3d54ec59162606531493a51404a002842f56009d7e5cf4a8c65f918383520155555f808080611a57565b634e487b7160e01b5f52603160045260245ffd5b611b4a91611b24611b1f611b2d9361184e565b610f54565b92905491610f54565b91909260031b1c9082549060031b91821b915f19901b1916179055565b5f80611aae565b600c54600b54420390428211610992576008541190811591611b71575090565b61012c9150101590565b15611b8257565b60405162461bcd60e51b815260206004820152601860248201527f496e76616c6964207374617465207472616e736974696f6e00000000000000006044820152606490fd5b9060048110156104185760ff80198354169116179055565b611c00604092959493611bf683606081019861041d565b602083019061041d565b0152565b60ff611c21826001600160a01b03165f52600460205260405f2090565b541690611c2d8261040e565b60018214611ce35760606001600160a01b037fc8126d763cb73d5ce3f33e70b48cee471896d9a06f812d935d33125a4857091f92611c6a8561040e565b84611cba575b611c9b611c8e826001600160a01b03165f52600460205260405f2090565b805460ff19166001179055565b611ca8604051809661041d565b600160208601524260408601521692a2565b611cc38561040e565b611ccc8561040e565b6002850315611c7057611cde8561040e565b611c70565b5050565b611d05610277826001600160a01b03165f52600460205260405f2090565b611d0e8361040e565b611d178161040e565b828114611e54577fc8126d763cb73d5ce3f33e70b48cee471896d9a06f812d935d33125a4857091f91611da382611d556001600160a01b039461040e565b80611da857611d638661040e565b611d6f60018714611b7b565b611d9386611d8e856001600160a01b03165f52600460205260405f2090565b611bc7565b6040519384931695429184611bdf565b0390a2565b611db18161040e565b60018103611dee57611dc28661040e565b600286148015611ddb575b611dd690611b7b565b611d6f565b50611de58661040e565b60038614611dcd565b611df78161040e565b60028103611e2e57611e088661040e565b600386148015611e1b57611dd690611b7b565b50611e258661040e565b60018614611dcd565b611e378161040e565b60038103611dd657611e488661040e565b611dd660018714611b7b565b505050565b908115611efa575b8015611ee8575b60209060646001600160a01b037fed8d60e34876f751cc8b014c560745351147d9de11b9347c854e881b128ea6015416935f6040519586948593631391547f60e01b8552600485015260248401528160448401525af1908115610376575f91611ecf575090565b6111a2915060203d602011610e3f57610e308183611715565b506020611ef3612214565b9050611e68565b9050611f04612214565b90611e61565b6111a2308261219a565b611f1c611b51565b611f2257565b6007547ff4b9da0cbe8a3e802fa58a597ad55dc25b8cd41550601dec56d7a4e7b89ca9566040600c548151908152426020820152a2565b9392919084526001600160a01b03602091166020850152608060408501528151918260808601525f5b838110611fa957505050606060a0825f8260059588010152601f8019910116850101930152565b81810183015186820160a001528201611f82565b9392919084526001600160a01b03602091166020850152608060408501528151918260808601525f5b83811061200d57505050606060a0825f8260049588010152601f8019910116850101930152565b81810183015186820160a001528201611fe6565b61208092916020916120606102f56102f57fed8d60e34876f751cc8b014c560745351147d9de11b9347c854e881b128ea601546001600160a01b031690565b905f60405180978195829463196d0b9b60e01b8452339060048501611f59565b03925af1918215610376575f9261211a575b50816120cb6102f56102f57fed8d60e34876f751cc8b014c560745351147d9de11b9347c854e881b128ea600546001600160a01b031690565b803b1561023a57604051630f8e573b60e21b815260048101929092523360248301525f908290604490829084905af18015610376576121075750565b806121146110aa92611701565b806105c2565b61213491925060203d602011610e3f57610e308183611715565b905f612092565b612080929160209161217a6102f56102f57fed8d60e34876f751cc8b014c560745351147d9de11b9347c854e881b128ea601546001600160a01b031690565b905f60405180978195829463196d0b9b60e01b8452339060048501611fbd565b6001600160a01b037fed8d60e34876f751cc8b014c560745351147d9de11b9347c854e881b128ea600541691823b1561023a57604051635ca4b5b160e11b815260048101929092526001600160a01b03166024820152905f908290604490829084905af180156103765761220b5750565b6110aa90611701565b5f60206001600160a01b037fed8d60e34876f751cc8b014c560745351147d9de11b9347c854e881b128ea6015416604460405180948193639cd07acb60e01b8352816004840152600560248401525af1908115610376575f91611ecf57509056fea164736f6c6343000818000a",
  "devdoc": {
    "details": "Uses Zama FHE to encrypt user DCA strategies including price conditions",
    "errors": {
      "OwnableInvalidOwner(address)": [
        {
          "details": "The owner is not a valid owner account. (eg. `address(0)`)"
        }
      ],
      "OwnableUnauthorizedAccount(address)": [
        {
          "details": "The caller account is not authorized to perform an operation."
        }
      ],
      "ReentrancyGuardReentrantCall()": [
        {
          "details": "Unauthorized reentrant call."
        }
      ]
    },
    "kind": "dev",
    "methods": {
      "canSubmitIntent(address)": {
        "params": {
          "user": "User address"
        },
        "returns": {
          "_0": "True if user can submit intents"
        }
      },
      "cancelUserIntents(address)": {
        "params": {
          "user": "User address"
        }
      },
      "checkBatchReady()": {
        "returns": {
          "batchId": "Current batch ID",
          "isReady": "True if batch is ready"
        }
      },
      "constructor": {
        "params": {
          "_owner": "Owner of the contract"
        }
      },
      "filterActiveIntents(uint256[])": {
        "params": {
          "intentIds": "Array of intent IDs to filter"
        },
        "returns": {
          "activeIntentIds": "Array of intent IDs for active users only"
        }
      },
      "getBatchIntents(uint256)": {
        "params": {
          "batchId": "The batch ID"
        },
        "returns": {
          "intentIds": "Array of intent IDs in the batch"
        }
      },
      "getBatchStats()": {
        "returns": {
          "currentBatch": "Current batch ID",
          "pendingCount": "Number of pending intents",
          "timeRemaining": "Seconds until batch timeout (0 if expired)"
        }
      },
      "getIntent(uint256)": {
        "params": {
          "intentId": "The intent ID to query"
        },
        "returns": {
          "intent": "The encrypted intent struct"
        }
      },
      "getPendingIntentsCount()": {
        "returns": {
          "count": "Number of pending intents"
        }
      },
      "getReadyBatch()": {
        "returns": {
          "batchId": "Current batch ID",
          "intentIds": "Array of intent IDs in the batch"
        }
      },
      "getUserIntents(address)": {
        "params": {
          "user": "The user address"
        },
        "returns": {
          "intentIds": "Array of intent IDs for the user"
        }
      },
      "getUserState(address)": {
        "params": {
          "user": "User address"
        },
        "returns": {
          "_0": "Current user state"
        }
      },
      "markIntentsProcessed(uint256[],bool)": {
        "params": {
          "intentIds": "Array of intent IDs to mark as processed",
          "success": "Whether the processing was successful"
        }
      },
      "owner()": {
        "details": "Returns the address of the current owner."
      },
      "renounceOwnership()": {
        "details": "Leaves the contract without owner. It will not be possible to call `onlyOwner` functions. Can only be called by the current owner. NOTE: Renouncing ownership will leave the contract without an owner, thereby disabling any functionality that is only available to the owner."
      },
      "setBatchProcessor(address)": {
        "params": {
          "_batchProcessor": "Address of the batch processor contract"
        }
      },
      "setFundPool(address)": {
        "params": {
          "_fundPool": "Address of the fund pool contract"
        }
      },
      "setMinBatchSize(uint256)": {
        "params": {
          "_minBatchSize": "New minimum batch size (must be at least 1)"
        }
      },
      "submitIntent((bytes32,bytes32,bytes32,bytes32,bytes32,bytes32,bytes))": {
        "params": {
          "params": "Struct containing all encrypted parameters and proofs"
        },
        "returns": {
          "intentId": "The ID of the submitted intent"
        }
      },
      "transferOwnership(address)": {
        "details": "Transfers ownership of the contract to a new account (`newOwner`). Can only be called by the current owner."
      },
      "updateUserState(address,uint8)": {
        "params": {
          "newState": "New state for the user",
          "user": "User address"
        }
      }
    },
    "title": "IntentCollector",
    "version": 1
  },
  "userdoc": {
    "errors": {
      "InvalidBatchProcessor()": [
        {
          "notice": "Custom errors"
        }
      ]
    },
    "events": {
      "IntentSubmitted(uint256,address,uint256,uint256)": {
        "notice": "Events"
      }
    },
    "kind": "user",
    "methods": {
      "BATCH_TIMEOUT()": {
        "notice": "Maximum batch timeout in seconds"
      },
      "batchCounter()": {
        "notice": "Current batch counter"
      },
      "batchIntents(uint256,uint256)": {
        "notice": "Mapping from batch ID to intent IDs in that batch"
      },
      "batchProcessor()": {
        "notice": "Address of the batch processor contract"
      },
      "canSubmitIntent(address)": {
        "notice": "Check if user can submit intents"
      },
      "cancelUserIntents(address)": {
        "notice": "Cancel all active intents for a user (called during withdrawal)"
      },
      "checkBatchReady()": {
        "notice": "Check if current batch is ready for processing"
      },
      "constructor": {
        "notice": "Constructor"
      },
      "currentBatchStartTime()": {
        "notice": "Current batch start time"
      },
      "filterActiveIntents(uint256[])": {
        "notice": "Get active intent IDs for batch processing (filters by user state)"
      },
      "fundPool()": {
        "notice": "Address of the fund pool contract"
      },
      "getBatchIntents(uint256)": {
        "notice": "Get batch intent IDs"
      },
      "getBatchStats()": {
        "notice": "Get batch statistics"
      },
      "getIntent(uint256)": {
        "notice": "Get intent details"
      },
      "getPendingIntentsCount()": {
        "notice": "Get pending intents count"
      },
      "getReadyBatch()": {
        "notice": "Get ready batch data for processing (only call after checkBatchReady returns true)"
      },
      "getUserIntents(address)": {
        "notice": "Get user's intent IDs"
      },
      "getUserState(address)": {
        "notice": "Get user state"
      },
      "intentCounter()": {
        "notice": "Current intent counter"
      },
      "intents(uint256)": {
        "notice": "Mapping from intent ID to encrypted intent"
      },
      "markIntentsProcessed(uint256[],bool)": {
        "notice": "Mark intents as processed (called by batch processor)"
      },
      "minBatchSize()": {
        "notice": "Minimum batch size required for processing (configurable by owner)"
      },
      "pendingIntents(uint256)": {
        "notice": "Pending intents in current batch"
      },
      "setBatchProcessor(address)": {
        "notice": "Set batch processor address"
      },
      "setFundPool(address)": {
        "notice": "Set fund pool address"
      },
      "setMinBatchSize(uint256)": {
        "notice": "Set minimum batch size"
      },
      "startNewBatch()": {
        "notice": "Start new batch (called by batch processor)"
      },
      "submitIntent((bytes32,bytes32,bytes32,bytes32,bytes32,bytes32,bytes))": {
        "notice": "Submit a new encrypted DCA intent"
      },
      "updateUserState(address,uint8)": {
        "notice": "Update user state (only callable by FundPool or BatchProcessor)"
      },
      "userIntents(address,uint256)": {
        "notice": "Mapping from user address to their intent IDs"
      },
      "userStates(address)": {
        "notice": "Mapping from user address to their current state"
      }
    },
    "notice": "Collects and manages encrypted DCA intents with privacy-preserving parameters",
    "version": 1
  },
  "storageLayout": {
    "storage": [
      {
        "astId": 39118,
        "contract": "contracts/IntentCollector.sol:IntentCollector",
        "label": "_owner",
        "offset": 0,
        "slot": "0",
        "type": "t_address"
      },
      {
        "astId": 39298,
        "contract": "contracts/IntentCollector.sol:IntentCollector",
        "label": "_status",
        "offset": 0,
        "slot": "1",
        "type": "t_uint256"
      },
      {
        "astId": 43198,
        "contract": "contracts/IntentCollector.sol:IntentCollector",
        "label": "intents",
        "offset": 0,
        "slot": "2",
        "type": "t_mapping(t_uint256,t_struct(EncryptedIntent)43192_storage)"
      },
      {
        "astId": 43204,
        "contract": "contracts/IntentCollector.sol:IntentCollector",
        "label": "userIntents",
        "offset": 0,
        "slot": "3",
        "type": "t_mapping(t_address,t_array(t_uint256)dyn_storage)"
      },
      {
        "astId": 43210,
        "contract": "contracts/IntentCollector.sol:IntentCollector",
        "label": "userStates",
        "offset": 0,
        "slot": "4",
        "type": "t_mapping(t_address,t_enum(UserState)43140)"
      },
      {
        "astId": 43216,
        "contract": "contracts/IntentCollector.sol:IntentCollector",
        "label": "batchIntents",
        "offset": 0,
        "slot": "5",
        "type": "t_mapping(t_uint256,t_array(t_uint256)dyn_storage)"
      },
      {
        "astId": 43219,
        "contract": "contracts/IntentCollector.sol:IntentCollector",
        "label": "intentCounter",
        "offset": 0,
        "slot": "6",
        "type": "t_uint256"
      },
      {
        "astId": 43222,
        "contract": "contracts/IntentCollector.sol:IntentCollector",
        "label": "batchCounter",
        "offset": 0,
        "slot": "7",
        "type": "t_uint256"
      },
      {
        "astId": 43230,
        "contract": "contracts/IntentCollector.sol:IntentCollector",
        "label": "minBatchSize",
        "offset": 0,
        "slot": "8",
        "type": "t_uint256"
      },
      {
        "astId": 43233,
        "contract": "contracts/IntentCollector.sol:IntentCollector",
        "label": "batchProcessor",
        "offset": 0,
        "slot": "9",
        "type": "t_address"
      },
      {
        "astId": 43237,
        "contract": "contracts/IntentCollector.sol:IntentCollector",
        "label": "fundPool",
        "offset": 0,
        "slot": "10",
        "type": "t_contract(IFundPool)44729"
      },
      {
        "astId": 43240,
        "contract": "contracts/IntentCollector.sol:IntentCollector",
        "label": "currentBatchStartTime",
        "offset": 0,
        "slot": "11",
        "type": "t_uint256"
      },
      {
        "astId": 43244,
        "contract": "contracts/IntentCollector.sol:IntentCollector",
        "label": "pendingIntents",
        "offset": 0,
        "slot": "12",
        "type": "t_array(t_uint256)dyn_storage"
      }
    ],
    "types": {
      "t_address": {
        "encoding": "inplace",
        "label": "address",
        "numberOfBytes": "20"
      },
      "t_array(t_uint256)dyn_storage": {
        "base": "t_uint256",
        "encoding": "dynamic_array",
        "label": "uint256[]",
        "numberOfBytes": "32"
      },
      "t_bool": {
        "encoding": "inplace",
        "label": "bool",
        "numberOfBytes": "1"
      },
      "t_contract(IFundPool)44729": {
        "encoding": "inplace",
        "label": "contract IFundPool",
        "numberOfBytes": "20"
      },
      "t_enum(UserState)43140": {
        "encoding": "inplace",
        "label": "enum IntentCollector.UserState",
        "numberOfBytes": "1"
      },
      "t_mapping(t_address,t_array(t_uint256)dyn_storage)": {
        "encoding": "mapping",
        "key": "t_address",
        "label": "mapping(address => uint256[])",
        "numberOfBytes": "32",
        "value": "t_array(t_uint256)dyn_storage"
      },
      "t_mapping(t_address,t_enum(UserState)43140)": {
        "encoding": "mapping",
        "key": "t_address",
        "label": "mapping(address => enum IntentCollector.UserState)",
        "numberOfBytes": "32",
        "value": "t_enum(UserState)43140"
      },
      "t_mapping(t_uint256,t_array(t_uint256)dyn_storage)": {
        "encoding": "mapping",
        "key": "t_uint256",
        "label": "mapping(uint256 => uint256[])",
        "numberOfBytes": "32",
        "value": "t_array(t_uint256)dyn_storage"
      },
      "t_mapping(t_uint256,t_struct(EncryptedIntent)43192_storage)": {
        "encoding": "mapping",
        "key": "t_uint256",
        "label": "mapping(uint256 => struct IntentCollector.EncryptedIntent)",
        "numberOfBytes": "32",
        "value": "t_struct(EncryptedIntent)43192_storage"
      },
      "t_struct(EncryptedIntent)43192_storage": {
        "encoding": "inplace",
        "label": "struct IntentCollector.EncryptedIntent",
        "members": [
          {
            "astId": 43166,
            "contract": "contracts/IntentCollector.sol:IntentCollector",
            "label": "budget",
            "offset": 0,
            "slot": "0",
            "type": "t_userDefinedValueType(euint64)45858"
          },
          {
            "astId": 43169,
            "contract": "contracts/IntentCollector.sol:IntentCollector",
            "label": "tradesCount",
            "offset": 0,
            "slot": "1",
            "type": "t_userDefinedValueType(euint32)45850"
          },
          {
            "astId": 43172,
            "contract": "contracts/IntentCollector.sol:IntentCollector",
            "label": "amountPerTrade",
            "offset": 0,
            "slot": "2",
            "type": "t_userDefinedValueType(euint64)45858"
          },
          {
            "astId": 43175,
            "contract": "contracts/IntentCollector.sol:IntentCollector",
            "label": "frequency",
            "offset": 0,
            "slot": "3",
            "type": "t_userDefinedValueType(euint32)45850"
          },
          {
            "astId": 43178,
            "contract": "contracts/IntentCollector.sol:IntentCollector",
            "label": "minPrice",
            "offset": 0,
            "slot": "4",
            "type": "t_userDefinedValueType(euint64)45858"
          },
          {
            "astId": 43181,
            "contract": "contracts/IntentCollector.sol:IntentCollector",
            "label": "maxPrice",
            "offset": 0,
            "slot": "5",
            "type": "t_userDefinedValueType(euint64)45858"
          },
          {
            "astId": 43183,
            "contract": "contracts/IntentCollector.sol:IntentCollector",
            "label": "user",
            "offset": 0,
            "slot": "6",
            "type": "t_address"
          },
          {
            "astId": 43185,
            "contract": "contracts/IntentCollector.sol:IntentCollector",
            "label": "submittedAt",
            "offset": 0,
            "slot": "7",
            "type": "t_uint256"
          },
          {
            "astId": 43187,
            "contract": "contracts/IntentCollector.sol:IntentCollector",
            "label": "batchId",
            "offset": 0,
            "slot": "8",
            "type": "t_uint256"
          },
          {
            "astId": 43189,
            "contract": "contracts/IntentCollector.sol:IntentCollector",
            "label": "isActive",
            "offset": 0,
            "slot": "9",
            "type": "t_bool"
          },
          {
            "astId": 43191,
            "contract": "contracts/IntentCollector.sol:IntentCollector",
            "label": "isProcessed",
            "offset": 1,
            "slot": "9",
            "type": "t_bool"
          }
        ],
        "numberOfBytes": "320"
      },
      "t_uint256": {
        "encoding": "inplace",
        "label": "uint256",
        "numberOfBytes": "32"
      },
      "t_userDefinedValueType(euint32)45850": {
        "encoding": "inplace",
        "label": "euint32",
        "numberOfBytes": "32"
      },
      "t_userDefinedValueType(euint64)45858": {
        "encoding": "inplace",
        "label": "euint64",
        "numberOfBytes": "32"
      }
    }
  }
}